:040000006CEF00F0B1
:060008004A8238EF06F009
:100018004A80D8CF05F0E8CF06F0E0CF07F0A0A2DD
:1000280018EF00F01AEF00F064EF00F0A1A21FEF44
:1000380000F021EF00F064EF00F0A19243EF00F030
:100048008D70FD0EB36E930EB26E64EF00F08D707E
:10005800FD0EB36ECE0EB26E64EF00F08D70FE0E24
:10006800B36E040EB26E64EF00F08D70FE0EB36EC8
:10007800340EB26E64EF00F0B19064EF00F03E50C1
:10008800036E046A0450000AD8B44DEF00F064EF20
:1000980000F00350000AD8B424EF00F0010AD8B4E5
:1000A8002BEF00F0030AD8B432EF00F0010AD8B4FD
:1000B80039EF00F0070AD8B440EF00F064EF00F021
:1000C80007C0E0FF06C0E8FF05C0D8FF4A9010004F
:1000D800A3EF09F04BEC0AF060EC0AF056EC0AF0DA
:1000E80098EC0AF0A5EC0AF07EEC0AF032EC0AF083
:1000F800800E166E1A0E176E060E186E76EC09F044
:10010800070E326E170E316E6A0EE82EFED7312EAC
:10011800FCD7322EFAD700D0FBEC07F0000E096EA0
:10012800000E086E000E0B6E000E0A6E87EC0AF0C9
:100138009FEC0AF0F50E2B6E7F0E2C6E400E2D6E86
:10014800000E2E6E010E2F6E15EC09F0000E096ED2
:10015800000E086E000E0B6E0A0E0A6E87EC0AF08F
:10016800EB0E2B6E7F0E2C6E400E2D6E000E2E6E3B
:10017800010E2F6E15EC09F0000E096E000E086EC8
:10018800000E0B6E140E0A6E87EC0AF0C90E2B6E69
:100198007F0E2C6E400E2D6E000E2E6E010E2F6EF1
:1001A80015EC09F0000E096E000E086E000E0B6EBD
:1001B8001E0E0A6E87EC0AF0DB0E2B6E7F0E2C6E7D
:1001C800400E2D6E000E2E6E010E2F6E15EC09F0EE
:1001D80047EC09F0000E336E3D0E326EE10E316EC3
:1001E800400EE82EFED7312EFCD7322EFAD7332A0E
:1001F800020E336402EF01F004EF01F0F0EF00F0BB
:100208009FEC0AF0000E096E000E086E000E0B6ED1
:10021800000E0A6E87EC0AF0400E146E000E156E82
:10022800010E166E400E66EC04F047EC09F090ECF7
:1002380002F0346E3428D8B424EF01F026EF01F030
:100248001BEF01F0000E096E000E086E000E0B6E1B
:10025800000E0A6E87EC0AF0400E146E000E156E42
:10026800010E166E345066EC04F047EC09F03DEFD1
:1002780002F0F29E000E62EC08F0000E9FEC08F00F
:10028800000E3D6E000E3E6E000E3F6EF28E1BEFAE
:1002980001F0F29E000E62EC08F0010E9FEC08F0EF
:1002A800000E3D6E010E3E6E000E3F6EF28E1BEF8D
:1002B80001F0F29E000E62EC08F0020E9FEC08F0CE
:1002C800000E3D6E020E3E6E000E3F6EF28E1BEF6C
:1002D80001F0F29E010E62EC08F0000E9FEC08F0AF
:1002E800010E3D6E000E3E6E000E3F6EF28E1BEF4D
:1002F80001F0F29E010E62EC08F0010E9FEC08F08E
:10030800010E3D6E010E3E6E000E3F6EF28E1BEF2B
:1003180001F0F29E010E62EC08F0020E9FEC08F06C
:10032800010E3D6E020E3E6E000E3F6EF28E1BEF0A
:1003380001F0F29E020E62EC08F0000E9FEC08F04D
:10034800020E3D6E000E3E6E000E3F6EF28E1BEFEB
:1003580001F0F29E020E62EC08F0010E9FEC08F02C
:10036800020E3D6E010E3E6E000E3F6EF28E1BEFCA
:1003780001F0F29E020E62EC08F0020E9FEC08F00B
:10038800020E3D6E020E3E6E000E3F6EF28E1BEFA9
:1003980001F0F29E000E62EC08F0030E9FEC08F0EC
:1003A800000E3D6E030E3E6E000E3F6EF28E1BEF8A
:1003B80001F0F29E010E62EC08F0030E9FEC08F0CB
:1003C800010E3D6E030E3E6E000E3F6EF28E1BEF69
:1003D80001F0F29E020E62EC08F0030E9FEC08F0AA
:1003E800020E3D6E030E3E6E000E3F6EF28E1BEF48
:1003F80001F0F29E030E62EC08F0030E9FEC08F089
:10040800030E3D6E030E3E6E000E3F6EF28E1BEF26
:1004180001F0F29E030E62EC08F0000E9FEC08F06B
:10042800030E3D6E000E3E6E000E3F6EF28E1BEF09
:1004380001F0F29E030E62EC08F0010E9FEC08F04A
:10044800030E3D6E010E3E6E000E3F6EF28E1BEFE8
:1004580001F0F29E030E62EC08F0020E9FEC08F029
:10046800030E3D6E020E3E6E000E3F6EF28E1BEFC7
:1004780001F034C031F0326A31BE32063250000A1F
:10048800D8B449EF02F08CEF02F03150230AD8B407
:100498002DEF02F0090AD8B40DEF02F01A0AD8B409
:1004A8001DEF02F0010AD8B43DEF01F0030AD8B4F9
:1004B8004DEF01F0010AD8B45DEF01F0070AD8B496
:1004C8006DEF01F0010AD8B47DEF01F0030AD8B44A
:1004D8008DEF01F0010AD8B49DEF01F00F0AD8B4EE
:1004E800ADEF01F0010AD8B4BDEF01F0780AD8B435
:1004F800CDEF01F0030AD8B4DDEF01F0010AD8B45A
:10050800EDEF01F0070AD8B4FDEF01F08CEF02F02F
:100518001BEF01F06CEF00F083688398040EE82E5F
:10052800FED783B09AEF02F09CEF02F0B1EF02F031
:10053800040E096E0C0E086E340EE82EFED7082E37
:10054800FCD7092EFAD783A0ACEF02F0AEEF02F089
:10055800A7EF02F0310E65EF04F083B2B6EF02F0B8
:10056800B8EF02F0CDEF02F0040E096E0C0E086E23
:10057800340EE82EFED7082EFCD7092EFAD783A210
:10058800C8EF02F0CAEF02F0C3EF02F0320E65EFD7
:1005980004F083B4D2EF02F0D4EF02F0E9EF02F0F6
:1005A800040E096E0C0E086E340EE82EFED7082EC7
:1005B800FCD7092EFAD783A4E4EF02F0E6EF02F0A5
:1005C800DFEF02F0330E65EF04F083B6EEEF02F0D2
:1005D800F0EF02F005EF03F0040E096E0C0E086E42
:1005E800340EE82EFED7082EFCD7092EFAD783A69C
:1005F80000EF03F002EF03F0FBEF02F0410E65EFAE
:1006080004F08368839A040EE82EFED783B00FEFB8
:1006180003F011EF03F026EF03F0040E096E0C0E41
:10062800086E340EE82EFED7082EFCD7092EFAD70E
:1006380083A021EF03F023EF03F01CEF03F0340E47
:1006480065EF04F083B22BEF03F02DEF03F042EFD8
:1006580003F0040E096E0C0E086E340EE82EFED759
:10066800082EFCD7092EFAD783A23DEF03F03FEFFF
:1006780003F038EF03F0350E65EF04F083B447EF6D
:1006880003F049EF03F05EEF03F0040E096E0C0E61
:10069800086E340EE82EFED7082EFCD7092EFAD79E
:1006A80083A459EF03F05BEF03F054EF03F0360E29
:1006B80065EF04F083B663EF03F065EF03F07AEFBC
:1006C80003F0040E096E0C0E086E340EE82EFED7E9
:1006D800082EFCD7092EFAD783A675EF03F077EF1B
:1006E80003F070EF03F0420E65EF04F08368839C1B
:1006F800040EE82EFED783B084EF03F086EF03F0F4
:100708009BEF03F0040E096E0C0E086E340EE82EF3
:10071800FED7082EFCD7092EFAD783A096EF03F050
:1007280098EF03F091EF03F0370E65EF04F083B212
:10073800A0EF03F0A2EF03F0B7EF03F0040E096E89
:100748000C0E086E340EE82EFED7082EFCD7092EA4
:10075800FAD783A2B2EF03F0B4EF03F0ADEF03F0E2
:10076800380E65EF04F083B4BCEF03F0BEEF03F07E
:10077800D3EF03F0040E096E0C0E086E340EE82E4B
:10078800FED7082EFCD7092EFAD783A4CEEF03F0A4
:10079800D0EF03F0C9EF03F0390E65EF04F083B62C
:1007A800D8EF03F0DAEF03F0EFEF03F0040E096E71
:1007B8000C0E086E340EE82EFED7082EFCD7092E34
:1007C800FAD783A6EAEF03F0ECEF03F0E5EF03F0C6
:1007D800430E65EF04F08368839E040EE82EFED76F
:1007E80083B0F9EF03F0FBEF03F010EF04F0040E11
:1007F800096E0C0E086E340EE82EFED7082EFCD7B4
:10080800092EFAD783A00BEF04F00DEF04F006EFE2
:1008180004F02A0E65EF04F083B215EF04F017EF29
:1008280004F02CEF04F0040E096E0C0E086E340E62
:10083800E82EFED7082EFCD7092EFAD783A227EF79
:1008480004F029EF04F022EF04F0300E65EF04F015
:1008580083B431EF04F033EF04F048EF04F0040EF2
:10086800096E0C0E086E340EE82EFED7082EFCD743
:10087800092EFAD783A443EF04F045EF04F03EEFC6
:1008880004F0230E65EF04F083B64DEF04F04FEF4C
:1008980004F064EF04F0040E096E0C0E086E340EBA
:1008A800E82EFED7082EFCD7092EFAD783A65FEFCD
:1008B80004F061EF04F05AEF04F0440E65EF04F021
:1008C800FF0E1200226E14C0D9FF15C0DAFFDF50E8
:1008D800176E17504424186E000E4520196E1950D3
:1008E80007E1800E185CD8B07CEF04F07EEF04F0CE
:1008F80097EF04F020EE01F01450D9261550DA22B3
:10090800DF50176E17504624186E000E4720196ED8
:10091800195009E1400E185CD8A095EF04F097EF44
:1009280004F09AEF04F0000E7CEF05F0000E236E41
:10093800000E246E000E256E000E266E55EF05F093
:10094800E00E2224086E096AFF0E092220EE01F04B
:100958001450D9261550DA22DF50176E17500A6E38
:100968000B6A10EC0AF02350082624500922D8906C
:100978000836093620EE02F01450D9261550DA222E
:10098800DECF18F0DDCF19F0085018241A6E095080
:1009980019201B6E1AC0F6FF1BC0F7FF0900F5CF20
:1009A8001CF00900F5CF1DF01CC01EF01DC01FF083
:1009B800206A216A000E276E000E286E000E296E2E
:1009C800000E2A6E35EF05F027C017F01EC018F08C
:1009D8001FC019F020C01AF021C01BF0172AFAEF27
:1009E80004F0D890183619361A361B36172EF5EF3C
:1009F80004F019AE02EF05F004EF05F016EF05F06C
:100A080027504424086E28504520096E2350462458
:100A18000A6E245047200B6E16C00CF0DCEC06F072
:100A28002FEF05F027504424086E28504520096E02
:100A3800235046240A6E245047200B6E1650D8B413
:100A480028EF05F02BEF05F0010E2CEF05F0000E56
:100A58000C6EDCEC06F0010E2726000E2822292257
:100A68002A2214C0D9FF15C0DAFFDF50176E17C04D
:100A780018F0196A1A6A1B6A1850275C1950285806
:100A88001A5029581B502A58D8A04DEF05F04FEF9F
:100A980005F0E8EF04F0010E2326000E242225229B
:100AA800262220EE01F01450D9261550DA22DF5004
:100AB800176E17C018F0196A1A6A1B6A1850235C57
:100AC800195024581A5025581B502658D8A06FEF93
:100AD80005F071EF05F0A4EF04F014C0D9FF15C0BC
:100AE800DAFFDF50176E17504426000E45222250B9
:100AF800120008C012F009C013F00C500D10D8A451
:100B080088EF05F08AEF05F08CEF05F037EF06F077
:100B180012C0D9FF13C0DAFF0AC0DFFF0C5012243D
:100B28000E6E0D5013200F6EFF0E0E24D96EFF0EA1
:100B38000F20DA6E0AC0DFFF0D5007E1030E0C5CD0
:100B4800D8B0A9EF05F0ABEF05F0ADEF05F037EF42
:100B580006F020EE01F01250D9261350DA220AC00E
:100B6800DFFF20EE02F01250D9261350DA220AC015
:100B7800DFFF0C5012240E6E0D5013200F6EFE0E68
:100B88000E24D96EFF0E0F20DA6E0AC0DFFF0C505C
:100B980012240E6E0D5013200F6EFD0E0E24D96E0A
:100BA800FF0E0F20DA6E0AC0DFFF0D5007E1070EB7
:100BB8000C5CD8B0E2EF05F0E4EF05F0E6EF05F0E5
:100BC80037EF06F020EE03F01250D9261350DA2240
:100BD8000AC0DFFF0C5012240E6E0D5013200F6E4A
:100BE800FC0E0E24D96EFF0E0F20DA6E0AC0DFFF4E
:100BF8000D5007E1090E0C5CD8B005EF06F007EFC1
:100C080006F009EF06F037EF06F012C00EF013C039
:100C18000FF00E1E0F1E0E4A0F2A030E0E14106E32
:100C2800116A105012261150132210500C5E1150E8
:100C38000D5AFC0E0C16FF0E0D162EEF06F012C004
:100C4800D9FF13C0DAFF0AC0DFFF0C06D8A00D06D3
:100C5800124A132A0C500D10D8A435EF06F037EFBE
:100C680006F023EF06F012009DA03DEF06F03FEFDF
:100C780006F089EF06F09EA044EF06F046EF06F076
:100C880089EF06F09E9068EF06F08D74FB0ECF6E2C
:100C9800D20ECE6E89EF06F08D74FC0ECF6E320E3A
:100CA800CE6E89EF06F08D74FC0ECF6E900ECE6E70
:100CB80089EF06F08D74FC0ECF6EE30ECE6E89EFD1
:100CC80006F0CD9089EF06F03D50016E026A0250A1
:100CD800000AD8B472EF06F089EF06F00150000A56
:100CE800D8B449EF06F0010AD8B450EF06F0030A69
:100CF800D8B457EF06F0010AD8B45EEF06F0070A39
:100D0800D8B465EF06F089EF06F0F2AA8EEF06F088
:100D180090EF06F0CAEF06F0F2A495EF06F097EF11
:100D280006F0CAEF06F08972ACEF06F0B180CD800C
:100D3800010E3F6EC5EF06F08D908D94040E3E6E49
:100D4800040E3D6EB190CD90020E3F6EC5EF06F0D9
:100D58003F50016E026A0250000AD8B4B6EF06F09E
:100D6800C5EF06F00150000AD8B49AEF06F0010A60
:100D7800D8B4A0EF06F0030AD8B4C5EF06F0C5EF63
:100D880006F0ED0ED76EB00ED66EF2949DAACFEF98
:100D980006F0D1EF06F0D2EF06F09E509DA8D7EFEF
:100DA80006F0D9EF06F0DAEF06F09E504A921100ED
:100DB800095007E1800E085CD8B0E5EF06F0E7EFD0
:100DC80006F074EF07F00B5009E1400E0A5CD8A05A
:100DD800F0EF06F0F2EF06F0F4EF06F074EF07F02C
:100DE8004850D8B4FAEF06F0FCEF06F007EF07F02A
:100DF8000C50D8B402EF07F005EF07F0010E06EF2C
:100E080007F0000E0C6E0C04D8A40DEF07F00FEFDE
:100E180007F041EF07F00AC00DF0070E0D16010E9E
:100E28000E6E0D2A1AEF07F0D8900E360D2E18EF19
:100E380007F00AC00FF00BC010F0D89010320F3234
:100E4800D89010320F32D89010320F32070ED89047
:100E58000F361036E82E2BEF07F0000E0F24116E18
:100E6800020E1020126E08501124D96E095012205B
:100E7800DA6E0E50DF1274EF07F00AC00DF0070E9D
:100E88000D16010E0E6E0D2A4CEF07F0D8900E3697
:100E98000D2E4AEF07F00E50FF0A0F6E0AC010F031
:100EA8000BC011F0D89011321032D8901132103294
:100EB800D89011321032070ED89010361136E82E1D
:100EC80060EF07F0000E1024126E020E1120136E50
:100ED80008501224D96E09501320DA6E0F50DF160D
:100EE8001200000E116E0FBE7EEF07F07CEF07F0C8
:100EF80088EF07F00F1E0E1E0D1E0C6C000E0D2243
:100F08000E220F22010E116E0BBE8FEF07F08DEF30
:100F180007F099EF07F00B1E0A1E091E086C000E59
:100F280009220A220B22010E111A000E126E000E5F
:100F3800136E000E146E000E156E0C500D100E1070
:100F48000F10D8B4AAEF07F0ACEF07F0E2EF07F004
:100F5800010E106EB6EF07F0D8900C360D360E362F
:100F68000F36102A0FAEBBEF07F0BDEF07F0B0EF5A
:100F780007F0D89012361336143615360C50085C24
:100F88000D5009580E500A580F500B58D8A0CFEFE3
:100F980007F0D1EF07F0DAEF07F00C50085E0D50BC
:100FA800095A0E500A5A0F500B5A1280D8900F3215
:100FB8000E320D320C32102EBDEF07F01150D8B49E
:100FC800E8EF07F0EAEF07F0F2EF07F0151E141E3E
:100FD800131E126C000E13221422152212C008F0E0
:100FE80013C009F014C00AF015C00BF01200AE0EC1
:100FF80023EC0AF0200E23EC0AF0100E23EC0AF082
:10100800B00E23EC0AF0C80E23EC0AF0000E23EC15
:101018000AF0100E23EC0AF0400E23EC0AF0810EC1
:1010280023EC0AF0FF0E23EC0AF0A10E23EC0AF0E1
:10103800A60E23EC0AF0A80E23EC0AF03F0E23ECD0
:101048000AF0A40E23EC0AF0D30E23EC0AF0000EEB
:1010580023EC0AF0D50E23EC0AF0F00E23EC0AF08C
:10106800D90E23EC0AF0220E23EC0AF0DA0E23EC58
:101078000AF0120E23EC0AF0DB0E23EC0AF0200E25
:1010880023EC0AF08D0E23EC0AF0140E23EC0AF080
:10109800AF0E23EC0AF02E0E23EC0AF0000EEFEC54
:1010A80009F047EC09F0000E456E000E446E000E84
:1010B800476E000E466E010E496E12000A6E7DEFF5
:1010C80008F0FB0ECF6ED20ECE6E9EEF08F0FC0E2F
:1010D800CF6E320ECE6E9EEF08F0FC0ECF6E900EE5
:1010E800CE6E9EEF08F0FC0ECF6EE30ECE6E9EEF36
:1010F80008F00A50086E096A0950000AD8B487EF48
:1011080008F09EEF08F00850000AD8B465EF08F020
:10111800010AD8B46BEF08F0030AD8B471EF08F0ED
:10112800010AD8B477EF08F0070AD8B465EF08F0D9
:101138009EEF08F012000A6EBAEF08F0FD0EB36ECB
:10114800930EB26EDBEF08F0FD0EB36ECE0EB26EEC
:10115800DBEF08F0FE0EB36E040EB26EDBEF08F0A4
:10116800FE0EB36E340EB26EDBEF08F00A50086E56
:10117800096A0950000AD8B4C4EF08F0DBEF08F098
:101188000850000AD8B4A2EF08F0010AD8B4A8EFB2
:1011980008F0030AD8B4AEEF08F0010AD8B4B4EFE7
:1011A80008F0070AD8B4A2EF08F0DBEF08F0120045
:1011B800176E10C000F1000E186EF9EF08F0185005
:1011C8001124D96E000E1220DA6E1850156E166AA8
:1011D800010E1526000E1622000E1524E16E010ED2
:1011E8001620E26EDFCFE7FF182A1850156E166A30
:1011F8001350155C14501658D8A005EF09F007EFE6
:1012080009F0E3EF08F0000E096E010E0A6E010EF8
:1012180013240B6E000E14200C6E1750CAEC09F044
:10122800120038EF09F02DC014F02EC015F02FC0B1
:1012380016F02BC0F6FF2CC0F7FF0800F55066EC3F
:1012480004F0306E2BC0F6FF2CC0F7FF0800F550F5
:101258003018D8B432EF09F034EF09F036EF09F05E
:1012680046EF09F02B4A2C2A2BC0F6FF2CC0F7FFBB
:101278000800F5500009D8A444EF09F046EF09F03A
:1012880017EF09F01200000E1B6E1B50B00F23EC75
:101298000AF0000E23EC0AF0100E23EC0AF0400EC0
:1012A800106E1B50196E1A6A070ED89019361A3626
:1012B800E82E59EF09F0000E1924116E020E1A20BB
:1012C800126E000E146E800E136E780EDCEC08F0B1
:1012D8001B2A070E1B6473EF09F075EF09F049EF3D
:1012E80009F0120093809382C78EC79C280EC612FD
:1012F800C550000E086E6C0E096EDC0E0A6E020EEA
:101308000B6E020E196E16C01AF017C01BF018C02B
:101318001CF0192894EF09F0D8901A361B361C36A1
:10132800E82E90EF09F01A500C6E1B500D6E1C50F1
:101338000E6E0F6A75EC07F00804C86E1200200ED6
:10134800F66E150EF76E000EF86E00EE35F010EE24
:101358000FF00900F5CFEEFFE550E150FAE102EE9B
:1013680000F014EE00F0EE6AE550E150FCE1E250C6
:10137800FAE1496A486A476A466A456A446A4A908D
:101388004A92000EF86E00016EEF00F00D6E74ECDC
:101398000AF00D503FEC0AF0000E0F6E000E0E6EB4
:1013A800E1EF09F009C0D9FF0AC0DAFFDF503FECCE
:1013B8000AF0094A0A2A0E4A0F2A0B500E5C0C50F2
:1013C8000F58D8A0EAEF09F0ECEF09F0D6EF09F0D2
:1013D8006AEC0AF01200146E1450D8B4F6EF09F053
:1013E800F8EF09F0FDEF09F0000E166E156801EF31
:1013F8000AF0000E166E000E156E000E086E020E34
:10140800096E15C00AF016C00BF0040E0D6E000E22
:101418000C6E7DEC05F0120008500A02F3CF0CF0B8
:10142800F4CF0DF008500B02F3500D2609500A02B4
:10143800F3500D260CC008F00DC009F01200096E1B
:1014480074EC0AF0780E3FEC0AF0000E3FEC0AF05C
:1014580009503FEC0AF06AEC0AF01200958095807A
:10146800958095809598959A959C959E8388838A72
:10147800838C838E1200086E08C0C9FF9EA647EFB2
:101488000AF049EF0AF042EF0AF09E9612000F0E9A
:10149800C11292928992929A928896949690928684
:1014A800928A1200ED0ED76EB00ED66E870ED56EEC
:1014B800F184F294F28A1200FB0ECF6ED20ECE6E39
:1014C800B10ECD6E9F809E909D801200C584C5B4DC
:1014D80070EF0AF072EF0AF06BEF0AF09E961200B6
:1014E800C580C5B07AEF0AF07CEF0AF075EF0AF014
:1014F8009E961200FD0EB36E930EB26EA292B10EBE
:10150800B16EA082120008C044F009C045F00AC0BC
:1015180046F00BC047F01200101AB5570B12016BBA
:07152800040402070A5D78CC
:10153000F28EF28EF28CF28CF28CD08E1200000EB3
:10154000EFEC09F047EC09F01200F28EF28C120079
:1057B40000000000000000000000000000000000E5
:1057C40000000000000000000000000000000000D5
:1057D40000000000000000000000000000000000C5
:1057E4000000000000E003E003E003E003E003E066
:1057F40003E003E003C003C003C001C001C001C053
:1058040001C001000000000000E003E003E0030029
:105814000000000000000000003C1E3C1E3C1E3C3A
:105824001E3C1E3C1E3C1E00000000000000000048
:105834000000000000000000000000000000000064
:1058440000000000000000000000000000CE01CEB7
:1058540003DE039E039C039C07FF3FFF7F3807384A
:105864000F780F780F780EFFFFFFFFF01EF01CE09B
:105874001CE03CE03DE039000000000000000000B6
:1058840000FC03FE0FEE1FE01EE01EE01EE01EE023
:105894001FE00FE007F003FC01FE01FE01FE01FE24
:1058A40001FE01FE01FE3DFC3FF00FE001E00100BE
:1058B4000000000000033E07F78FE78EE79EE3BC7D
:1058C400E3B8E7F8E7F0F7E03FC001FF03FF07F3B1
:1058D40007F30FF31EF33CF338F3787FF03FE00057
:1058E400000000000000000000E007F80F780F78C7
:1058F4001F781F781F780FF00FE00F801FC37FC33E
:10590400FBE7F3F7F1F7F0FFF07FF03EF87F7CFF61
:105914003FEF1F00000000000000000000E003E073
:1059240003E003E003E003C003C001000000000043
:105934000000000000000000000000000000000063
:105944000000000000000000000000000000000053
:10595400003F007C00F001E001C003C00780078025
:1059640007800F000F000F000F000F000F000F80C3
:105974000F80078007C007C003E001F0017C003FEF
:10598400000F000000007E001FC007C003E001F00C
:1059940001F000F000F800780078007800780078D2
:1059A400007800F800F000F000F001E001C003C04E
:1059B40007001F007E00780000E003C003C001CE92
:1059C40039FF3F7F3F20037003F807780F3C1F38EF
:1059D40006000000000000000000000000000000BD
:1059E40000000000000000000000000000000000B3
:1059F400000000000000000000C001C001C001C0A0
:105A040001C001C001C001FFFFFFFFC001C001C010
:105A140001C001C001C0010000000000000000003E
:105A24000000000000000000000000000000000072
:105A34000000000000000000000000000000000062
:105A4400000000E003E003E003E003E001E001E024
:105A540001C00180030000000000000000000000FD
:105A64000000000000000000000000FE3FFE3F00B8
:105A74000000000000000000000000000000000022
:105A84000000000000000000000000000000000012
:105A94000000000000000000000000000000000002
:105AA4000000000000000000000000E003E003E04C
:105AB40003E003000000000000000000000F000FDE
:105AC400001E001E003C003C0078007800F000F04E
:105AD40000E001E001C003C00380078007000F005D
:105AE4000F001E001E003C003C0078007800F0000F
:105AF40000F007F80F7C1F3E3E1E3C1F7C1F7C0FEE
:105B0400780F780F780F780F780F780F781F7C1F35
:105B14007C1E3C3E3E7C1FF80FF007000000000096
:105B24000000000000F000F007F03FF03FF001F04B
:105B340001F001F001F001F001F001F001F001F0D9
:105B440001F001F001F001F001F001FF3FFF3F001F
:105B5400000000000000000000E00FF83F7C3C3C27
:105B6400003E003E003E003C003C007C00F800F09B
:105B740001E003C0078007000F001E003E003CFE4A
:105B84003FFE3F00000000000000000000F00FF89E
:105B94001F7C1C3E003E003E003C003C00F800F030
:105BA4000FF80F7C003E001E001E001E001E003E6B
:105BB400007C1CF81FE01F00000000000000000033
:105BC400007800F800F800F801F803F807F80778FF
:105BD4000F781E781E783C78787878FFFFFFFF787E
:105BE4000078007800780078007800000000000059
:105BF4000000000000FC1FFC1FFC1F001E001E0014
:105C04001E001E001EE01FF81FFC007C003E003E2C
:105C1400001E003E003E003C007C1CF81FE01F00FC
:105C2400000000000000000000FC01FE078E0F00D1
:105C34001F001E003E003C003CF83DFC3F3E7F1F21
:105C44007E0F3C0F3C0F3C0F3C0F3E1F1E3E1FFCC3
:105C54000FF00300000000000000000000FF3FFF01
:105C64003FFF3F0F001E001E003C0038007800F08C
:105C740000F000E001E001C003C0038007800F8052
:105C84000F000F001F001F000000000000000000B4
:105C940000F807FC0F3E1F1E1E1E3E1E3E1E1E3C2D
:105CA4001FF80FF007F80FFC1E3E3E1F3C1F7C0F31
:105CB4007C0F7C1F3C3E3FFC1FF0070000000000EF
:105CC4000000000000F007F80F7C1E3E3C1E3C1F45
:105CD4007C1F7C1F7C1F7C1F3C3F3EFF1FEF071F68
:105CE400001E001E003E003C00F838F03FE01F009C
:105CF40000000000000000000000000000000000A0
:105D04000000000000E003E003E003E00300000003
:105D14000000000000000000000000E003E003E0D9
:105D240003E0030000000000000000000000000089
:105D3400000000000000000000E003E003E003E0D6
:105D4400030000000000000000000000000000E06C
:105D540003E003E003E003E001E001E001C00380AD
:105D64000300000000000000000000000003000F1A
:105D7400003F00FC00F003C00F003F00FE003FC0E6
:105D84000FF003FC003F000F0003000000000000C0
:105D940000000000000000000000000000000000FF
:105DA400000000000000000000FFFFFFFF000000F3
:105DB400000000FFFFFFFF000000000000000000E3
:105DC40000000000000000000000000000000000CF
:105DD400000000000000E000F8007E801FE007F8EB
:105DE400017E001F007E00F801E007801F007E0096
:105DF400F800E000000000000000000000F01FFCBC
:105E04003F3E381F381F381E001E003C007800F04B
:105E140000E001C003C003C007C007000000000089
:105E240000C007C007C00700000000000000000019
:105E340000F803FE0F1E1F0F3E7F3CFF78EF79C76B
:105E440073C7F38FF38FF38FF39FF39FF3FF73FF06
:105E54007BF779003C1C1FFC0FF8030000000000D6
:105E64000000000000000000000000E003E003F078
:105E740007F007F007780F780F7C0E3C1E3C1E3E9F
:105E84003CFE3FFF3F1F780F780FF007F007F0004C
:105E9400000000000000000000000000000000F806
:105EA4003FFC3F3E3C1E3C1E3C1E3C3E3C7C3CF0CA
:105EB4003FF83F7E3C1F3C1F3C0F3C0F3C1F3CFE09
:105EC4003FF83F0000000000000000000000000058
:105ED400000000FF01FF07871F003E003C007C001C
:105EE400780078007800780078007C007C003E0020
:105EF4003F831FFF07FF01000000000000000000B7
:105F040000000000000000F07FFC7F7E781F781FF7
:105F1400780F780F780F780F780F780F780F780F45
:105F2400781F781E787E78F87FE07F0000000000FC
:105F34000000000000000000000000FF3FFF3F00E1
:105F44003E003E003E003E003E003EFE3FFE3F005F
:105F54003E003E003E003E003E003EFF3FFF3F004D
:105F6400000000000000000000000000000000FF2E
:105F74001FFF1F001E001E001E001E001E001EFF2D
:105F84001FFF1F001E001E001E001E001E001E001C
:105F94001E001E00000000000000000000000000C1
:105FA400000000FE03FF0F871F003E007C007C0002
:105FB4007800F800F87FF87FF80F780F7C0F7C0FDB
:105FC4003E8F1FFF0FFE03000000000000000000D2
:105FD400000000000000001F7C1F7C1F7C1F7C1F32
:105FE4007C1F7C1F7C1F7CFF7FFF7F1F7C1F7C1F0F
:105FF4007C1F7C1F7C1F7C1F7C1F7C00000000001A
:106004000000000000000000000000FF3FFF3FE030
:1060140003E003E003E003E003E003E003E003E064
:1060240003E003E003E003E003E003FF3FFF3F007E
:10603400000000000000000000000000000000FC60
:106044001FFC1F7C007C007C007C007C007C007CAE
:10605400007C007C007C007C0078007800F838F03C
:106064003FC03F00000000000000000000000000EE
:106074000000001F3C1E3C3C3C783CF03CE03DE012
:106084003FC03F803FC03FE03FF03DF03C783C7C68
:106094003C3E3C1F3C0F3C000000000000000000A0
:1060A40000000000000000003E003E003E003E00F4
:1060B4003E003E003E003E003E003E003E003E00EC
:1060C4003E003E003E003EFF3FFF3F000000000058
:1060D40000000000000000000000001FF81FFC1F6B
:1060E400FC3FFE3FFE3FFE7FFF77FF77FFF7F7E7BA
:1060F400F7E7F3E7F3C7F307F007F007F007F0005B
:106104000000000000000000000000000000000F7C
:106114007C0F7C0F7E0F7F0F7F8F7F8F7FCF7FEF72
:106124007BEF79FF79FF78FF787F783F783F781F9E
:10613400781F78000000000000000000000000004C
:10614400000000F007FC1F3E3E1F7C0F780F780F05
:10615400F80FF80FF80FF80FF80FF80F780F781FF3
:106164007C3E3EFC1FF00700000000000000000021
:1061740000000000000000FC3FFF3F1F3E0F3E0FE9
:106184003E0F3E0F3E1F3E3F3EFC3FF03F003E00B1
:106194003E003E003E003E003E003E000000000087
:1061A4000000000000000000000000F007FC1F3E9B
:1061B4003E1F7C0F780F780FF80FF80FF80FF80FC9
:1061C400F80FF80F780F781F7C3E3EFC1FF8077C11
:1061D400003F000F0003000000000000000000F07A
:1061E4003FFC3F7E3C3E3C1E3C1E3C3E3C3C3CFC5B
:1061F4003CF03FE03FF03DF83C7C3C3E3C1E3C1F05
:106204003C0F3C0000000000000000000000000003
:10621400000000FC07FE1F0E3E003C003C003C005A
:106224003EC01FF80FFE037F001F000F000F001F6A
:10623400203E3CFC3FF01F00000000000000000076
:1062440000000000000000FFFFFFFFE003E003E0A8
:1062540003E003E003E003E003E003E003E003E022
:1062640003E003E003E003E003E0030000000000B8
:1062740000000000000000000000000F7C0F7C0FF5
:106284007C0F7C0F7C0F7C0F7C0F7C0F7C0F7C0FB2
:106294007C0F7C0F7C1E3C1E3C3E3EFC1FF0070026
:1062A40000000000000000000000000000000007E3
:1062B400F007F007F80F780F7C1E3C1E3C1E3E3C96
:1062C4001E3C1F781F780FF80FF007F007F007E067
:1062D40003E00300000000000000000000000000D4
:1062E40000000003E003F003F007F0E7F3E7F3E74F
:1062F400F3E773F77BF77FFF7F7F7F7F7F7E7F7E70
:106304003F3E3E3E3E3E3E000000000000000000D6
:106314000000000000000007F80F7C1E3E3E3E3CDB
:106324001FF80FF007E007E003E003F007F80F7C25
:106334000F7C1E3E3C1F780F780FF0000000000019
:10634400000000000000000000000007F807780FBC
:106354007C1E3C1E3E3C1F780FF80FF007E003E064
:1063640003E003E003E003E003E003E003E00300F1
:10637400000000000000000000000000000000FF1A
:106384007FFF7F0F001F003E007C00F800F000E05C
:1063940001E003C007800F000F001E003E007CFFD9
:1063A4007FFF7F00000000000000000000FF078066
:1063B40007800780078007800780078007800780A1
:1063C4000780078007800780078007800780078091
:1063D4000780078007800780078007FF07FF070003
:1063E4000000780078003C003C001E001E000F00F6
:1063F4000F80078007C003C003E001E001F000F054
:1064040000780078003C003C001E001E000F000FC6
:106414000007000000F07FF000F000F000F000F052
:1064240000F000F000F000F000F000F000F000F0E8
:1064340000F000F000F000F000F000F000F000F0D8
:1064440000F000F07FF07F0000C000C001C001E058
:1064540003E003F007F0077807780F380F3C1E3C81
:106464001E1E3C1E3C0F380F780778000000000009
:106474000000000000000000000000000000000018
:106484000000000000000000000000000000000008
:1064940000000000000000000000000000000000F8
:1064A40000000000000000FFFFFFFF0000000000EC
:1064B40000F00000000000000000000000000000E8
:1064C40000000000000000000000000000000000C8
:1064D40000000000000000000000000000000000B8
:1064E40000000000000000000000000000000000A8
:1064F40000F80FFC3F7C3C3E003E003E00FE07FEE1
:106504001F3E3E3E7C3E783E7C7E7CFF3FCF1F009C
:10651400000000000000000000003C003C003C00C3
:106524003C003C003CF83DFE3F3E3F1F3E0F3C0F0D
:106534003C0F3C0F3C0F3C0F3C1F3C1E3C3E3FFCC1
:106544003FF03B00000000000000000000000000DD
:10655400000000000000000000FE03FF0F871F0082
:106564003E003E003C007C007C007C003C003E0081
:106574003E871FFF0FFE0300000000000000000024
:10658400001F001F001F001F001F001F00FF07FF48
:106594001F3F3E1F3C1F7C1F7C1F7C1F781F781FE2
:1065A4007C1F7C3F3C7F3EFF1FDF0F00000000008C
:1065B40000000000000000000000000000000000D7
:1065C40000F803FC0F3E1F1E3E1F3C1F7CFF7FFF95
:1065D4007F007C007C003C003E071FFF0FFE030091
:1065E400000000000000000000FF01E103C003C040
:1065F40007C007C007FF7FFF7FC007C007C007C0F1
:1066040007C007C007C007C007C007C007C007C04E
:1066140007C00700000000000000000000000000A8
:10662400000000000000000000EF07FF1F7F3E1F76
:106634003C1F7C1F7C1F781F781F781F7C1F7C3FAA
:106644003C7F3EFF1FDF0F1E001E001E007C38F83B
:106654003F003C003C003C003C003C003CFC3DFE58
:106664003F9E3F1F3F1F3E1F3C1F3C1F3C1F3C1FC4
:106674003C1F3C1F3C1F3C1F3C1F3C000000000013
:106684000000000000F001F0010000000000000024
:1066940000E07FE07FE001E001E001E001E001E0F3
:1066A40001E001E001E001E001E001E001E00100BE
:1066B400000000000000000000F800F800000000E6
:1066C4000000000000F83FF83FF800F800F800F878
:1066D40000F800F800F800F800F800F800F800F8F6
:1066E40000F800F800F800F000F071E07F003C00D2
:1066F4003C003C003C003C003C1F3C3E3C7C3CF8E5
:106704003CF03DE03DC03FC03FE03FF03DF83C7C05
:106714003C3E3C1F3C1F3C00000000000000000009
:1067240000F07FF001F001F001F001F001F001F060
:1067340001F001F001F001F001F001F001F001F0CD
:1067440001F001F001F001F001F00100000000008F
:106754000000000000000000000000000000000035
:10676400009EF7FFFFFFFFFFFFE7FBE7F9C7F1C755
:10677400F1C7F1C7F1C7F1C7F1C7F1C7F1C7F1001C
:106784000000000000000000000000000000000005
:106794000000000000FC3DFE3F9E3F1F3F1F3E1FC8
:1067A4003C1F3C1F3C1F3C1F3C1F3C1F3C1F3C1F0D
:1067B4003C1F3C000000000000000000000000003E
:1067C400000000000000000000F007FC1F3E3E1F18
:1067D4003C1F7C0F780F780F780F780F781F7C1F81
:1067E4003C3E3EFC1FF007000000000000000000DB
:1067F40000000000000000000000000000F83DFE62
:106804003F3E3F1F3E0F3C0F3C0F3C0F3C0F3C0FE5
:106814003C1F3C1E3E3E3FFC3FF83F003C003C001A
:106824003C003C003C0000000000000000000000B0
:1068340000EE07FE1F7E3E1E3C1E7C1E781E781E48
:10684400781E781E781E7C3E7C7E3EFE1FDE0F1E68
:10685400001E001E001E001E0000000000000000BC
:1068640000000000007F1FFF1FE71FC71F871F00D6
:106874001F001F001F001F001F001F001F001F001C
:106884001F001F00000000000000000000000000C6
:10689400000000000000000000FC07FE1F0E1E00A8
:1068A4003E003E003FE01FFC07FE003E001E001EAF
:1068B400003E3CFC3FF01F00000000000000000010
:1068C40000000000000000800780078007FF7FFFB2
:1068D4007F80078007800780078007800780078004
:1068E4000780078007C007FF03FF010000000000C6
:1068F4000000000000000000000000000000000094
:10690400001E3C1E3C1E3C1E3C1E3C1E3C1E3C1EEF
:106914003C1E3C1E3C3E3C7E3CFE3EFE1FDE0F0009
:106924000000000000000000000000000000000063
:10693400000000000007F00F780F781E3C1E3C1E7C
:106944003E3C1E3C1E780F780FF00FF007F007E076
:1069540003E003000000000000000000000000004D
:1069640000000000000000000003F0E3F1E3F3E79F
:10697400F3F7F3F7F3F77F777F7F7F7F7F7F7F3EA8
:106984003E3E3E3E3E3E3E00000000000000000051
:10699400000000000000000000000000000F7C1E4A
:1069A4003E3C3E3C1FF80FF007F007E003F007F809
:1069B40007F80F7C1E3E3E1F3C1F780000000000BD
:1069C40000000000000000000000000000000000C3
:1069D4000007F80F780F7C1E3C1E3C3C1E3C1E3CFE
:1069E4001F780FF80FF007F007E003E003C003C0BF
:1069F40003C0038007800F007F0000000000000038
:106A04000000000000FF3FFF3F1F003E007C00F835
:106A140000F001E003C007800F001F001E003CFFD0
:106A24007FFF7F00000000000000000000FE01E086
:106A340003C003C003C003C003E001E001E001C0E0
:106A440001C003803F803FC003C001E001E001E0DA
:106A540001C003C003C003C003E003FE017E0000C5
:106A640000C001C001C001C001C001C001C001C01B
:106A740001C001C001C001C001C001C001C001C00A
:106A840001C001C001C001C001C001C001C001C0FA
:106A940001C0010000C03FE003E001E001E001E0CB
:106AA40001C001C003C003C001E001FE00FE00E01C
:106AB40001C001C003C003C001E001E001E001E046
:106AC40001E003C03F003F000000000000000000A0
:106AD40000000000000000000000000000000007AB
:106AE4003FC77FE773FFF17EF00000000000000065
:106AF4000000000000000000000000000000000092
:106B04000000000000000000000000000000000081
:106B14000000000000000000000000000000000071
:106B2400000000000C000C000C000C000C000C0019
:106B34000C000C000C000C000C0000000C000C00FD
:106B440000000000000000001B001B001B001B00D5
:106B54001B00000000000000000000000000000016
:106B6400000000000000000000000080198019806F
:106B7400198019C07FC07F80190033C07FC07F0097
:106B84003300330033003300000000000000000035
:106B94001E003F807580650074003C001E00078065
:106BA40005806580658075003F001E0004000400B8
:106BB400000000007000D840D8C0D880D90073000D
:106BC40006000C801BC036C066C046C006800300A9
:106BD40000000000000000001E003F0033003300EE
:106BE40033001E000CC03CC066806380618063C0BB
:106BF4003E801C0000000000000000000C000C009F
:106C04000C000C000C00000000000000000000005C
:106C140000000000000000000000000000800000F0
:106C2400010003000600060004000C000C000C0028
:106C34000C000C000C000400060006000300018098
:106C440000002000100018000C000C0004000600D6
:106C54000600060006000600060004000C000C00F6
:106C640018001000200000000C002D003F001E0042
:106C740033000000000000000000000000000000DD
:106C84000000000000000000000000000000000000
:106C94000C000C000C000CC0FFC0FF000C000C002A
:106CA4000C000C00000000000000000000000000C8
:106CB40000000000000000000000000000000000D0
:106CC40000000000000000000C000C0004000400A0
:106CD40008000000000000000000000000000000A8
:106CE400000000001E001E00000000000000000064
:106CF4000000000000000000000000000000000090
:106D0400000000000000000000000000000000007F
:106D14000C000C0000000000000000000300030051
:106D2400030006000600060006000C000C000C0020
:106D34000C001800180018000000000000000000FB
:106D44001E003F0033806180618061806D806D80B2
:106D540061806180610033003F001E00000000007C
:106D64000000000006000E001E003600260006008B
:106D740006000600060006000600060006000600DF
:106D840000000000000000001E003F80738061804E
:106D940061800100030006000C00180030006080D0
:106DA4007F807F0000000000000000001C003E0007
:106DB4006300630003000E000E0003800180018065
:106DC400618073003F001E0000000000000000000E
:106DD40006000E000E001E001E00160036003600CF
:106DE40066807F807F000600060006000000000029
:106DF400000000007F007F006000600060006E0003
:106E04007F80638001800180618073003F001E00E9
:106E140000000000000000001E003F80338061007D
:106E240060006E007F8073806180618061803300C8
:106E34003F001E0000000000000000807F807F8073
:106E4400010003000300060006000C000C000C0007
:106E540008001800180018000000000000000000DE
:106E64001E003F8063806180610021001E003F801E
:106E740061806180618061003F001E0000000000AD
:106E8400000000001E003F0073806180618061800B
:106E940073803F801D800180610073003F001E00ED
:106EA40000000000000000000000000000000000DE
:106EB4000C000C00000000000000000000000000B6
:106EC4000C000C00000000000000000000000000A6
:106ED4000000000000000C000C0000000000000096
:106EE400000000000C000C00040004000800000076
:106EF400000000000080008003000E0038006000E5
:106F040038000E8003800000000000000000000034
:106F14000000000000000000000000807F807F006F
:106F2400000000807F807F0000000000000000005F
:106F3400000000000000000000000000000040000D
:106F440070001C000780010007001C007000400056
:106F54000000000000000000000000001F803FC08F
:106F640071C060C000C00180030007000E000C0067
:106F74000C0000000C000C000000000000000000E9
:106F84001E003F803180718063806F806D806D80D2
:106F94006F806700600032003E001C0000000000AB
:106FA400000000000E000E001B001B001B001B80D5
:106FB400318031803F803F8031C060C060C060005C
:106FC40000000000000000007C007E0063006300FD
:106FD400630063007E007E006380618061806300E3
:106FE4007F007E0000000000000000001E003F80C3
:106FF40031806100600060006000600060006080BB
:10700400618031003F001E0000000000000000000D
:107014007C007F0063806380618061806180618027
:1070240061806100630063007E007C00000000005A
:10703400000000807F807F006000600060006000CE
:107044007F007F0060006000600060807F807F00C0
:1070540000000000000000807F807F00600060006E
:10706400600060007F007F006000600060006000DE
:107074006000600000000000000000001E003F806F
:1070840031806100600060006080638063806180A3
:10709400618031803F001E0000000000000000807D
:1070A4006180618061806180618061807F807F8098
:1070B4006180618061806180618061000000000006
:1070C400000000003F003F000C000C000C000C000E
:1070D4000C000C000C000C000C000C003F003F00E6
:1070E4000000000000000080018001800180018018
:1070F40001800180018001800180618061807300D2
:107104003F001E0000000000000000C0608061001D
:107114006300660066006C0078007C006600660010
:107124006380618061C06000000000000000000016
:10713400600060006000600060006000600060004B
:1071440060006000600060807F807F0000000000BD
:10715400000000C071C071C07BC07AC06AC06AC040
:107164006EC064C060C060C060C060C060C06000C9
:1071740000000000000000807180718079807980B7
:1071840079806D806D806D806580678067806780A1
:107194006380630000000000000000001E003F0048
:1071A4003380618061806180618061806180618001
:1071B400610033003F001E000000000000000000DA
:1071C4007E007F80638061806180618063007F00D6
:1071D4007E0060006000600060006000000000004D
:1071E400000000001E003F003380618061806180E8
:1071F4006180618061806580670033803F401E004C
:1072040000000000000000007E007F806380618039
:10721400618063007F007E0066006300638061809C
:1072240061C0600000000000000000000E001F802C
:1072340031803100300038001E00078003806180F7
:10724400618031003F001E0000000000000000C00B
:10725400FFC0FF000C000C000C000C000C000C0024
:107264000C000C000C000C000C000C0000000000D2
:107274000000008061806180618061806180618044
:107284006180618061806180618073003F001E00C5
:1072940000000000000000C060C060C06080318059
:1072A400318031001B001B001B001B000E000E0070
:1072B4000E00040000000000000000C0C0C0C0C0F8
:1072C400C0C0C0C0C0C0CC804C804C805E805280A6
:1072D400528073806180610000000000000000C0E3
:1072E400C0806080610033003B001E000C000C0075
:1072F4001E001F003B80718061C0C00000000000C0
:10730400000000C0C08061806100330033001E00B3
:107314001E000C000C000C000C000C000C000C00F7
:1073240000000000000000803F803F800100030057
:10733400030006000C000C001800180030006080E8
:107344007F807F000000000000000F000F000C0091
:107354000C000C000C000C000C000C000C000C00C9
:107364000C000C000C000C000C000F000F000000BF
:107374001800180018000C000C000C000C0006008B
:1073840006000600060003000300030000000000DE
:1073940000001E001E00060006000600060006008F
:1073A40006000600060006000600060006000600A9
:1073B40006001E001E0000000C000C001E0012003F
:1073C4003300338061806100000000000000000091
:1073D40000000000000000000000000000000000A9
:1073E4000000000000000000000000000000000099
:1073F400000000000000000000E0FF0000000000AA
:10740400380018000C00000000000000000000001C
:107414000000000000000000000000000000000068
:107424000000000000000000000000001F803F80FA
:10743400618001801F803F80618063807FC038004D
:1074440000000000000000006000600060006000B8
:107454006E007F80738061806180618061807300D1
:107464007F006E000000000000000000000000002B
:10747400000000001E003F80738061006000608097
:10748400618073003F001E000000000000000080C7
:1074940001800180018001801D803F8073806180B4
:1074A40061806180618073803F801D000000000066
:1074B4000000000000000000000000001E003F006B
:1074C400738061807F807F00608071003F001E00B8
:1074D40000000000000000C007C00F000C000C807A
:1074E4007F807F000C000C000C000C000C000C00D2
:1074F4000C000C0000000000000000000000000070
:1075040000801D803F807380618061806180618024
:1075140073803F801D80018063007F003E00000077
:1075240060006000600060006F807F807180618017
:107534006180618061806180618061000000000081
:107544000000000006000600000000003E003E00AF
:1075540006000600060006000600060006000600F7
:1075640000000000000006000600000000003E00CD
:107574003E0006000600060006000600060006009F
:107584000600060046007E003C000000600060002B
:10759400600060806100630066006C007C0076001F
:1075A4006300638061C06000000000000000000010
:1075B4003E003E0006000600060006000600060027
:1075C4000600060006000600060006000000000093
:1075D400000000000000000000000080DDC0FFC0CB
:1075E400CEC0CCC0CCC0CCC0CCC0CCC0CCC0CC00F5
:1075F4000000000000000000000000000000000087
:107604006F807F8071806180618061806180618032
:107614006180610000000000000000000000000024
:10762400000000001E003F807380618061806180E3
:10763400618073003F001E00000000000000000095
:107644000000000000006E007F8073806180618014
:107654006180618073007F006E00600060006000E4
:10766400600000000000000000801D803F807380E7
:10767400618061806180618073803F801D800180B2
:1076840001800180010000000000000000000000F3
:1076940067803F0039003000300030003000300097
:1076A4003000300000000000000000000000000076
:1076B400000000001E803F80610060007F803F80EA
:1076C400018061007F001E00000000000000000037
:1076D40000000800180018007F007F001800180040
:1076E40018001800180018801F800F000000000008
:1076F4000000000000000000000000806180618044
:107704006180618061806180618063807F803D00F1
:10771400000000000000000000000000000000C0A5
:1077240060803180318031001B001B001B000E0083
:107734000E00060000000000000000000000000031
:1077440000000080DD80DD80DD005500550055001F
:1077540077007700220022000000000000000000F3
:1077640000000000000000806100330033001E00B0
:107774000C000C001E003300338061000000000088
:107784000000000000000000008061806180310082
:10779400330033001B001B001B000E000E000E0004
:1077A4001C007C007000000000000000000000C00D
:1077B4007FC07F800100030006000C00180030C069
:1077C4007FC07F00000000000080038007000600E7
:1077D40006000600060006000E001C001C000E0039
:1077E4000600060006000600068007800300060067
:1077F4000600060006000600060006000600060055
:107804000600060006000600060006000600060044
:10781400060038003C000C000C000C000C000C00AE
:107824000E00070007000E000C000C000C000C00FA
:107834000C003C00380000000000000000000000C4
:107844000000008038807F00470000000000000036
:107854000000000000000000000000000000000024
:107864000000000000000000000000000000100004
:1078740010001000100010001000000010000000A4
:10788400000028002800280000000000000000007C
:10789400000000000000240024007C0024004800B4
:1078A4007C004800480000000000380054005000EC
:1078B4003800140054005400380010000000200068
:1078C4005400580030002800540014000800000040
:1078D4000000100028002800100034004800480070
:1078E4003400000000001000100010000000000030
:1078F400000000000000000000000800100020004C
:10790400200020002000200020001000080020009B
:107914001000080008000800080008000800100013
:1079240020001000380010002800000000000000B3
:1079340000000000000000000000100010007C00A7
:107944001000100000000000000000000000000013
:1079540000000000000000001000100010000000F3
:1079640000000000000000003800000000000000DB
:107974000000000000000000000000000000000003
:1079840010000000000008000800100010001000A3
:1079940010002000200000000000380044004400D3
:1079A400540044004400440038000000000010006B
:1079B40030005000100010001000100010000000F3
:1079C40000003800440044000400080010002000B7
:1079D4007C0000000000380044000400180004008B
:1079E40004004400380000000000080018002800CB
:1079F400280048007C0008000800000000007C000B
:107A040040004000780004000400440038000000F6
:107A14000000380044004000780044004400440062
:107A24003800000000007C00040008001000100072
:107A34002000200020000000000038004400440022
:107A440038004400440044003800000000003800BE
:107A54004400440044003C0004004400380000009A
:107A64000000000000001000000000000000000002
:107A740010000000000000000000000010000000E2
:107A840000000000100010001000000000000C00B6
:107A94003000400030000C00000000000000000036
:107AA400000000007C0000007C00000000000000DA
:107AB40000000000000060001800040018006000CE
:107AC400000000000000380044000400080010001A
:107AD40010000000100000000000380044004C00BA
:107AE40054005C004000400038000000000010001A
:107AF40028002800280028007C00440044000000DE
:107B0400000078004400440078004400440044002D
:107B140078000000000038004400400040004000AD
:107B24004000440038000000000070004800440099
:107B340044004400440048007000000000007C0041
:107B4400400040007C004000400040007C000000F9
:107B540000007C00400040007800400040004000ED
:107B640040000000000038004400400040005C0079
:107B74004400440038000000000044004400440075
:107B84007C0044004400440044000000000038002D
:107B94001000100010001000100010003800000049
:107BA4000000040004000400040004000400440075
:107BB40038000000000044004800500060005000FD
:107BC400480048004400000000004000400040001D
:107BD40040004000400040007C00000000004400E1
:107BE4006C006C0054004400440044004400000055
:107BF4000000440064006400540054004C004C0035
:107C040044000000000038004400440044004400E4
:107C140044004400380000000000780044004400A0
:107C2400440078004000400040000000000038009C
:107C3400440044004400440044005400380004005C
:107C440000007800440044004400780048004800E4
:107C540044000000000038004400400030000800E8
:107C6400040044003800000000007C0010001000F4
:107C7400100010001000100010000000000044006C
:107C84004400440044004400440044003800000020
:107C9400000044004400440028002800280010008C
:107CA400100000000000440044005400540054003C
:107CB4006C00280028000000000044002800280070
:107CC40010001000280028004400000000004400B8
:107CD40044002800280010001000100010000000CC
:107CE40000007C0004000800100010002000400088
:107CF4007C000000000018001000100010001000AC
:107D040010001000100010001800200020001000C7
:107D140010001000100008000800000000003000EF
:107D240010001000100010001000100010001000CF
:107D3400300010002800280044000000000000006B
:107D4400000000000000000000000000000000002F
:107D54000000000000000000FE00200010000000F1
:107D6400000000000000000000000000000000000F
:107D74000000380044003C0044004C003400000083
:107D840000004000400058006400440044006400C7
:107D940058000000000000000000380044004000CB
:107DA40040004400380000000000040004003400D7
:107DB4004C00440044004C0034000000000000006B
:107DC4000000380044007C004000440038000000FB
:107DD40000000C0010007C001000100010001000C7
:107DE4001000000000000000000034004C004400BB
:107DF40044004C0034000400780040004000580067
:107E040064004400440044004400000000001000EA
:107E1400000070001000100010001000100000009E
:107E2400000010000000700010001000100010008E
:107E340010001000E00040004000480050006000C6
:107E440050004800440000000000700010001000C2
:107E540010001000100010001000000000000000CE
:107E640000007800540054005400540054000000F2
:107E74000000000000005800640044004400440076
:107E840044000000000000000000380044004400EA
:107E940044004400380000000000000000005800C6
:107EA40064004400440064005800400040000000A6
:107EB400000034004C00440044004C003400040032
:107EC400040000000000580064004000400040002E
:107ED40040000000000000000000380044003000B2
:107EE4000800440038000000000020002000780052
:107EF40020002000200020001800000000000000E6
:107F0400000044004400440044004C0034000000DD
:107F1400000000000000440044002800280028005D
:107F24001000000000000000000054005400540041
:107F34006C0028002800000000000000000044003D
:107F44002800100010002800440000000000000079
:107F54000000440044002800280010001000100015
:107F64006000000000007C000800100020004000B9
:107F74007C00000000001800100010001000200019
:107F84002000100010001000180010001000100055
:107F9400100010001000100010001000100030003D
:107FA400100010001000080008001000100010005D
:107FB400300000000000000074004C0000000000CD
:107FC40000000000007777772E6665797465636832
:107FD4002E636F2E7A61004E6573746F72204B614D
:107FE4006C616D6261790044657369676E65723AAC
:0B7FF400004665792D546563680000AD
:020000040020DA
:08000000FFFFFFFFFFFFFFFF00
:020000040030CA
:0E000000220E3F1EFF0181FF0FC00FE00F40D8
:00000001FF
