:0400000030EF00F0ED
:06000800558223EF08F011
:100018005580D8CF08F0E8CF09F0E0CF0AF0F2AA6F
:1000280018EF00F01AEF00F028EF00F0F2A41FEF2D
:1000380000F021EF00F028EF00F0010E4F6EC20E25
:10004800D76EF70ED66EF2940AC0E0FF09C0E8FF3B
:0C00580008C0D8FF559010003FEF07F0E3
:10080000002C5765646E6573646179002C536174C4
:100810007572646179002C54687572736461790033
:100820002C54756573646179002C46726964617932
:10083000002C4D6F6E646179002C53756E64617984
:05084000002575000019
:10084600000E4E6E000E4D6E000E4C6E000E4B6E80
:10085600000E546E000E536E240EAC6E080EB86E6B
:10086600ACB838EF04F03AEF04F06FEF04F0B8B626
:100876003FEF04F041EF04F06FEF04F0ACB446EF45
:1008860004F048EF04F06FEF04F0000E0B6E240E38
:100896000C6EF40E0D6E000E0E6E060E1B6E18C05C
:1008A6001CF019C01DF01AC01EF01B285FEF04F0E3
:1008B600D8901C361D361E36E82E5BEF04F01C5011
:1008C6000F6E1D50106E1E50116E126A53EC06F01C
:1008D6000B04AF6EF1EF04F0ACB874EF04F076EFF2
:1008E60004F0B2EF04F0B8B67BEF04F07DEF04F04D
:1008F600B2EF04F0ACA482EF04F084EF04F0B2EFA0
:1009060004F0000E0B6E240E0C6EF40E0D6E000E2F
:100916000E6E040E1B6E18C01CF019C01DF01AC016
:100926001EF01B289BEF04F0D8901C361D361E3691
:10093600E82E97EF04F01C500F6E1D50106E1E50DF
:10094600116E126A53EC06F0FF0E0B260B501F6E4B
:10095600206A2050B06E1FC0AFFFF1EF04F0ACB8B4
:10096600B7EF04F0B9EF04F0F1EF04F0B8A6BEEF6C
:1009760004F0C0EF04F0F1EF04F0ACA4C5EF04F00E
:10098600C7EF04F0F1EF04F0000E0B6E240E0C6EB0
:10099600F40E0D6E000E0E6E020E1B6E18C01CF0CD
:1009A60019C01DF01AC01EF01B28DEEF04F0D89007
:1009B6001C361D361E36E82EDAEF04F01C500F6E7C
:1009C6001D50106E1E50116E126A53EC06F0FF0E8B
:1009D6000B260B501F6E206AACEF04F0900EAB6E28
:1009E6009D8A9F8A9F881200000E146E12BE00EF29
:1009F60005F0FEEF04F00AEF05F0121E111E101EA0
:100A06000F6C000E102211221222010E146E0EBE61
:100A160011EF05F00FEF05F01BEF05F00E1E0D1E92
:100A26000C1E0B6C000E0C220D220E22010E141A47
:100A3600000E156E000E166E000E176E000E186E66
:100A46000F50101011101210D8B42CEF05F02EEF25
:100A560005F064EF05F0010E136E38EF05F0D8903F
:100A66000F36103611361236132A12AE3DEF05F048
:100A76003FEF05F032EF05F0D890153616361736EB
:100A860018360F500B5C10500C5811500D58125060
:100A96000E58D8A051EF05F053EF05F05CEF05F0C6
:100AA6000F500B5E10500C5A11500D5A12500E5A20
:100AB6001580D8901232113210320F32132E3FEFBA
:100AC60005F01450D8B46AEF05F06CEF05F074EF3A
:100AD60005F0181E171E161E156C000E162217227C
:100AE600182215C00BF016C00CF017C00DF018C078
:100AF6000EF0120020EE40F010EE27F00A0EDBCFCB
:100B0600E3FFE806FCE220EEB0F010EE1AF00C0E61
:100B1600DBCFE3FFE806FCE2270E0B6E000E0C6E41
:100B2600135004EC09F03A0E296E2A0E0B6E000ED5
:100B36000C6E125004EC09F03A0E2C6E2D0E0B6E54
:100B4600000E0C6E115004EC09F0000E316E1A0EF8
:100B56000B6E000E0C6E155004EC09F02F0E1C6E79
:100B66001D0E0B6E000E0C6E165004EC09F02F0EC7
:100B76001F6E220E0B6E000E0C6E175004EC09F061
:100B8600000E266E270E0D6E000E0E6ED4EC08F0CB
:100B96001A0E0D6E000E0E6ED4EC08F0010E0E6EDF
:100BA600010EF2EC06F0270E0E6E000E0F6E88ECAC
:100BB60008F0010E0E6E020EF2EC06F01A0E0E6E24
:100BC600000E0F6E88EC08F00B0E0E6E020EF2ECA5
:100BD60006F01450186E196AD89018361936300E69
:100BE6001824D96E000E1920DA6EDECF0EF0DDCF96
:100BF6000FF06BEC08F0120065EC09F0D00E45EC36
:100C060009F0000E45EC09F06FEC09F0D10E45EC49
:100C160009F0000EA2EC08F00CC0D9FF0DC0DAFFF7
:100C2600DF6E20EE01F00C50D9260D50DA22000EB0
:100C3600A2EC08F0DF6E20EE02F00C50D9260D5023
:100C4600DA22000EA2EC08F0DF6E20EE03F00C5064
:100C5600D9260D50DA22000EA2EC08F0DF6E20EE47
:100C660004F00C50D9260D50DA22000EA2EC08F042
:100C7600DF6E20EE05F00C50D9260D50DA22000E5C
:100C8600A2EC08F0DF6E20EE06F00C50D9260D50CF
:100C9600DA22010EA2EC08F0DF6E5BEC09F012001E
:100CA600000E136E000E146E000E156E000E166EFC
:100CB6000F50101011101210D8B464EF06F066EF42
:100CC60006F09CEF06F0010E176E70EF06F0D89056
:100CD6000F36103611361236172A12AE75EF06F099
:100CE60077EF06F06AEF06F0D8901336143615360D
:100CF60016360F500B5C10500C5811500D581250F0
:100D06000E58D8A089EF06F08BEF06F094EF06F0A8
:100D16000F500B5E10500C5A11500D5A12500E5AAD
:100D26001380D8901232113210320F32172E77EF0D
:100D360006F013C00BF014C00CF015C00DF016C071
:100D46000EF012008C9A4E0E0E6EEB0EE82EFED7AB
:100D56000E2EFCD700F0030E8C6E8C888C981A0E23
:100D66000E6EF80EE82EFED70E2EFCD700D0030E20
:100D76008C6E8C888C981A0E0E6EF80EE82EFED7A6
:100D86000E2EFCD700D0020E8C6E8C888C981A0E14
:100D96000E6EF80EE82EFED70E2EFCD700D02C0EC7
:100DA6000B6E000E4DEC08F01A0E0E6EF80EE82EC5
:100DB600FED70E2EFCD700D0010E0B6E000E4DECAA
:100DC60008F01A0E0E6EF80EE82EFED70E2EFCD781
:100DD60000D00C0E0B6E000E4DEC08F01200106EDB
:100DE6001004D8A4F9EF06F0FBEF06F003EF07F0C6
:100DF6000E507F0F0B6E000E4DEC08F036EF07F02D
:100E0600020E1018D8A40AEF07F00CEF07F014EF43
:100E160007F00E50BF0F0B6E000E4DEC08F036EFCC
:100E260007F0030E1018D8A41BEF07F01DEF07F00C
:100E360025EF07F00E50930F0B6E000E4DEC08F0E9
:100E460036EF07F0040E1018D8A42CEF07F02EEF9B
:100E560007F036EF07F00E50D30F0B6E000E4DEC79
:100E660008F036EF07F00B0E0F6E620EE82EFED777
:100E76000F2EFCD700D01200000EF66E130EF76E82
:100E8600000EF86E00EEB0F010EE0DF00900F5CF92
:100E9600EEFFE550E150FAE1700EF66E120EF76EB7
:100EA600000EF86E00EE32F010EE19F00900F5CFE4
:100EB600EEFFE550E150FAE100EEC4F012EE00F06C
:100EC600EE6AE550E150FCE1E250FAE100EE60F036
:100ED600500EEE6AE806FDE100EE4BF00A0EEE6AF1
:100EE600E806FDE155905592000EF86E080EF76E75
:100EF60000017EEF07F018EC09F0A5EC06F0000EF5
:100F0600186EC20E196E010E1A6E23EC04F0A00EB6
:100F1600196E860E1A6E010E1B6EF6EC07F051EC7A
:100F260009F079EC09F02AEC09F087EC09F08BEC72
:100F360009F04F50D8B4A2EF07F0A4EF07F09CEFEA
:100F460007F0000E4F6EBD0E0C6E000E0D6EFFEC20
:100F560005F020EEBDF000EE11F0060EDBCFEBFF44
:100F6600E806FCE27DEC05F09CEF07F030EF00F0C0
:100F7600ABA2C0EF07F0C2EF07F0C4EF07F0AB98E3
:100F8600AB88ABA4C9EF07F0CBEF07F0CCEF07F0C7
:100F9600AE50AECF03F0010E4D24016E000E4E2072
:100FA600026EFF0E0114046E010E0214056E4B5004
:100FB600041809E14C500518D8B4E4EF07F0E6EF41
:100FC60007F0F4EF07F0C40E4D24D96E000E4E2044
:100FD600DA6E03C0DFFF04C04DF005C04EF0F5EF3A
:100FE60007F0AE50120093809382C78EC79C280EDE
:100FF600C612C550000E0B6E240E0C6EF40E0D6E4E
:10100600000E0E6E020E1C6E19C01DF01AC01EF0E8
:101016001BC01FF01C2814EF08F0D8901D361E3692
:101026001F36E82E10EF08F01D500F6E1E50106E82
:101036001F50116E126AF7EC04F00B04C86E120012
:10104600D9CF06F0DACF07F09DAA2CEF08F02EEFE5
:1010560008F037EF08F09EAA33EF08F035EF08F0F6
:1010660037EF08F0BBEC07F09DA83CEF08F03EEF29
:1010760008F047EF08F09EA843EF08F045EF08F0A8
:1010860047EF08F0ECEC08F007C0DAFF06C0D9FF1E
:10109600559211000D6E0DB002D08C9A01D08C8A3B
:1010A600F00E8C160B380F0B0F0B8C128C888C984D
:1010B600F00E8C160B500F0B8C128C888C981A0E17
:1010C6000C6EF80EE82EFED70C2EFCD700D01200C0
:1010D60079EF08F00EC0F6FF0FC0F7FF0800F5CF56
:1010E6000BF0010E4DEC08F00E4A0F2A0EC0F6FF6B
:1010F6000FC0F7FF0800F5500009D8A485EF08F0E7
:1011060087EF08F06DEF08F0120095EF08F00EC0BB
:10111600D9FF0FC0DAFFDF500B6E010E4DEC08F061
:101126000E4A0F2A0EC0D9FF0FC0DAFFDF50D8A42F
:101136009FEF08F0A1EF08F08AEF08F012000B6E9F
:10114600C790C586C7A0AAEF08F0ACEF08F0A5EFD8
:1011560008F00BB002D0C59A01D0C58AC588C5B8BB
:10116600B7EF08F0B9EF08F0B2EF08F0C950120077
:101176000B6E54283F0B0C6E53500C18D8B4C6EFA8
:1011860008F0C8EF08F0BFEF08F0600E5424D96EDF
:10119600DA6A000EDA220BC0DFFF0CC054F09D881D
:1011A6001200DFEF08F00DC0D9FF0EC0DAFFDF50E6
:1011B600BBEC08F00D4A0E2A0DC0D9FF0EC0DAFFAF
:1011C600DF50D8A4E9EF08F0EBEF08F0D6EF08F00F
:1011D6001200600E5324D96EDA6A000EDA22DF504E
:1011E600016E53283F0B536E01C0ADFF5350541888
:1011F600D8A400EF09F002EF09F003EF09F09D987B
:1012060012000D6E0D380F0B30090BC0D9FF0CC044
:10121600DAFFDF6E0B4A0C2A0D500F0B30090BC09C
:10122600D9FF0CC0DAFFDF6E12000F0EC16E92926C
:1012360092889296000E956E000E8C6E94908B900E
:1012460094849286F198F088F09E93841200010EA1
:101256000B6E000E4DEC08F00B0E0E6E620EE82EB5
:10126600FED70E2EFCD700D0120039083108200810
:101276000108160829080C0830303A30303A303068
:0312860000000065
:10128A000B6E0BC0C9FF9EA64DEF09F04FEF09F098
:10129A0048EF09F09E961200C20ED76EF70ED66E70
:1012AA00870ED56EF194F294F28A1200C584C5B401
:1012BA0061EF09F063EF09F05CEF09F09E96120006
:1012CA00C580C5B06BEF09F06DEF09F066EF09F064
:1012DA009E961200C582C5B275EF09F077EF09F044
:1012EA0070EF09F09E961200F28EF28EF28CF28C5A
:1012FA00F28CD08E120030302F30302F3230303016
:03130A00000000E0
:0E130E00F294D58EF28A1200F28EF28C12004A
:020000040020DA
:08000000FFFFFFFFFFFFFFFF00
:020000040030CA
:0E0000003A0E3116FF0185FF0FC00FE00F40D2
:00000001FF
