:0400000031EF00F0EC
:100008005882E1CF4EF0E2CF4FF0D9CF50F0DACF9F
:1000180051F0F3CF52F0F4CF53F0F6CF54F0F7CFBE
:1000280055F0F8CF56F0F5CF57F06DEC15F057C0F6
:10003800F5FF56C0F8FF55C0F7FF54C0F6FF53C090
:10004800F4FF52C0F3FF51C0DAFF50C0D9FF4FC0D0
:0E005800E2FF4EC0E1FF58921100B0EF15F02C
:1008000000A4084C0872080908090243000201000C
:10081000C032090400000102020100052400100199
:100820000424020205240600010524010001070535
:1008300081030A000209040100020A000000070502
:100840000202400000070582024000002603460025
:10085000650079002D0054006500630068002000E9
:1008600050007400790020004C0074006400000007
:100870000000200354006500730074002000550040
:1008800053004200200044006500760069006300C8
:1008900065001201000202000020D8040A000001D5
:1008A000010200010403090448656C6C6F20576F56
:0708B000726C640D0A0000E8
:1008B80004013205D8A463EF04F065EF04F081EF7A
:1008C80004F030511F0B0009D8A46DEF04F06FEF4E
:1008D80004F081EF04F00001758F030E0401311953
:1008E800D8A479EF04F07BEF04F07FEF04F0010E59
:1008F800256E81EF04F0000E256E3251D8A487EFE3
:1009080004F089EF04F009EF06F030511F0B020ADA
:10091800D8A491EF04F093EF04F009EF06F03451F6
:100928000F0B0009D8B49BEF04F09DEF04F009EF1A
:1009380006F034510F0B436E030E4360A6EF04F02C
:10094800A8EF04F009EF06F0200E2818D8A4AFEF9E
:1009580004F0B1EF04F009EF06F00001758F04010F
:1009680034BFB9EF04F0BBEF04F0D8EF04F0345112
:100978000F0B436E4350020D7E0EF324D96E000E0A
:10098800F420DA6EDECF48F0DDCF49F034510F0B9A
:10099800436E446A840E4324D96E000E4420DA6EF6
:1009A800DF50476EF3EF04F034510F0B436E4350A2
:1009B800020D780EF324D96E000EF420DA6EDECF25
:1009C80048F0DDCF49F034510F0B436E446A870E6F
:1009D8004324D96E000E4420DA6EDF50476E47B0CC
:1009E800F8EF04F0FAEF04F002EF05F0FB0E4814FC
:1009F800486EFF0E4914496E07EF05F0040E4810C3
:100A0800486E4950496E34BF0CEF05F00EEF05F003
:100A18001FEF05F034510F0B436E4350020D7E0E4D
:100A2800F324D96E000EF420DA6E48C0DEFF49C008
:100A3800DDFF2EEF05F034510F0B436E4350020DCE
:100A4800780EF324D96E000EF420DA6E48C0DEFF6B
:100A580049C0DDFF030E3119D8A435EF05F037EF93
:100A680005F071EF05F048C0D9FF49C0DAFFDFAEE5
:100A780040EF05F042EF05F063EF05F034BF47EFB4
:100A880005F049EF05F057EF05F034510F0B436EB1
:100A9800446A840E4324D96E000E4420DA6E0001A5
:100AA800DF8263EF05F034510F0B436E446A870E03
:100AB8004324D96E000E4420DA6E0001DF8248C05C
:100AC800D9FF49C0DAFF000EDB8448C0D9FF49C00E
:100AD800DAFF000EDB8E09EF06F0040E4818486EA8
:100AE8004950496E48C0D9FF49C0DAFFDFAE7FEFF1
:100AF80005F081EF05F09DEF05F048C0D9FF49C02A
:100B0800DAFF7F0EDF1648C0D9FF49C0DAFF000EB2
:100B1800DB8C000E3C6E050E3B6E48C03DF049C0B4
:100B28003EF0000E406E020E3F6ECBEC13F0A3EFCA
:100B380005F048C0D9FF49C0DAFF000EDB8C040E6F
:100B48004818486E4950496E47B2ADEF05F0AFEF0F
:100B580005F0BAEF05F048C0D9FF49C0DAFFDFAEAB
:100B6800B8EF05F0BAEF05F0F2EF05F0040134BF75
:100B7800C0EF05F0C2EF05F0D0EF05F034510F0BD0
:100B8800436E446A840E4324D96E000E4420DA6E04
:100B98000001DF92DCEF05F034510F0B436E446A1D
:100BA800870E4324D96E000E4420DA6E0001DF92CE
:100BB80048C0D9FF49C0DAFF3B0EDF16000E3C6E75
:100BC800050E3B6E48C03DF049C03EF0000E406E39
:100BD800020E3F6ECBEC13F0F8EF05F048C0D9FFDA
:100BE80049C0DAFF3B0EDF16040134510F0B436E88
:100BF800446A700E4324456E0F0E4420466E45C06D
:100C0800D9FF46C0DAFFFE0EDF1612002804D8A46A
:100C180010EF06F012EF06F01FEF06F06DBA17EFAF
:100C280006F019EF06F01FEF06F0000E686E6980F7
:100C38006988020E286E68A424EF06F026EF06F0F5
:100C480030EF06F069A42BEF06F02DEF06F030EF39
:100C580006F0689419EC15F06DA235EF06F037EF41
:100C680006F03AEF06F0A19A1DEF07F068A03FEFF3
:100C780006F041EF06F04EEF06F069A046EF06F0E9
:100C880048EF06F04EEF06F0DAEC0AF0A08A040E00
:100C9800286E689068A853EF06F055EF06F05EEFEF
:100CA80006F069A85AEF06F05CEF06F05EEF06F072
:100CB80085EC15F068AC63EF06F065EF06F090EF91
:100CC80006F069AC6AEF06F06CEF06F07AEF06F012
:100CD800000E3C6E730E3B6E000E3D6E000E3E6EB7
:100CE800000E406E010E3F6ECBEC13F0689C54EC86
:100CF80015F02150D8B483EF06F085EF06F086EFA3
:100D080006F021062150D8A48CEF06F08EEF06F0ED
:100D180090EF06F02BEC11F068AA95EF06F097EF2C
:100D280006F0A0EF06F069AA9CEF06F09EEF06F029
:100D3800A0EF06F07AEC14F068A2A5EF06F0A7EF92
:100D480006F0BDEF06F069A2ACEF06F0AEEF06F0D4
:100D5800BDEF06F07F0E3C6E3B68000E3D6E000E48
:100D68003E6E000E406E010E3F6ECBEC13F0000E8F
:100D78006A6E040E2860C3EF06F0C5EF06F0C8EFF0
:100D880006F0A19A1DEF07F069A6CDEF06F0CFEFA8
:100D980006F01CEF07F0000E4D6E68A6D6EF06F0C1
:100DA800D8EF06F01CEF07F06CCF2BF02B30E832B1
:100DB800E8320F0B236E68962BB4E5EF06F0E7EFE9
:100DC80006F0F1EF06F0840E2324D96EDA6A000EDD
:100DD800DA220001DF70F9EF06F0870E2324D96EBE
:100DE800DA6A000EDA220001DF702350D8A4FFEF80
:100DF80006F001EF07F005EF07F075EC12F013EFBE
:100E080007F0000E3C6E720E3B6E2B0E3D6E000E10
:100E18003E6E000E406E000E3F6ECBEC13F04D2A76
:100E2800030E4D641AEF07F01CEF07F0D1EF06F040
:100E3800A19A1200A09A0F501010D8B426EF07F00C
:100E480028EF07F036EF07F00FC0D9FF10C0DAFF20
:100E5800DFAE31EF07F033EF07F036EF07F0A08A87
:100E680003EF08F0030E1A18D8A43DEF07F03FEF80
:100E780007F041EF07F0000E1A6E1A50D8A447EF9A
:100E880007F049EF07F04CEF07F0A08A03EF08F0EE
:100E9800020E1A18D8A453EF07F055EF07F069EFC0
:100EA80007F0010E0001DC6F000EDD6F000EDE6F33
:100EB800000EDF6F020E21EC0CF0DCC00FF0DDC07D
:100EC80010F0030E1A6E02EF08F01A04D8A46FEFA0
:100ED80007F071EF07F002EF08F0400E196477EFA2
:100EE80007F079EF07F07EEF07F0400E0001E86F9A
:100EF80080EF07F019C0E8F00001E851195C196E9D
:100F0800000E096E050E0A6EE8C0E7F01850D8A466
:100F180090EF07F092EF07F0D4EF07F0AFEF07F08C
:100F28000CC0F6FF0DC0F7FFF86A09C0D9FF0AC068
:100F3800DAFF070EF76403D00800F55005D0F6CFA6
:100F4800E1FFF7CFE2FFE750DF6E094A0A2A0C4AB1
:100F58000D2A0001E707E751D8A4B5EF07F0B7EF6E
:100F680007F094EF07F0DCEF07F00CC0F6FF0DC0B8
:100F7800F7FFF86A09C0D9FF0AC0DAFF070EF7645D
:100F880003D00800F55005D0F6CFE1FFF7CFE2FF18
:100F9800E750DF6E094A0A2A0C4A0D2A0001E707C2
:100FA800E751D8A4DAEF07F0DCEF07F0B9EF07F064
:100FB8001950D8A4E2EF07F0E4EF07F0F3EF07F0D9
:100FC800400EE819D8A4EBEF07F0EDEF07F0F1EFCA
:100FD80007F0020E1A6EF3EF07F0030E1A6E010EF9
:100FE800DC6F000EDD6F050EDE6FE8C0DFF0020E6D
:100FF80021EC0CF0DCC00FF0DDC010F0A08A12006C
:10100800DCC0E6F0DDC0E7F00001E051E111D8A452
:1010180010EF08F012EF08F014EF08F0BFEF08F037
:10102800E6C0D9FFE7C0DAFFDEC0DFFFE051E62502
:10103800E26FE151E721E36FFF0EE225D96EFF0E63
:10104800E321DA6EDEC0DFFFE15107E1030EE05D68
:10105800D8B031EF08F033EF08F035EF08F0BFEF04
:1010680008F020EE01F0E651D926E751DA22DEC079
:10107800DFFF20EE02F0E651D926E751DA22DEC082
:10108800DFFFE051E625E26FE151E721E36FFE0E55
:10109800E225D96EFF0EE321DA6EDEC0DFFFE051F4
:1010A800E625E26FE151E721E36FFD0EE225D96EF7
:1010B800FF0EE321DA6EDEC0DFFFE15107E1070E24
:1010C800E05DD8B06AEF08F06CEF08F06EEF08F05A
:1010D800BFEF08F020EE03F0E651D926E751DA22F7
:1010E800DEC0DFFFE051E625E26FE151E721E36F63
:1010F800FC0EE225D96EFF0EE321DA6EDEC0DFFFBB
:10110800E15107E1090EE05DD8B08DEF08F08FEFEF
:1011180008F091EF08F0BFEF08F0E6C0E2F0E7C092
:10112800E3F0E21FE31FE24BE32B030EE215E46F4B
:10113800E56BE451E627E551E723E451E05FE5512B
:10114800E15BFC0EE017FF0EE117B6EF08F0E6C012
:10115800D9FFE7C0DAFFDEC0DFFFE007D8A0E1076C
:10116800E64BE72BE051E111D8A4BDEF08F0BFEF43
:1011780008F0ABEF08F012002DC037F02EC038F0A1
:1011880031503210D8A4CBEF08F0CDEF08F0CFEFF4
:1011980008F07AEF09F037C0D9FF38C0DAFF2FC05E
:1011A800DFFF31503724336E32503820346EFF0E53
:1011B8003324D96EFF0E3420DA6E2FC0DFFF325091
:1011C80007E1030E315CD8B0ECEF08F0EEEF08F061
:1011D800F0EF08F07AEF09F020EE01F03750D92649
:1011E8003850DA222FC0DFFF20EE02F03750D92620
:1011F8003850DA222FC0DFFF31503724336E325097
:101208003820346EFE0E3324D96EFF0E3420DA6E89
:101218002FC0DFFF31503724336E32503820346E00
:10122800FD0E3324D96EFF0E3420DA6E2FC0DFFF97
:10123800325007E1070E315CD8B025EF09F027EFEF
:1012480009F029EF09F07AEF09F020EE03F03750A2
:10125800D9263850DA222FC0DFFF31503724336EB9
:1012680032503820346EFC0E3324D96EFF0E3420F1
:10127800DA6E2FC0DFFF325007E1090E315CD8B0BB
:1012880048EF09F04AEF09F04CEF09F07AEF09F05E
:1012980037C033F038C034F0331E341E334A342A92
:1012A800030E3314356E366A3550372636503822D9
:1012B8003550315E3650325AFC0E3116FF0E32165A
:1012C80071EF09F037C0D9FF38C0DAFF2FC0DFFF50
:1012D8003106D8A03206374A382A31503210D8A4FD
:1012E80078EF09F07AEF09F066EF09F01200800E46
:1012F80004013019D8A483EF09F085EF09F034EF21
:101308000AF0C00E0001756F1AEF0AF0920E000184
:10131800726F080E736F000E776F120E766F34EFD0
:101328000AF03251D8A49BEF09F09DEF09F0DEEFE7
:1013380009F03251020D070EF324F66E080EF42060
:10134800F76E0900F5CF72F00A00F5CF73F0020EC0
:10135800000172252D6E000E73212E6E2DC0F6FF32
:101368002EC0F7FFF86A070EF76403D00800F5509F
:1013780005D0F6CFE1FFF7CFE2FFE7500001766F27
:10138800030E72252D6E000E73212E6E2DC0F6FFF2
:101398002EC0F7FFF86A070EF76403D00800F5506F
:1013A80005D0F6CFE1FFF7CFE2FFE7500001776FF6
:1013B80034EF0AF0000E0001756F34EF0AF0030EE7
:1013C8003261E9EF09F0EBEF09F010EF0AF0325162
:1013D800020D010EF324F66E080EF420F76E0900D4
:1013E800F5CF72F00A00F5CF73F072C0F6FF73C044
:1013F800F7FFF86A070EF76403D00800F55005D028
:10140800F6CFE1FFF7CFE2FFE7502D6E2D50000138
:10141800766F776B34EF0AF0000E0001756F34EFCA
:101428000AF0000E0001756F34EF0AF00401335121
:101438002D6E2E6A2E50000AD8B425EF0AF015EF4B
:101448000AF02D50010AD8B48AEF09F0030AD8B47B
:1014580095EF09F0010AD8B4E3EF09F015EF0AF0A7
:101468001200A09A000E6A6E000E686E000E706E72
:10147800710E0001DC6F0F0EDD6F000EDF6F000EC6
:10148800DE6F000EE16F020EE06F04EC08F0160E3E
:101498006F6E9F0E6B6E7B0E696E000E0001E86F1B
:1014A800E851040D000EF324D96E040EF420DA6E10
:1014B800DE6ADE6ADE6ADD6AE82B0B0EE86567EF36
:1014C8000AF069EF0AF054EF0AF06D8C000E6E6EA8
:1014D8006D986D9C6896000E756F000E6D6F000E0E
:1014E8006F6F000E6E6F68B67CEF0AF07EEF0AF041
:1014F8006EEF0AF0010E1F6E010E1E6E000E1D6EBD
:10150800000E1C6E000E246E000EE86FE851020DEE
:10151800780EF324D96E000EF420DA6E000EDE6E1B
:10152800000EDD6EE851020D7E0EF324D96E000E1A
:10153800F420DA6E000EDE6E000EDD6E870EE825F2
:10154800D96EDA6A000EDA22000EDF6E840EE82504
:10155800D96EDA6A000EDA22000EDF6EE82B020E70
:10156800E865B9EF0AF0BBEF0AF08AEF0AF0080E57
:10157800786F040E796F160E706E040E0401036FF7
:10158800300E026F200E016F040E006F008F000EE8
:101598002C6E000E056E000E066E000E076E000E15
:1015A800086E000E1B6E000E286E1200A09A000E28
:1015B8006A6E000E686E000E706E710E2D6E0F0E44
:1015C8002E6E000E306E000E2F6E000E326E020E62
:1015D800316EC0EC08F0160E6F6E9F0E6B6E7B0EB0
:1015E800696E000E396E3950040D000EF324D96E61
:1015F800040EF420DA6EDE6ADE6ADE6ADD6A392AF3
:101608000B0E39640AEF0BF00CEF0BF0F7EF0AF052
:101618006D8C000E6E6E6D986D9C6896000E0001C4
:10162800756F000E6D6F000E6F6F000E6E6F68B6EF
:1016380020EF0BF022EF0BF011EF0BF0010E1F6EF5
:10164800010E1E6E000E1D6E000E1C6E000E246E26
:10165800000E396E3950020D780EF324D96E000E43
:10166800F420DA6E000EDE6E000EDD6E3950020DCB
:101678007E0EF324D96E000EF420DA6E000EDE6EB4
:10168800000EDD6E870E3924D96EDA6A000EDA2272
:10169800000EDF6E840E3924D96EDA6A000EDA2263
:1016A800000EDF6E392A020E39645DEF0BF05FEF32
:1016B8000BF02EEF0BF0080E0001786F040E796F17
:1016C800160E706E040E0401036F300E026F200EAA
:1016D800016F040E006F008F000E2C6E000E056E59
:1016E800000E066E000E076E000E086E000E1B6ED2
:1016F800000E286E120020EE01F01550D926165063
:10170800DA22DF502E6E2E5000016E5D000E6F59EA
:10171800D8B091EF0BF093EF0BF095EF0BF06EC094
:101728002EF02E506E5F000E6F5B000E2D6EACEF2C
:101738000BF0500E2D24D96EDA6A040EDA226AC034
:10174800E1FF6BC0E2FFDFCFE7FF6A4B6B2B2D2A6F
:101758002E502D5CD8A0B3EF0BF0B5EF0BF09DEF3A
:101768000BF06E516F11D8B4BCEF0BF0BEEF0BF05D
:10177800F7EF0BF020EE01F01350D9261450DA22BF
:10178800200EDF6E20EE02F01350D9261450DA2214
:10179800500EDE6E040EDD6E15C0D9FF16C0DAFFDE
:1017A800DFBCD9EF0BF0DBEF0BF0E9EF0BF013C068
:1017B800D9FF14C0DAFF480EDF6E13C0D9FF14C07A
:1017C800DAFF000EDB8E20EF0CF013C0D9FF14C037
:1017D800DAFF080EDF6E13C0D9FF14C0DAFF000E5F
:1017E800DB8E20EF0CF020EE01F01350D9261450B8
:1017F800DA22200EDF6E20EE02F01350D9261450A4
:10180800DA22300EDE6E040EDD6E13C0D9FF14C06E
:10181800DAFF040EDF6E13C0D9FF14C0DAFF000E22
:10182800DB8E6D9F2050D8A41CEF0CF01EEF0CF03F
:1018380020EF0CF02BEC11F012000001E46F000116
:10184800DC51D8B42AEF0CF02CEF0CF03AEF0CF086
:10185800E451020D780EF324D96E000EF420DA6EEE
:10186800DECFE5F0DDCFE6F046EF0CF0E451020DF7
:101878007E0EF324D96E000EF420DA6EDECFE5F08A
:10188800DDCFE6F0E551E611D8A44DEF0CF04FEFAF
:101898000CF055EF0CF0000EDC6F000EDD6FC1EFA1
:1018A8000CF020EE02F0E551D926E651DA22DDC02F
:1018B800DEFFDEC0DDFF20EE01F0E551D926E6515E
:1018C800DA22DFC0DFFFE5C0D9FFE6C0DAFF400E4D
:1018D800DF16E5C0D9FFE6C0DAFF000EDB86E5C0FB
:1018E800D9FFE6C0DAFF000EDB8EDC51D8B47FEFFB
:1018F8000CF081EF0CF0A0EF0CF0E451020D780E23
:10190800F324D96E000EF420DA6EDECFE0F0DDCFDE
:10191800E1F0040EE019E26FE151E36FE451020DCA
:10192800780EF324D96E000EF420DA6EE2C0DEFFE2
:10193800E3C0DDFFBDEF0CF0E451020D7E0EF32491
:10194800D96E000EF420DA6EDECFE0F0DDCFE1F0E4
:10195800040EE019E26FE151E36FE451020D7E0ECF
:10196800F324D96E000EF420DA6EE2C0DEFFE3C085
:10197800DDFFE5C0DCF0E6C0DDF012006D98000187
:1019880075BFC9EF0CF0CBEF0CF010EF0DF06DAF99
:10199800D0EF0CF0D2EF0CF0E4EF0CF0020E266E54
:1019A8001C50D8A4DAEF0CF0DCEF0CF0DEEF0CF0F2
:1019B800D1EC12F0000E1E6E000E1F6E62EF0DF0DD
:1019C80020EE01F01350D9261450DA22200EDF6ED3
:1019D80020EE02F01350D9261450DA22300EDE6EB3
:1019E800040EDD6E13C0D9FF14C0DAFF0C0EDF6ED3
:1019F80013C0D9FF14C0DAFF000EDB8E78C0D9FF00
:101A080079C0DAFF040EDF6E78C0D9FF79C0DAFF3B
:101A1800000EDB8E62EF0DF0040130AF16EF0DF013
:101A280018EF0DF034EF0DF0010E266E1D50D8A4FE
:101A380020EF0DF022EF0DF024EF0DF0D1EC12F0B5
:101A4800000E1E6E000E1F6E2050D8A42EEF0DF053
:101A580030EF0DF062EF0DF02BEC11F062EF0DF0AE
:101A6800020E266E20EE01F01350D9261450DA2209
:101A7800200EDF6E20EE02F01350D9261450DA2221
:101A8800300EDE6E040EDD6E13C0D9FF14C0DAFF0F
:101A9800040EDF6E13C0D9FF14C0DAFF000EDB8E10
:101AA800000E1E6E000E1F6E2050D8A45EEF0DF0C3
:101AB80060EF0DF062EF0DF030EF0DF01200356EB3
:101AC8002D50D8B46AEF0DF06CEF0DF07AEF0DF0F1
:101AD8003550020D780EF324D96E000EF420DA6E1C
:101AE800DECF36F0DDCF37F086EF0DF03550020D42
:101AF8007E0EF324D96E000EF420DA6EDECF36F0B7
:101B0800DDCF37F036503710D8A48DEF0DF08FEFBA
:101B18000DF095EF0DF0000E2D6E000E2E6E01EFFC
:101B28000EF020EE02F03650D9263750DA222EC0B9
:101B3800DEFF2FC0DDFF20EE01F03650D9263750EA
:101B4800DA2230C0DFFF36C0D9FF37C0DAFF400ED7
:101B5800DF1636C0D9FF37C0DAFF000EDB8636C085
:101B6800D9FF37C0DAFF000EDB8E2D50D8B4BFEF97
:101B78000DF0C1EF0DF0E0EF0DF03550020D780ECD
:101B8800F324D96E000EF420DA6EDECF31F0DDCF0B
:101B980032F0040E3118336E3250346E3550020D67
:101BA800780EF324D96E000EF420DA6E33C0DEFF0F
:101BB80034C0DDFFFDEF0DF03550020D7E0EF3242D
:101BC800D96E000EF420DA6EDECF31F0DDCF32F0C0
:101BD800040E3118336E3250346E3550020D7E0EBD
:101BE800F324D96E000EF420DA6E33C0DEFF34C061
:101BF800DDFF36C02DF037C02EF012000401303959
:101C0800E832030B0009D8B40CEF0EF00EEF0EF01B
:101C18005BEF0EF094EF0EF00001758F080E286E42
:101C280094EF0EF07BEC09F094EF0EF0A4EC11F0B9
:101C380094EF0EF02C0E0001726F000E736F758119
:101C4800010E766F758F94EF0EF01DEC0FF094EF88
:101C58000EF05CEC04F094EF0EF0290E3425000130
:101C6800726F736B000E73237581010E766F758F1B
:101C780094EF0EF00001758F290E04013425D96EFA
:101C8800DA6A000EDA2232C4DFFF94EF0EF0000E9B
:101C98003C6E020E3B6E000E3D6E000E3E6E000E58
:101CA800406E000E3F6ECBEC13F094EF0EF0315106
:101CB8004A6E4B6A4B50000AD8B465EF0EF094EFA9
:101CC8000EF04A50000AD8B429EF0EF0010AD8B431
:101CD8002DEF0EF0020AD8B42DEF0EF0060AD8B494
:101CE80010EF0EF0030AD8B416EF0EF0010AD8B4BC
:101CF8004BEF0EF00F0AD8B41EEF0EF0010AD8B45D
:101D08001AEF0EF0030AD8B431EF0EF0010AD8B476
:101D18003EEF0EF0070AD8B494EF0EF094EF0EF0F1
:101D28001200200E2D6E0001775107E1200E765D1E
:101D3800D8B0A1EF0EF0A3EF0EF0BBEF0EF076C017
:101D48002DF02750D8A4ABEF0EF0ADEF0EF0B1EFA9
:101D58000EF0010E276EBBEF0EF02704D8A4B7EFE4
:101D68000EF0B9EF0EF0BBEF0EF0020E276E2D50FD
:101D7800765F000E775B20EE01F07851D926795115
:101D8800DA222DC0DFFF500E116E040E126E75B1EF
:101D9800D0EF0EF0D2EF0EF014EF0FF0EFEF0EF0E1
:101DA80072C0F6FF73C0F7FFF86A11C0D9FF12C0FE
:101DB800DAFF070EF76403D00800F55005D0F6CF18
:101DC800E1FFF7CFE2FFE750DF6E0001724B732BA4
:101DD800114A122A2D062D50D8A4F5EF0EF0F7EF70
:101DE8000EF0D4EF0EF01CEF0FF072C0F6FF73C0C8
:101DF800F7FFF86A11C0D9FF12C0DAFF070EF764BF
:101E080003D00800F55005D0F6CFE1FFF7CFE2FF89
:101E1800E750DF6E0001724B732B114A122A2D0610
:101E28002D50D8A41AEF0FF01CEF0FF0F9EF0EF0B9
:101E38001200000E0401506F000E516F7AEF0FF080
:101E48000001758F2504D8A42CEF0FF02EEF0FF0AA
:101E580094EF0FF00401508394EF0FF00001758F99
:101E680094EF0FF00001758F040134BF3EEF0FF0BF
:101E780040EF0FF051EF0FF034510F0B2D6E2D5036
:101E8800020D7E0EF324D96E000EF420DA6EDECF3A
:101E98002FF0DDCF30F060EF0FF034510F0B2D6EC7
:101EA8002D50020D780EF324D96E000EF420DA6E50
:101EB800DECF2FF0DDCF30F02FC0D9FF30C0DAFFF2
:101EC800DFAE69EF0FF06BEF0FF094EF0FF02FC05C
:101ED800D9FF30C0DAFFDFA474EF0FF076EF0FF010
:101EE80094EF0FF0010E506F94EF0FF030511F0B6D
:101EF8002D6E2E6A2E50000AD8B485EF0FF094EF9D
:101F08000FF02D50000AD8B424EF0FF0010AD8B40E
:101F180032EF0FF0030AD8B436EF0FF094EF0FF05A
:101F2800000175AF9AEF0FF09CEF0FF0A3EF0FF0E1
:101F3800500E726F040E736F7581020E766F120069
:101F4800040130511F0BE806D8B4ADEF0FF0AFEF26
:101F58000FF0B1EF0FF029EF10F03039E832030B32
:101F6800E806D8B4BAEF0FF0BCEF0FF0BEEF0FF0F1
:101F780029EF10F03451D8B4C4EF0FF0C6EF0FF0CA
:101F880008EF10F03405D8B4CCEF0FF0CEEF0FF017
:101F980008EF10F029EF10F0CD0E0001726F000E5F
:101FA800736F000E776F080E766F7581758F29EF46
:101FB80010F0CD0E0001726F000E736F758F29EF50
:101FC80010F036C46EF037C46FF0D50E00016A6F9A
:101FD800000E6B6F000E706F000E716F6D8F29EF22
:101FE80010F0D50E0001726F000E736F000E776F40
:101FF800070E766FC10E756F29EF10F032C417F017
:102008000001758F29EF10F031512D6E2E6A2E5078
:10201800000AD8B412EF10F029EF10F02D50000A82
:10202800D8B4D0EF0FF0010AD8B4DDEF0FF0210AD1
:10203800D8B4E5EF0FF0010AD8B4F5EF0FF0030AB2
:10204800D8B402EF10F029EF10F0120078C0D9FFD1
:1020580079C0DAFF0001000EDFBC010E2E6E040EFF
:102068007819786F7951796F080E2818D8A43FEF3E
:1020780010F041EF10F053EF10F0040132517F0BD4
:102088006E6E6E50D8B44BEF10F04DEF10F051EF6C
:1020980010F0100E286E53EF10F0040E286E260470
:1020A800D8A459EF10F05BEF10F0A3EF10F0000187
:1020B80020EE02F07851D9267951DA22500EDE6EE0
:1020C800040EDD6E95EC0EF0020E2718D8A46FEF03
:1020D80010F071EF10F07FEF10F078C0D9FF79C0E1
:1020E800DAFF040EDF6E78C0D9FF79C0DAFF000E80
:1020F800DB8EAEEF10F02E50D8A485EF10F087EFEE
:1021080010F095EF10F078C0D9FF79C0DAFF480ECB
:10211800DF6E78C0D9FF79C0DAFF000EDB8EAEEF34
:1021280010F078C0D9FF79C0DAFF080EDF6E78C0EA
:10213800D9FF79C0DAFF000EDB8EAEEF10F0000198
:102148006DAFA9EF10F0ABEF10F0ACEF10F06D9F92
:10215800000E266E1200C3EC15F038EC15F00009DD
:10216800D8B4B9EF10F0BBEF10F025EF11F0AD0EB9
:102178000001E76F000EE86F200EE96F19EC12F00E
:102188000001ED6F000EEE6FF6EF10F0AD0EEE25CC
:10219800D96EDA6A000EDA228D0EEE25E16EE26A59
:1021A800000EE222DFCFE7FFF5EF10F0AD0EEE25CF
:1021B800D96EDA6A000EDA22DF50EB6FEC6BEC5165
:1021C800000AD8B4EAEF10F0CAEF10F0EB510A0A8F
:1021D800D8B4CAEF10F0070AD8B4CAEF10F0CAEFA3
:1021E80010F0EE2BED51EE5DD8A0FDEF10F0FFEFF3
:1021F80010F0DAEF10F0A80EDC6F080EDD6F0D0E90
:10220800DE6F9BEC15F0070E0001EC6F170EEB6FFD
:102218006A0EE82EFED7EB2FFCD7EC2FFAD700F08A
:102228000001ED51D8B41BEF11F01DEF11F025EFAF
:1022380011F08D0EDC6F000EDD6FEDC0DEF09BEC53
:1022480015F01EEC07F0B1EF10F031EF00F01F5061
:10225800D8A431EF11F033EF11F0A3EF11F0010E14
:102268001F6E1E50D8A43BEF11F03DEF11F0A3EF05
:1022780011F0010E1E6E020E2618D8A446EF11F0BA
:1022880048EF11F05FEF11F0000120EE01F07851F6
:10229800D9267951DA22000EDF6E78C0D9FF79C0CD
:1022A800DAFF480EDF6E78C0D9FF79C0DAFF000E7A
:1022B800DB8EA3EF11F02604D8A465EF11F067EFC9
:1022C80011F0A3EF11F0000E226E20EE01F0155070
:1022D800D9261650DA22200EDF6E20EE02F01550B5
:1022E800D9261650DA22300EDE6E040EDD6E15C0C9
:1022F800D9FF16C0DAFF040EDF6E15C0D9FF16C06D
:10230800DAFF000EDB8E010E226E20EE01F0135074
:10231800D9261450DA22200EDF6E20EE02F0135078
:10232800D9261450DA22300EDE6E040EDD6E13C08C
:10233800D9FF14C0DAFF800EDF6EA3EF11F0120090
:102348000001758F710E2D6E0F0E2E6E000E306E01
:10235800000E2F6E000E326E020E316EC0EC08F0C9
:10236800000E2D6E040E2E6E000E306E000E2F6EB7
:10237800000E326E300E316EC0EC08F06D8C000E1F
:10238800436E870E4324D96EDA6A000EDA22000EF5
:10239800DF6E840E4324D96EDA6A000EDA22000E4C
:1023A800DF6E432A020E4364DCEF11F0DEEF11F01A
:1023B800C5EF11F0290E2D6E000E2E6E000E306E38
:1023C800000E2F6E000E326E020E316EC0EC08F059
:1023D8006D9C080E0001786F040E796F000E156E63
:1023E800040E166E15C013F016C014F032C42CF08B
:1023F8002C50D8A402EF12F004EF12F008EF12F0FC
:10240800100E286E18EF12F0000E3C6E010E3B6E97
:102418002C0E3D6E000E3E6E000E406E010E3F6E9D
:10242800CBEC13F0200E286E1200000E00018C6F0A
:102438008A518B11D8B423EF12F025EF12F030EF48
:1024480012F08AC0D9FF8BC0DAFFDFBE2EEF12F080
:1024580030EF12F072EF12F020EE01F08A51D92617
:102468008B51DA22E951DE5CD8B03DEF12F03FEF34
:1024780012F047EF12F020EE01F08A51D9268B5165
:10248800DA22DF50E96F000E8C6F5AEF12F0400E1F
:102498008C25D96EDA6A050EDA228C51E725E16EB1
:1024A800000EE821E26EDFCFE7FF8C2BE9518C5D4F
:1024B800D8A061EF12F063EF12F04BEF12F0000EAC
:1024C800DC6F400EDD6F050EDE6F400EDF6F020E13
:1024D80021EC0CF0DCC08AF0DDC08BF000018C51DF
:1024E80012002D0E216E2BC04CF0FD0E4C16D8A4F8
:1024F80080EF12F082EF12F0C4EF12F02BC04CF014
:10250800D8904C323F0E4C164C50040D000EF3245C
:10251800156E040EF420166E15C013F016C014F0D4
:10252800040E1318136E1450146E15C0D9FF16C07C
:10253800DAFFDF30E8320F0B0D0AD8A4A6EF12F04D
:10254800A8EF12F0C0EF12F0300E2D6E040E2E6EB2
:1025580020EE02F01550D9261650DA22DECF2FF0E1
:10256800DDCF30F0000E326E080E316EAAEC14F09A
:1025780083EC13F0D0EF12F00FEC14F0D0EF12F060
:102588002B50FD0B040AD8A4CCEF12F0CEEF12F0BA
:10259800D0EF12F02AEC10F01200000E1D6E000EA3
:1025A8001C6E020E2618D8A4DCEF12F0DEEF12F033
:1025B800FEEF12F020EE01F01350D9261450DA2263
:1025C800200EDF6E20EE02F01350D9261450DA22C6
:1025D800500EDE6E040EDD6E13C0D9FF14C0DAFF94
:1025E800480EDF6E13C0D9FF14C0DAFF000EDB8E71
:1025F8002AEF13F0000176510401365D000177518E
:1026080004013759D8B00BEF13F00DEF13F011EFA9
:1026180013F036C476F037C477F095EC0EF000016D
:1026280020EE02F07851D9267951DA22500EDE6E6A
:10263800040EDD6E78C0D9FF79C0DAFF480EDF6E70
:1026480078C0D9FF79C0DAFF000EDB8E1200346E35
:10265800000E356E040E366E2D502E6E2F6AD890F1
:102668002E362F363450306E316AD89030363136A7
:10267800D890303631362E503024326E2F503120DB
:10268800336ED89032363336D890323633363250AD
:1026980035263350362235C0D9FF36C0DAFFDF9EE3
:1026A8002D50D8A45AEF13F05CEF13F06AEF13F033
:1026B8003450020D7E0EF324D96E000EF420DA6E2B
:1026C80035C0DEFF36C0DDFF76EF13F03450020D63
:1026D800780EF324D96E000EF420DA6E35C0DEFFD2
:1026E80036C0DDFF35C0D9FF36C0DAFFDF9C20EEEB
:1026F80004F03550D9263650DA22DF8C1200000E4D
:10270800276E000E206E000E1D6E000E1C6E000E51
:10271800226E000E266E78C0D9FF79C0DAFF7F0ED0
:10272800DF16040E00017819786F7951796F78C037
:10273800D9FF79C0DAFF7F0EDF16040E7819786F9B
:102748007951796F13C0D9FF14C0DAFF7F0EDF16F5
:10275800000E756F000E776F000E766F000E6D6FAE
:10276800000E6F6F000E6E6F02EC0EF0000E3C6EE6
:10277800030E3B6E000E3D6E000E3E6E000E406E68
:10278800000E3F6ECBEC13F0C2EC0CF01200D5EF4C
:1027980013F049EC14F00EEF14F0A4EC0FF00EEF68
:1027A80014F03BC041F03CC042F04250000AD8B49B
:1027B800E4EF13F07F0AD8B407EF14F00EEF14F02B
:1027C8004150010AD8B4CDEF13F0030AD8B40EEF84
:1027D80014F0010AD8B4D1EF13F0060AD8B40EEFFA
:1027E80014F0770AD8B40EEF14F0010AD8B40EEF3B
:1027F80014F0070AD8B40EEF14F0010AD8B40EEF9B
:1028080014F00EEF14F04150FF0AD8B40EEF14F094
:102818000EEF14F01200020E2618D8A416EF14F0CA
:1028280018EF14F01CEF14F07FEC0BF048EF14F0E5
:10283800000E266E2250D8A424EF14F026EF14F0D0
:1028480046EF14F020EE01F01350D9261450DA2286
:10285800200EDF6E20EE02F01350D9261450DA2233
:10286800300EDE6E040EDD6E13C0D9FF14C0DAFF21
:102878000C0EDF6E13C0D9FF14C0DAFF000EDB8E1A
:1028880048EF14F0000E226E1200000E0001D56F02
:102898004B0ED66F000ED76F000ED86F000ED96F93
:1028A800000EDA6F080EDB6F000E8C6F1A0E376E93
:1028B800010ED2EC14F01E0E376E020ED2EC14F09C
:1028C800000E2D6E400E2E6E050E2F6E400E306ED1
:1028D800020E63EC0DF02DC08AF02EC08BF0000EB6
:1028E8000F6E000E106E000E1A6E120070A07FEFB1
:1028F80014F081EF14F0A8EF14F015C0D9FF16C03A
:10290800DAFF800EDE18D8A48CEF14F08EEF14F0E6
:10291800A7EF14F078C0D9FF79C0DAFF840EDE186B
:10292800D8A499EF14F09BEF14F0A7EF14F015C09A
:10293800D9FF16C0DAFF0C0EDF6E15C0D9FF16C01E
:10294800DAFF000EDB8E7090689A12002FC035F007
:1029580030C036F02DC033F02EC034F0C4EF14F080
:1029680035C0D9FF36C0DAFFDF50376E354A362A10
:1029780033C0D9FF34C0DAFF37C0DFFF334A342A07
:102988003106D8A03206312806E13228D8A4CFEF84
:1029980014F0D1EF14F0B4EF14F012003A6E37A42B
:1029A800D8EF14F0DAEF14F0DFEF14F0000E2D6E0C
:1029B8003A502BEC13F037A2E4EF14F0E6EF14F0E2
:1029C800EBEF14F0010E2D6E3A502BEC13F0700E55
:1029D8003A24386E396A0F0E392238C0D9FF39C007
:1029E800DAFF37C0DFFF12002850D8A4FEEF14F03A
:1029F80000EF15F018EF15F0000E6D6E000E696E01
:102A0800160E6F6E9F0E6B6E7B0E696EA28AA08A81
:102A18000FEF15F06D866DA614EF15F016EF15F093
:102A28000EEF15F0010E286E1200000E246E000E37
:102A38003C6E740E3B6E000E3D6E000E3E6E000E38
:102A4800406E000E3F6ECBEC13F06D9269942EEF42
:102A580015F0689468B433EF15F035EF15F02DEFE5
:102A680015F0000E1B6E12001F0E28643EEF15F0C5
:102A780040EF15F04DEF15F06DB245EF15F047EF4B
:102A880015F04DEF15F0000E0001DD6FDC6952EF17
:102A980015F0000E0001DD6F000EDC6FDC51120036
:102AA800010E0526000E0622072208222450D8A46B
:102AB80060EF15F062EF15F06CEF15F01B2A1B5054
:102AC800D8A469EF15F06BEF15F06CEF15F01B68E3
:102AD8001200F2AC72EF15F074EF15F084EF15F0F8
:102AE800A0AA79EF15F07BEF15F084EF15F0A1AAF5
:102AF80080EF15F082EF15F084EF15F00AEC06F080
:102B08001200698468986D82010E246E000E1B6E97
:102B1800000E3C6E750E3B6E000E3D6E000E3E6E56
:102B2800000E406E000E3F6ECBEC13F01200A09A20
:102B38001A50D8A4A2EF15F0A4EF15F0AEEF15F0D7
:102B4800DCC00CF0DDC00DF0DEC019F0010E186E0F
:102B5800010E1A6EA08A120000EE60F07C0EEE6A7A
:102B6800E806FDE100EE01F02C0EEE6AE806FDE154
:102B780058905892000EF86E0001AFEF10F0F28EE8
:0C2B8800F28C35EC0AF0F8EC14F01200AE
:020000040020DA
:08000000FFFFFFFFFFFFFFFF00
:020000040030CA
:0E000000220E391EFF0381FF0FC00FE00F40DC
:00000001FF
