:0400000031EF00F0EC
:100008005482E1CF4AF0E2CF4BF0D9CF4CF0DACFAF
:100018004DF0F3CF4EF0F4CF4FF0F6CF50F0F7CFCE
:1000280051F0F8CF52F0F5CF53F00CEC15F053C067
:10003800F5FF52C0F8FF51C0F7FF50C0F6FF4FC0A0
:10004800F4FF4EC0F3FF4DC0DAFF4CC0D9FF4BC0E0
:0E005800E2FF4AC0E1FF5492110050EF15F094
:1008000000A4084C0872080908090243000201000C
:10081000C032090400000102020100052400100199
:100820000424020205240600010524010001070535
:1008300081030A000209040100020A000000070502
:100840000202400000070582024000002603440027
:1008500069006C007300680061006E0020005200A7
:1008600020004A006100790061006B006F006400A5
:1008700079002003540065007300740020005500C7
:1008800053004200200044006500760069006300C8
:1008900065001201000202000020D8040A000001D5
:0908A00001020001040309040037
:1008AA0004013205D8A45CEF04F05EEF04F078EF9F
:1008BA0004F030511F0B0009D8A466EF04F068EF6A
:1008CA0004F078EF04F00C8E030E3119D8A470EFFF
:1008DA0004F072EF04F076EF04F0010E256E78EF63
:1008EA0004F0000E256E3251D8A47EEF04F080EF9A
:1008FA0004F0FEEF05F030511F0B020AD8A488EF6E
:10090A0004F08AEF04F0FEEF05F034510F0B0009F2
:10091A00D8B492EF04F094EF04F0FEEF05F03451EE
:10092A000F0B3F6E030E3F609DEF04F09FEF04F044
:10093A00FEEF05F0200E2818D8A4A6EF04F0A8EFC1
:10094A0004F0FEEF05F00C8E34BFAEEF04F0B0EF0A
:10095A0004F0CDEF04F034510F0B3F6E3F50020DFF
:10096A006A0EF324D96E000EF420DA6EDECF44F05C
:10097A00DDCF45F034510F0B3F6E406A7E0E3F24A7
:10098A00D96E000E4020DA6EDF50436EE8EF04F0B5
:10099A0034510F0B3F6E3F50020D0F0EF324D96EE8
:1009AA00000EF420DA6EDECF44F0DDCF45F034518C
:1009BA000F0B3F6E406A810E3F24D96E000E402015
:1009CA00DA6EDF50436E43B0EDEF04F0EFEF04F060
:1009DA00F7EF04F0FB0E4414446EFF0E4514456E07
:1009EA00FCEF04F0040E4410446E4550456E34BFCB
:1009FA0001EF05F003EF05F014EF05F034510F0B8A
:100A0A003F6E3F50020D6A0EF324D96E000EF42099
:100A1A00DA6E44C0DEFF45C0DDFF23EF05F0345136
:100A2A000F0B3F6E3F50020D0F0EF324D96E000ECE
:100A3A00F420DA6E44C0DEFF45C0DDFF030E311933
:100A4A00D8A42AEF05F02CEF05F066EF05F044C0B4
:100A5A00D9FF45C0DAFFDFAE35EF05F037EF05F015
:100A6A0058EF05F034BF3CEF05F03EEF05F04CEFD0
:100A7A0005F034510F0B3F6E406A7E0E3F24D96E4B
:100A8A00000E4020DA6E0001DF8258EF05F0345183
:100A9A000F0B3F6E406A810E3F24D96E000E402034
:100AAA00DA6E0001DF8244C0D9FF45C0DAFF000ECA
:100ABA00DB8444C0D9FF45C0DAFF000EDB8EFEEFAF
:100ACA0005F0040E4418446E4550456E44C0D9FFE3
:100ADA0045C0DAFFDFAE74EF05F076EF05F092EF6E
:100AEA0005F044C0D9FF45C0DAFF7F0EDF1644C0C7
:100AFA00D9FF45C0DAFF000EDB8C000E386E050EFA
:100B0A00376E44C039F045C03AF0000E3C6E020E12
:100B1A003B6E68EC13F098EF05F044C0D9FF45C06E
:100B2A00DAFF000EDB8C040E4418446E4550456E05
:100B3A0043B2A2EF05F0A4EF05F0AFEF05F044C011
:100B4A00D9FF45C0DAFFDFAEADEF05F0AFEF05F034
:100B5A00E7EF05F0040134BFB5EF05F0B7EF05F094
:100B6A00C5EF05F034510F0B3F6E406A7E0E3F24ED
:100B7A00D96E000E4020DA6E0001DF92D1EF05F047
:100B8A0034510F0B3F6E406A810E3F24D96E000E1E
:100B9A004020DA6E0001DF9244C0D9FF45C0DAFF77
:100BAA003B0EDF16000E386E050E376E44C039F064
:100BBA0045C03AF0000E3C6E020E3B6E68EC13F034
:100BCA00EDEF05F044C0D9FF45C0DAFF3B0EDF1652
:100BDA00040134510F0B3F6E406A700E3F24416E80
:100BEA000F0E4020426E41C0D9FF42C0DAFFFE0E0E
:100BFA00DF1612002804D8A405EF06F007EF06F066
:100C0A0014EF06F06DBA0CEF06F00EEF06F014EFD3
:100C1A0006F0000E686E69806988020E286E68A464
:100C2A0019EF06F01BEF06F025EF06F069A420EF96
:100C3A0006F022EF06F025EF06F06894B7EC14F000
:100C4A006DA22AEF06F02CEF06F02FEF06F0A19A1C
:100C5A0012EF07F068A034EF06F036EF06F043EF24
:100C6A0006F069A03BEF06F03DEF06F043EF06F011
:100C7A00ADEC0AF0A08A040E286E689068A848EFC6
:100C8A0006F04AEF06F053EF06F069A84FEF06F0B8
:100C9A0051EF06F053EF06F03AEC15F068AC58EF56
:100CAA0006F05AEF06F085EF06F069AC5FEF06F042
:100CBA0061EF06F06FEF06F0000E386E730E376EB6
:100CCA00000E396E000E3A6E000E3C6E010E3B6E3F
:100CDA0068EC13F0689CF2EC14F02150D8B478EF69
:100CEA0006F07AEF06F07BEF06F021062150D8A431
:100CFA0081EF06F083EF06F085EF06F06CEC10F05A
:100D0A0068AA8AEF06F08CEF06F095EF06F069AA5A
:100D1A0091EF06F093EF06F095EF06F018EC14F059
:100D2A0068A29AEF06F09CEF06F0B2EF06F069A20D
:100D3A00A1EF06F0A3EF06F0B2EF06F07F0E386ED1
:100D4A003768000E396E000E3A6E000E3C6E010EC8
:100D5A003B6E68EC13F0000E6A6E040E2860B8EF62
:100D6A0006F0BAEF06F0BDEF06F0A19A12EF07F00F
:100D7A0069A6C2EF06F0C4EF06F011EF07F0000E05
:100D8A00496E68A6CBEF06F0CDEF06F011EF07F03B
:100D9A006CCF29F02930E832E8320F0B236E6896BF
:100DAA0029B4DAEF06F0DCEF06F0E6EF06F07E0E85
:100DBA002324D96EDA6A000EDA220001DF70EEEF20
:100DCA0006F0810E2324D96EDA6A000EDA220001B7
:100DDA00DF702350D8A4F4EF06F0F6EF06F0FAEF2E
:100DEA0006F019EC12F008EF07F0000E386E720EDA
:100DFA00376E290E396E000E3A6E000E3C6E000EEA
:100E0A003B6E68EC13F0492A030E49640FEF07F0B2
:100E1A0011EF07F0C6EF06F0A19A1200A09A00019E
:100E2A0084518511D8B41CEF07F01EEF07F02CEFA0
:100E3A0007F084C0D9FF85C0DAFFDFAE27EF07F0DD
:100E4A0029EF07F02CEF07F0A08ADEEF07F0030E78
:100E5A001A18D8A433EF07F035EF07F037EF07F089
:100E6A00000E1A6E1A50D8A43DEF07F03FEF07F0B4
:100E7A0042EF07F0A08ADEEF07F0020E1A18D8A494
:100E8A0049EF07F04BEF07F05EEF07F0010EDE6F58
:100E9A00000EDF6F000EE06F000EE16F020E51ECE4
:100EAA000BF0DEC084F0DFC085F0030E1A6EDDEFB2
:100EBA0007F01A04D8A464EF07F066EF07F0DDEF35
:100ECA0007F0400E19646CEF07F06EEF07F072EF4F
:100EDA0007F0400EEA6F74EF07F019C0EAF0EA5122
:100EEA00195C196E000E786F050E796FEAC0E9F089
:100EFA008B51D8A483EF07F085EF07F0AFEF07F027
:100F0A0096EF07F07BC0D9FF7CC0DAFF78C0E1FF1B
:100F1A0079C0E2FFDFCFE7FF784B792B7B4B7C2B45
:100F2A00E907E951D8A49CEF07F09EEF07F087EF95
:100F3A0007F0B7EF07F07BC0D9FF7CC0DAFF78C0B3
:100F4A00E1FF79C0E2FFDFCFE7FF784B792B7B4BDC
:100F5A007C2BE907E951D8A4B5EF07F0B7EF07F002
:100F6A00A0EF07F01950D8A4BDEF07F0BFEF07F0C4
:100F7A00CEEF07F0400EEA19D8A4C6EF07F0C8EF83
:100F8A0007F0CCEF07F0020E1A6ECEEF07F0030E51
:100F9A001A6E010EDE6F000EDF6F050EE06FEAC0FB
:100FAA00E1F0020E51EC0BF0DEC084F0DFC085F0F8
:100FBA00A08A1200DEC0E8F0DFC0E9F00001E251C9
:100FCA00E311D8A4EBEF07F0EDEF07F0EFEF07F02E
:100FDA009AEF08F0E8C0D9FFE9C0DAFFE0C0DFFF06
:100FEA00E251E825E46FE351E921E56FFF0EE425BC
:100FFA00D96EFF0EE521DA6EE0C0DFFFE35107E1AB
:10100A00030EE25DD8B00CEF08F00EEF08F010EF17
:10101A0008F09AEF08F020EE01F0E851D926E951DC
:10102A00DA22E0C0DFFF20EE02F0E851D926E951CA
:10103A00DA22E0C0DFFFE251E825E46FE351E9215B
:10104A00E56FFE0EE425D96EFF0EE521DA6EE0C0EB
:10105A00DFFFE251E825E46FE351E921E56FFD0E78
:10106A00E425D96EFF0EE521DA6EE0C0DFFFE35119
:10107A0007E1070EE25DD8B045EF08F047EF08F048
:10108A0049EF08F09AEF08F020EE03F0E851D9266C
:10109A00E951DA22E0C0DFFFE251E825E46FE351CB
:1010AA00E921E56FFC0EE425D96EFF0EE521DA6E23
:1010BA00E0C0DFFFE35107E1090EE25DD8B068EF57
:1010CA0008F06AEF08F06CEF08F09AEF08F0E8C051
:1010DA00E4F0E9C0E5F0E41FE51FE44BE52B030E5D
:1010EA00E415E66FE76BE651E827E751E923E65195
:1010FA00E25FE751E35BFC0EE217FF0EE31791EFA5
:10110A0008F0E8C0D9FFE9C0DAFFE0C0DFFFE20774
:10111A00D8A0E307E84BE92BE251E311D8A498EFF2
:10112A0008F09AEF08F086EF08F012002BC035F0AD
:10113A002CC036F02F503010D8A4A6EF08F0A8EF34
:10114A0008F0AAEF08F055EF09F035C0D9FF36C00C
:10115A00DAFF2DC0DFFF2F503524316E3050362094
:10116A00326EFF0E3124D96EFF0E3220DA6E2DC098
:10117A00DFFF305007E1030E2F5CD8B0C7EF08F04D
:10118A00C9EF08F0CBEF08F055EF09F020EE01F0B7
:10119A003550D9263650DA222DC0DFFF20EE02F074
:1011AA003550D9263650DA222DC0DFFF2F5035248C
:1011BA00316E30503620326EFE0E3124D96EFF0E5B
:1011CA003220DA6E2DC0DFFF2F503524316E3050B9
:1011DA003620326EFD0E3124D96EFF0E3220DA6EC1
:1011EA002DC0DFFF305007E1070E2F5CD8B000EFAB
:1011FA0009F002EF09F004EF09F055EF09F020EECB
:10120A0003F03550D9263650DA222DC0DFFF2F5091
:10121A003524316E30503620326EFC0E3124D96EB0
:10122A00FF0E3220DA6E2DC0DFFF305007E1090EC3
:10123A002F5CD8B023EF09F025EF09F027EF09F06A
:10124A0055EF09F035C031F036C032F0311E321E8A
:10125A00314A322A030E3114336E346A335035263A
:10126A003450362233502F5E3450305AFC0E2F162B
:10127A00FF0E30164CEF09F035C0D9FF36C0DAFF41
:10128A002DC0DFFF2F06D8A03006354A362A2F5048
:10129A003010D8A453EF09F055EF09F041EF09F0E7
:1012AA001200800E04013019D8A45EEF09F060EF35
:1012BA0009F005EF0AF0C00E0C6EECEF09F0920E81
:1012CA00096E080E0A6E000E0E6E120E0D6E05EFF6
:1012DA000AF03251D8A474EF09F076EF09F0B4EFAE
:1012EA0009F03251020D070EF324F66E080EF420AF
:1012FA00F76E0900F5CF09F00A00F5CF0AF0020EE1
:10130A0009242B6E000E0A202C6E2BC0F6FF2CC06F
:10131A00F7FFF86A070EF76403D00800F55005D006
:10132A00F6CFE1FFF7CFE2FFE7500D6E030E092477
:10133A002B6E000E0A202C6E2BC0F6FF2CC0F7FF76
:10134A00F86A070EF76403D00800F55005D0F6CF07
:10135A00E1FFF7CFE2FFE7500E6E05EF0AF0000E4D
:10136A000C6E05EF0AF0030E3261BEEF09F0C0EF12
:10137A0009F0E4EF09F03251020D010EF324F66E82
:10138A00080EF420F76E0900F5CF09F00A00F5CF30
:10139A000AF009C0F6FF0AC0F7FFF86A070EF764F9
:1013AA0003D00800F55005D0F6CFE1FFF7CFE2FFF2
:1013BA00E7502B6E2B500D6E0E6A05EF0AF0000EE9
:1013CA000C6E05EF0AF0000E0C6E05EF0AF03351B1
:1013DA002B6E2C6A2C50000AD8B4F6EF09F0E8EF0D
:1013EA0009F02B50010AD8B464EF09F0030AD8B403
:1013FA006EEF09F0010AD8B4B8EF09F0E8EF09F086
:10140A001200A09A000E6A6E000E686E000E706ED0
:10141A00710E0001DE6F0F0EDF6F000EE16F000E1E
:10142A00E06F000EE36F020EE26FDFEC07F0160EBC
:10143A006F6E9F0E6B6E7B0E696E000E0001EA6F77
:10144A00EA51040D000EF324D96E040EF420DA6E6C
:10145A00DE6ADE6ADE6ADD6AEA2B0B0EEA6538EFBF
:10146A000AF03AEF0AF025EF0AF06D8C000E6E6E64
:10147A006D986D9C6896000E0C6E000E046E000E40
:10148A00066E000E056E68B64DEF0AF04FEF0AF0D1
:10149A003FEF0AF0010E1F6E010E1E6E000E1D6E4A
:1014AA00000E1C6E000E246E000E0001EA6FEA5157
:1014BA00020D0F0EF324D96E000EF420DA6E000E20
:1014CA00DE6E000EDD6EEA51020D6A0EF324D96E4D
:1014DA00000EF420DA6E000EDE6E000EDD6E810E56
:1014EA00EA25D96EDA6A000EDA22000EDF6E7E0E67
:1014FA00EA25D96EDA6A000EDA22000EDF6EEA2BCE
:10150A00020EEA658BEF0AF08DEF0AF05CEF0AF043
:10151A00080E0F6E040E106E160E706E040E040185
:10152A00036F300E026F200E016F040E006F008FE2
:10153A00000E2A6E000E0001746F000E756F000E09
:10154A00766F000E776F000E1B6E000E286E12006B
:10155A00A09A000E6A6E000E686E000E706E710E12
:10156A002B6E0F0E2C6E000E2E6E000E2D6E000EC0
:10157A00306E020E2F6E9BEC08F0160E6F6E9F0EE9
:10158A006B6E7B0E696E000E376E3750040D000EBF
:10159A00F324D96E040EF420DA6EDE6ADE6ADE6A9D
:1015AA00DD6A372A0B0E3764DDEF0AF0DFEF0AF047
:1015BA00CAEF0AF06D8C000E6E6E6D986D9C68967F
:1015CA00000E0C6E000E046E000E066E000E056E06
:1015DA0068B6F2EF0AF0F4EF0AF0E4EF0AF0010E4F
:1015EA001F6E010E1E6E000E1D6E000E1C6E000E8A
:1015FA00246E000E376E3750020D0F0EF324D96E8B
:10160A00000EF420DA6E000EDE6E000EDD6E37502C
:10161A00020D6A0EF324D96E000EF420DA6E000E63
:10162A00DE6E000EDD6E810E3724D96EDA6A000E88
:10163A00DA22000EDF6E7E0E3724D96EDA6A000EC9
:10164A00DA22000EDF6E372A020E37642FEF0BF014
:10165A0031EF0BF000EF0BF0080E0F6E040E106E58
:10166A00160E706E040E0401036F300E026F200E08
:10167A00016F040E006F008F000E2A6E000E00012B
:10168A00746F000E756F000E766F000E776F000E86
:10169A001B6E000E286E12000001E66F0001DE517B
:1016AA00D8B45AEF0BF05CEF0BF06AEF0BF0E6518F
:1016BA00020D0F0EF324D96E000EF420DA6EDECF7F
:1016CA00E7F0DDCFE8F076EF0BF0E651020D6A0E97
:1016DA00F324D96E000EF420DA6EDECFE7F0DDCF08
:1016EA00E8F0E751E811D8A47DEF0BF07FEF0BF09B
:1016FA0085EF0BF0000EDE6F000EDF6FF1EF0BF0DF
:10170A0020EE02F0E751D926E851DA22DFC0DEFFE7
:10171A00E0C0DDFF20EE01F0E751D926E851DA22D8
:10172A00E1C0DFFFE7C0D9FFE8C0DAFF400EDF16ED
:10173A00E7C0D9FFE8C0DAFF000EDB86E7C0D9FFB1
:10174A00E8C0DAFF000EDB8EDE51D8B4AFEF0BF043
:10175A00B1EF0BF0D0EF0BF0E651020D0F0EF324B0
:10176A00D96E000EF420DA6EDECFE2F0DDCFE3F0C0
:10177A00040EE219E46FE351E56FE651020D0F0E14
:10178A00F324D96E000EF420DA6EE4C0DEFFE5C061
:10179A00DDFFEDEF0BF0E651020D6A0EF324D96E70
:1017AA00000EF420DA6EDECFE2F0DDCFE3F0040EB5
:1017BA00E219E46FE351E56FE651020D6A0EF32474
:1017CA00D96E000EF420DA6EE4C0DEFFE5C0DDFF5C
:1017DA00E7C0DEF0E8C0DFF0120020EE01F017509B
:1017EA00D9261850DA22DF502C6E2C50055C000ED8
:1017FA000658D8B003EF0CF005EF0CF007EF0CF029
:10180A0005C02CF02C50055E000E065A000E2B6EF9
:10181A001EEF0CF0500E2B24D96EDA6A040EDA226F
:10182A0001C0E1FF02C0E2FFDFCFE7FF014A022A5F
:10183A002B2A2C502B5CD8A025EF0CF027EF0CF0AC
:10184A000FEF0CF005500610D8B42EEF0CF030EF65
:10185A000CF069EF0CF020EE01F01550D926165065
:10186A00DA22200EDF6E20EE02F01550D92616502D
:10187A00DA22500EDE6E040EDD6E17C0D9FF18C0D4
:10188A00DAFFDFBC4BEF0CF04DEF0CF05BEF0CF026
:10189A0015C0D9FF16C0DAFF480EDF6E15C0D9FF92
:1018AA0016C0DAFF000EDB8E92EF0CF015C0D9FFDE
:1018BA0016C0DAFF080EDF6E15C0D9FF16C0DAFFB0
:1018CA00000EDB8E92EF0CF020EE01F01550D926B7
:1018DA001650DA22200EDF6E20EE02F01550D926BD
:1018EA001650DA22300EDE6E040EDD6E15C0D9FFF8
:1018FA0016C0DAFF040EDF6E15C0D9FF16C0DAFF74
:10190A00000EDB8E049E2050D8A48EEF0CF090EFD0
:10191A000CF092EF0CF06CEC10F012006D980CBE0B
:10192A0099EF0CF09BEF0CF0E0EF0CF004AEA0EF97
:10193A000CF0A2EF0CF0B4EF0CF0020E266E1C5065
:10194A00D8A4AAEF0CF0ACEF0CF0AEEF0CF075ECEB
:10195A0012F0000E1E6E000E1F6E32EF0DF020EE1A
:10196A0001F01550D9261650DA22200EDF6E20EE2D
:10197A0002F01550D9261650DA22300EDE6E040E09
:10198A00DD6E15C0D9FF16C0DAFF0C0EDF6E15C06A
:10199A00D9FF16C0DAFF000EDB8E0FC0D9FF10C0C8
:1019AA00DAFF040EDF6E0FC0D9FF10C0DAFF000E97
:1019BA00DB8E32EF0DF0040130AFE6EF0CF0E8EF0A
:1019CA000CF004EF0DF0010E266E1D50D8A4F0EFB6
:1019DA000CF0F2EF0CF0F4EF0CF075EC12F0000ED4
:1019EA001E6E000E1F6E2050D8A4FEEF0CF000EF02
:1019FA000DF032EF0DF06CEC10F032EF0DF0020E3C
:101A0A00266E20EE01F01550D9261650DA22200E45
:101A1A00DF6E20EE02F01550D9261650DA22300E6B
:101A2A00DE6E040EDD6E15C0D9FF16C0DAFF040E95
:101A3A00DF6E15C0D9FF16C0DAFF000EDB8E000E6E
:101A4A001E6E000E1F6E2050D8A42EEF0DF030EF40
:101A5A000DF032EF0DF000EF0DF01200336E2B5047
:101A6A00D8B43AEF0DF03CEF0DF04AEF0DF03350D9
:101A7A00020D0F0EF324D96E000EF420DA6EDECFBB
:101A8A0034F0DDCF35F056EF0DF03350020D6A0E0B
:101A9A00F324D96E000EF420DA6EDECF34F0DDCFF7
:101AAA0035F034503510D8A45DEF0DF05FEF0DF02E
:101ABA0065EF0DF0000E2B6E000E2C6ED1EF0DF0BF
:101ACA0020EE02F03450D9263550DA222CC0DEFF3F
:101ADA002DC0DDFF20EE01F03450D9263550DA2230
:101AEA002EC0DFFF34C0D9FF35C0DAFF400EDF1643
:101AFA0034C0D9FF35C0DAFF000EDB8634C0D9FF07
:101B0A0035C0DAFF000EDB8E2B50D8B48FEF0DF004
:101B1A0091EF0DF0B0EF0DF03350020D0F0EF324DC
:101B2A00D96E000EF420DA6EDECF2FF0DDCF30F062
:101B3A00040E2F18316E3050326E3350020D0F0ED4
:101B4A00F324D96E000EF420DA6E31C0DEFF32C003
:101B5A00DDFFCDEF0DF03350020D6A0EF324D96E7E
:101B6A00000EF420DA6EDECF2FF0DDCF30F0040E57
:101B7A002F18316E3050326E3350020D6A0EF32434
:101B8A00D96E000EF420DA6E31C0DEFF32C0DDFFFE
:101B9A0034C02BF035C02CF0120004013039E83281
:101BAA00030B0009D8B4DCEF0DF0DEEF0DF026EFE1
:101BBA000EF05FEF0EF00C8E080E286E5FEF0EF03F
:101BCA0056EC09F05FEF0EF0E4EC10F05FEF0EF068
:101BDA002A0E096E000E0A6E0C80010E0D6E0C8E16
:101BEA005FEF0EF06AEC0FF05FEF0EF055EC04F0C9
:101BFA005FEF0EF0DC0E3425096E0A6A000E0A2227
:101C0A000C80010E0D6E0C8E5FEF0EF00C8EDC0E4A
:101C1A003425D96EDA6A000EDA2232C4DFFF5FEFAA
:101C2A000EF0000E386E020E376E000E396E000E80
:101C3A003A6E000E3C6E000E3B6E68EC13F05FEFDE
:101C4A000EF03151466E476A4750000AD8B430EF59
:101C5A000EF05FEF0EF04650000AD8B4F7EF0DF021
:101C6A00010AD8B4FBEF0DF0020AD8B4FBEF0DF06D
:101C7A00060AD8B4E0EF0DF0030AD8B4E5EF0DF088
:101C8A00010AD8B416EF0EF00F0AD8B4EDEF0DF032
:101C9A00010AD8B4E9EF0DF0030AD8B4FFEF0DF04A
:101CAA00010AD8B40BEF0EF0070AD8B45FEF0EF0B2
:101CBA005FEF0EF01200200E2B6E0E5007E1200E81
:101CCA000D5CD8B06BEF0EF06DEF0EF085EF0EF0F5
:101CDA000DC02BF02750D8A475EF0EF077EF0EF059
:101CEA007BEF0EF0010E276E85EF0EF02704D8A4C5
:101CFA0081EF0EF083EF0EF085EF0EF0020E276EE5
:101D0A002B500D5E000E0E5A20EE01F00F50D92610
:101D1A001050DA222BC0DFFF500E0001886F040E2C
:101D2A00896F0CB09BEF0EF09DEF0EF0DFEF0EF017
:101D3A00BAEF0EF009C0F6FF0AC0F7FFF86A88C0CA
:101D4A00D9FF89C0DAFF070EF76403D00800F550FF
:101D5A0005D0F6CFE1FFF7CFE2FFE750DF6E094A81
:101D6A000A2A0001884B892B2B062B50D8A4C0EFD6
:101D7A000EF0C2EF0EF09FEF0EF0E7EF0EF009C083
:101D8A00F6FF0AC0F7FFF86A88C0D9FF89C0DAFFF0
:101D9A00070EF76403D00800F55005D0F6CFE1FF2F
:101DAA00F7CFE2FFE750DF6E094A0A2A0001884BA3
:101DBA00892B2B062B50D8A4E5EF0EF0E7EF0EF097
:101DCA00C4EF0EF012000FC0D9FF10C0DAFF000EE8
:101DDA00DFBC010E2C6E040E0F180F6E1050106E21
:101DEA00080E2818D8A4FCEF0EF0FEEF0EF010EF44
:101DFA000FF0040132517F0B6E6E6E50D8B408EFAB
:101E0A000FF00AEF0FF00EEF0FF0100E286E10EF22
:101E1A000FF0040E286E2604D8A416EF0FF018EF60
:101E2A000FF05FEF0FF020EE02F00F50D92610509E
:101E3A00DA22500EDE6E040EDD6E60EC0EF0020E3B
:101E4A002718D8A42BEF0FF02DEF0FF03BEF0FF070
:101E5A000FC0D9FF10C0DAFF040EDF6E0FC0D9FF22
:101E6A0010C0DAFF000EDB8E69EF0FF02C50D8A4F9
:101E7A0041EF0FF043EF0FF051EF0FF00FC0D9FF12
:101E8A0010C0DAFF480EDF6E0FC0D9FF10C0DAFFAC
:101E9A00000EDB8E69EF0FF00FC0D9FF10C0DAFF1A
:101EAA00080EDF6E0FC0D9FF10C0DAFF000EDB8EFE
:101EBA0069EF0FF004AE64EF0FF066EF0FF067EF13
:101ECA000FF0049E000E266E1200000E0401506FE1
:101EDA00000E516FC2EF0FF00C8E2504D8A478EFD4
:101EEA000FF07AEF0FF0DCEF0FF05083DCEF0FF01A
:101EFA000C8EDCEF0FF00C8E34BF86EF0FF088EFFC
:101F0A000FF099EF0FF034510F0B2B6E2B50020D7F
:101F1A006A0EF324D96E000EF420DA6EDECF2DF0AD
:101F2A00DDCF2EF0A8EF0FF034510F0B2B6E2B5094
:101F3A00020D0F0EF324D96E000EF420DA6EDECFF6
:101F4A002DF0DDCF2EF02DC0D9FF2EC0DAFFDFAE87
:101F5A00B1EF0FF0B3EF0FF0DCEF0FF02DC0D9FFA8
:101F6A002EC0DAFFDFA4BCEF0FF0BEEF0FF0DCEFFC
:101F7A000FF0010E506FDCEF0FF030511F0B2B6E7C
:101F8A002C6A2C50000AD8B4CDEF0FF0DCEF0FF01A
:101F9A002B50000AD8B471EF0FF0010AD8B47DEFC4
:101FAA000FF0030AD8B480EF0FF0DCEF0FF00CAE9D
:101FBA00E1EF0FF0E3EF0FF0EAEF0FF0500E096ECA
:101FCA00040E0A6E0C80020E0D6E120004013051CE
:101FDA001F0BE806D8B4F4EF0FF0F6EF0FF0F8EFA6
:101FEA000FF06BEF10F03039E832030BE806D8B483
:101FFA0001EF10F003EF10F005EF10F06BEF10F0A7
:10200A003451D8B40BEF10F00DEF10F04AEF10F086
:10201A003405D8B413EF10F015EF10F04AEF10F0B2
:10202A006BEF10F0CD0E096E000E0A6E000E0E6EEA
:10203A00080E0D6E0C800C8E6BEF10F0CD0E096E33
:10204A00000E0A6E0C8E6BEF10F036C405F037C422
:10205A0006F0D50E016E000E026E000E076E000E1F
:10206A00086E048E6BEF10F0D50E096E000E0A6E24
:10207A00000E0E6E070E0D6EC10E0C6E6BEF10F099
:10208A0032C48AF00C8E6BEF10F031512B6E2C6A31
:10209A002C50000AD8B454EF10F06BEF10F02B500C
:1020AA00000AD8B417EF10F0010AD8B423EF10F0E1
:1020BA00210AD8B42AEF10F0010AD8B439EF10F087
:1020CA00030AD8B445EF10F06BEF10F012001F505E
:1020DA00D8A472EF10F074EF10F0E3EF10F0010ED5
:1020EA001F6E1E50D8A47CEF10F07EEF10F0E3EFC5
:1020FA0010F0010E1E6E020E2618D8A487EF10F0FB
:10210A0089EF10F09FEF10F020EE01F00F50D92662
:10211A001050DA22000EDF6E0FC0D9FF10C0DAFFAE
:10212A00480EDF6E0FC0D9FF10C0DAFF000EDB8E3B
:10213A00E3EF10F02604D8A4A5EF10F0A7EF10F0F3
:10214A00E3EF10F0000E226E20EE01F01750D926B0
:10215A001850DA22200EDF6E20EE02F01750D92630
:10216A001850DA22300EDE6E040EDD6E17C0D9FF6B
:10217A0018C0DAFF040EDF6E17C0D9FF18C0DAFFE5
:10218A00000EDB8E010E226E20EE01F01550D926CC
:10219A001650DA22200EDF6E20EE02F01550D926F4
:1021AA001650DA22300EDE6E040EDD6E15C0D9FF2F
:1021BA0016C0DAFF800EDF6EE3EF10F012000C8E0D
:1021CA00710E2B6E0F0E2C6E000E2E6E000E2D6EE3
:1021DA00000E306E020E2F6E9BEC08F0000E2B6E76
:1021EA00040E2C6E000E2E6E000E2D6E000E306E3A
:1021FA00300E2F6E9BEC08F06D8C000E3F6E810E38
:10220A003F24D96EDA6A000EDA22000EDF6E7E0EE5
:10221A003F24D96EDA6A000EDA22000EDF6E3F2AF8
:10222A00020E3F641BEF11F01DEF11F004EF11F0E5
:10223A00DC0E2B6E000E2C6E000E2E6E000E2D6E16
:10224A00000E306E020E2F6E9BEC08F06D9C080E8D
:10225A000F6E040E106E000E176E040E186E17C065
:10226A0015F018C016F032C42AF02A50D8A440EF4C
:10227A0011F042EF11F046EF11F0100E286E56EFF2
:10228A0011F0000E386E010E376E2A0E396E000EEE
:10229A003A6E000E3C6E010E3B6E68EC13F0200E97
:1022AA00286E120063EC15F0D6EC14F00009D8B4CD
:1022BA0061EF11F063EF11F0B7EF11F0AD0E00010D
:1022CA00E96F000EEA6F200EEB6FBDEC11F0000112
:1022DA00EF6F000EF06F9EEF11F0AD0EF025D96E84
:1022EA00DA6A000EDA228D0EF025E16EE26A000E3D
:1022FA00E222DFCFE7FF9DEF11F0AD0EF025D96E98
:10230A00DA6A000EDA22DF50ED6FEE6BEE51000A48
:10231A00D8B492EF11F072EF11F0ED510A0AD8B465
:10232A0072EF11F0070AD8B472EF11F072EF11F0E0
:10233A00F02BEF51F05DD8A0A5EF11F0A7EF11F047
:10234A0082EF11F0EF51D8B4ADEF11F0AFEF11F009
:10235A00B7EF11F08D0EDE6F000EDF6FEFC0E0F009
:10236A0024EC15F013EC07F059EF11F031EF00F0FF
:10237A00000E00018C6F86518711D8B4C7EF11F097
:10238A00C9EF11F0D4EF11F086C0D9FF87C0DAFF88
:10239A00DFBED2EF11F0D4EF11F016EF12F020EEFB
:1023AA0001F08651D9268751DA22EB51DE5CD8B08A
:1023BA00E1EF11F0E3EF11F0EBEF11F020EE01F095
:1023CA008651D9268751DA22DF50EB6F000E8C6FC7
:1023DA00FEEF11F0400E8C25D96EDA6A050EDA226C
:1023EA008C51E925E16E000EEA21E26EDFCFE7FFAC
:1023FA008C2BEB518C5DD8A005EF12F007EF12F091
:10240A00EFEF11F0000EDE6F400EDF6F050EE06F8A
:10241A00400EE16F020E51EC0BF0DEC086F0DFC019
:10242A0087F000018C5112002D0E216E29C048F050
:10243A00FD0E4816D8A424EF12F026EF12F068EF2A
:10244A0012F029C048F0D89048323F0E481648503A
:10245A00040D000EF324176E040EF420186E17C034
:10246A0015F018C016F0040E1518156E1650166ED3
:10247A0017C0D9FF18C0DAFFDF30E8320F0B0D0A98
:10248A00D8A44AEF12F04CEF12F064EF12F0300EBB
:10249A002B6E040E2C6E20EE02F01750D92618501F
:1024AA00DA22DECF2DF0DDCF2EF0000E306E080ED0
:1024BA002F6E48EC14F021EC13F074EF12F0ACEC30
:1024CA0013F074EF12F02950FD0B040AD8A470EF30
:1024DA0012F072EF12F074EF12F0E8EC0EF0120044
:1024EA00000E1D6E000E1C6E020E2618D8A480EF78
:1024FA0012F082EF12F0A2EF12F020EE01F0155066
:10250A00D9261650DA22200EDF6E20EE02F0155080
:10251A00D9261650DA22500EDE6E040EDD6E15C074
:10252A00D9FF16C0DAFF480EDF6E15C0D9FF16C0F4
:10253A00DAFF000EDB8ECAEF12F00D500401365D91
:10254A000E503759D8B0ACEF12F0AEEF12F0B2EF2E
:10255A0012F036C40DF037C40EF060EC0EF020EE27
:10256A0002F00F50D9261050DA22500EDE6E040EF9
:10257A00DD6E0FC0D9FF10C0DAFF480EDF6E0FC044
:10258A00D9FF10C0DAFF000EDB8E1200306E000E8B
:10259A00316E040E326E2B502C6E2D6AD8902C366A
:1025AA002D3630502E6E2F6AD8902E362F36D89070
:1025BA002E362F362C502E262D502F22D8902E36DE
:1025CA002F36D8902E362F362E5031262F503222C3
:1025DA0031C0D9FF32C0DAFFDF9E2B50D8A4F8EF02
:1025EA0012F0FAEF12F008EF13F03050020D6A0EF3
:1025FA00F324D96E000EF420DA6E31C0DEFF32C049
:10260A00DDFF14EF13F03050020D0F0EF324D96ED4
:10261A00000EF420DA6E31C0DEFF32C0DDFF31C0B9
:10262A00D9FF32C0DAFFDF9C20EE04F03150D92600
:10263A003250DA22DF8C1200000E276E000E206E56
:10264A00000E1D6E000E1C6E000E226E000E266E0F
:10265A000FC0D9FF10C0DAFF7F0EDF16040E0F1865
:10266A000F6E1050106E0FC0D9FF10C0DAFF7F0E28
:10267A00DF16040E0F180F6E1050106E15C0D9FF1A
:10268A0016C0DAFF7F0EDF16000E0C6E000E0E6EFD
:10269A00000E0D6E000E046E000E066E000E056E24
:1026AA00D2EC0DF0000E386E030E376E000E396E46
:1026BA00000E3A6E000E3C6E000E3B6E68EC13F094
:1026CA0093EC0CF0120072EF13F0E6EC13F0ABEFA0
:1026DA0013F0EBEC0FF0ABEF13F037C03DF038C05E
:1026EA003EF03E50000AD8B481EF13F07F0AD8B406
:1026FA00A4EF13F0ABEF13F03D50010AD8B46AEF20
:10270A0013F0030AD8B4ABEF13F0010AD8B46EEF92
:10271A0013F0060AD8B4ABEF13F0770AD8B4ABEFCC
:10272A0013F0010AD8B4ABEF13F0070AD8B4ABEF31
:10273A0013F0010AD8B4ABEF13F0ABEF13F03D502E
:10274A00FF0AD8B4ABEF13F0ABEF13F01200020E8E
:10275A002618D8A4B3EF13F0B5EF13F0B9EF13F0BE
:10276A00F2EC0BF0E5EF13F0000E266E2250D8A41F
:10277A00C1EF13F0C3EF13F0E3EF13F020EE01F013
:10278A001550D9261650DA22200EDF6E20EE02F0FE
:10279A001550D9261650DA22300EDE6E040EDD6E82
:1027AA0015C0D9FF16C0DAFF0C0EDF6E15C0D9FFAF
:1027BA0016C0DAFF000EDB8EE5EF13F0000E226E74
:1027CA001200000E0001D56F4B0ED66F000ED76FA8
:1027DA00000ED86F000ED96F000EDA6F080EDB6F8D
:1027EA00000E8C6F1A0E336E010E70EC14F01E0E72
:1027FA00336E020E70EC14F0000E2B6E400E2C6E2F
:10280A00050E2D6E400E2E6E020E33EC0DF02BC00F
:10281A0086F02CC087F0000E0001846F000E856FD1
:10282A00000E1A6E120070A01DEF14F01FEF14F0C4
:10283A0046EF14F017C0D9FF18C0DAFF800EDE1871
:10284A00D8A42AEF14F02CEF14F045EF14F00FC0BF
:10285A00D9FF10C0DAFF840EDE18D8A437EF14F0BF
:10286A0039EF14F045EF14F017C0D9FF18C0DAFF9A
:10287A000C0EDF6E17C0D9FF18C0DAFF000EDB8E10
:10288A007090689A12002DC033F02EC034F02BC01D
:10289A0031F02CC032F062EF14F033C0D9FF34C0EB
:1028AA00DAFFDF50356E334A342A31C0D9FF32C0DD
:1028BA00DAFF35C0DFFF314A322A2F06D8A03006A8
:1028CA002F2806E13028D8A46DEF14F06FEF14F02A
:1028DA0052EF14F01200366E33A476EF14F078EF4C
:1028EA0014F07DEF14F0000E2B6E3650CBEC12F084
:1028FA0033A282EF14F084EF14F089EF14F0010E82
:10290A002B6E3650CBEC12F0700E3624346E356ACC
:10291A000F0E352234C0D9FF35C0DAFF33C0DFFFCE
:10292A0012002850D8A49CEF14F09EEF14F0B6EFD2
:10293A0014F0000E6D6E000E696E160E6F6E9F0E0D
:10294A006B6E7B0E696EA28AA08AADEF14F06D865B
:10295A006DA6B2EF14F0B4EF14F0ACEF14F0010E60
:10296A00286E1200000E246E000E386E740E376E3A
:10297A00000E396E000E3A6E000E3C6E000E3B6E73
:10298A0068EC13F06D926994CCEF14F0689468B413
:10299A00D1EF14F0D3EF14F0CBEF14F0000E1B6E4E
:1029AA0012001F0E2864DCEF14F0DEEF14F0EBEFD8
:1029BA0014F06DB2E3EF14F0E5EF14F0EBEF14F05E
:1029CA00000E0001DF6FDE69F0EF14F0000E000167
:1029DA00DF6F000EDE6FDE511200010E0001742758
:1029EA00000E7523762377232450D8A4FFEF14F022
:1029FA0001EF15F00BEF15F01B2A1B50D8A408EFB6
:102A0A0015F00AEF15F00BEF15F01B681200F2AC87
:102A1A0011EF15F013EF15F023EF15F0A0AA18EF38
:102A2A0015F01AEF15F023EF15F0A1AA1FEF15F014
:102A3A0021EF15F023EF15F0FFEC05F01200A09A34
:102A4A001A50D8A42BEF15F02DEF15F038EF15F02A
:102A5A00DEC07BF0DFC07CF0E0C019F0010E00019F
:102A6A008B6F010E1A6EA08A1200698468986D82B3
:102A7A00010E246E000E1B6E000E386E750E376E38
:102A8A00000E396E000E3A6E000E3C6E000E3B6E62
:102A9A0068EC13F0120000EE60F07E0EEE6AE806B3
:102AAA00FDE100EE01F02A0EEE6AE806FDE154901F
:102ABA005492000EF86E000157EF11F0F28EF28C6C
:0A2ACA0006EC0AF096EC14F012007E
:020000040020DA
:08000000FFFFFFFFFFFFFFFF00
:020000040030CA
:0E000000220E391EFF0381FF0FC00FE00F40DC
:00000001FF
