:0400000032EF00F0EB
:060008004B82A0EF11F095
:100018004B80D8CF60F0E8CF61F0E0CF62F0F2AA71
:1000280018EF00F01AEF00F02AEF00F0F2A41FEF2B
:1000380000F021EF00F02AEF00F0C20ED76EF70EA5
:10004800D66E8972010E0101B46FF29462C0E0FFAE
:1000580061C0E8FF60C0D8FF4B901000FBEF17F0BD
:100068000BEC19F0EDEC18F012EC19F01EEC19F08D
:10007800F7EC18F022EC19F019EC19F0F29E010EC9
:10008800456EF28E000E0001706FC20E716F010E88
:10009800726F30EC07F0E40E0001656F7F0E666F3B
:1000A8003FEC18F0040080B85CEF00F05EEF00F061
:1000B8007BEF00F0020E0001D06F380ECF6FAD0E4F
:1000C800E82EFED7CF2FFCD7D02FFAD780B86FEF06
:1000D80000F071EF00F07EEF00F080A876EF00F0FE
:1000E80078EF00F071EF00F0FF007EEF00F0000EF7
:1000F8000101B56F1F0E0101B66585EF00F087EFAE
:1001080000F056EF00F06DA28CEF00F08EEF00F0DB
:1001180090EF00F056EF00F0B051B111D8B497EF5E
:1001280000F099EF00F0A4EF00F0B0C1D9FFB1C121
:10013800DAFFDFBEA2EF00F0A4EF00F0EAEF00F074
:10014800B405D8A4AAEF00F0ACEF00F0EAEF00F095
:10015800000E6E6F000E6E25D96EDA6A060EDA2270
:10016800400EDF6E6E2B3F0E6E65BDEF00F0BFEFE9
:1001780000F0AEEF00F0010E0001636F000E646F37
:10018800060E656F400E666F010E8EEC0DF063C0B3
:10019800B0F164C0B1F10101B051B111D8A4D7EFE9
:1001A80000F0D9EF00F0E0EF00F0500E0001656FAD
:1001B8007F0E666F3FEC18F0000E0101B46F370E2A
:1001C8000001656F7F0E666F3FEC18F00101B251B8
:1001D800B311D8B4F2EF00F0F4EF00F02FEF03F012
:1001E800B2C1D9FFB3C1DAFFDFBEFDEF00F0FFEF08
:1001F80000F056EF00F02FEF03F0B30E656F7E0EA0
:10020800666F3FEC18F066EF03F0C40E656F7F0E63
:10021800666F3FEC18F00101B051B111D8B417EF77
:1002280001F019EF01F024EF01F0B0C1D9FFB1C11D
:10023800DAFFDFBE22EF01F024EF01F066EF03F0F2
:10024800C250C30B1009C26E9E9CC2829EAC2FEF97
:1002580001F031EF01F02AEF01F0C3CF6CF1C4CF08
:100268006DF1200E0601006F6CC101F601016D51A0
:100278000601026F010E0001636F000E646F060E27
:10028800656F400E666F010E8EEC0DF063C0B0F125
:1002980064C0B1F166EF03F0CF0E656F7E0E666F36
:1002A8003FEC18F00101B051B111D8B45EEF01F084
:1002B80060EF01F06BEF01F0B0C1D9FFB1C1DAFF17
:1002C800DFBE69EF01F06BEF01F066EF03F0300E6F
:1002D8000601006F64C101F6010165510601026F54
:1002E800010E0001636F000E646F060E656F400E0D
:1002F800666F010E8EEC0DF063C0B0F164C0B1F111
:1003080066EF03F0E90E656F7E0E666F3FEC18F03E
:100318000101B051B111D8B494EF01F096EF01F09A
:10032800A1EF01F0B0C1D9FFB1C1DAFFDFBE9FEF85
:1003380001F0A1EF01F066EF03F0310E0601006F46
:1003480066C101F6010167510601026F010E000145
:10035800636F000E646F060E656F400E666F010EC8
:100368008EEC0DF063C0B0F164C0B1F166EF03F03C
:10037800030E656F7F0E666F3FEC18F00101B051F8
:10038800B111D8B4CAEF01F0CCEF01F0D7EF01F00A
:10039800B0C1D9FFB1C1DAFFDFBED5EF01F0D7EFA9
:1003A80001F066EF03F0320E0601006F68C101F636
:1003B800010169510601026F010E0001636F000E11
:1003C800646F060E656F400E666F010E8EEC0DF0C1
:1003D80063C0B0F164C0B1F166EF03F01D0E656F44
:1003E8007F0E666F3FEC18F00101B051B111D8B41F
:1003F80000EF02F002EF02F00DEF02F0B0C1D9FFFA
:10040800B1C1DAFFDFBE0BEF02F00DEF02F066EFCD
:1004180003F0330E0601006F6AC101F601016B514A
:100428000601026F010E0001636F000E646F060E75
:10043800656F400E666F010E8EEC0DF063C0B0F173
:1004480064C0B1F166EF03F07F0E656F7F0E666FD3
:100458003FEC18F00101B051B111D8B436EF02F0F9
:1004680038EF02F043EF02F0B0C1D9FFB1C1DAFFB3
:10047800DFBE41EF02F043EF02F066EF03F0400EFB
:100488000601006F000E016F010E026F010E0001E0
:10049800636F000E646F060E656F400E666F010E87
:1004A8008EEC0DF063C0B0F164C0B1F166EF03F0FB
:1004B800960E656F7F0E666F3FEC18F00101B05124
:1004C800B111D8B46AEF02F06CEF02F077EF02F0E6
:1004D800B0C1D9FFB1C1DAFFDFBE75EF02F077EF27
:1004E80002F066EF03F0410E0601006F000E016F87
:1004F800010E026F010E0001636F000E646F060E9D
:10050800656F400E666F010E8EEC0DF063C0B0F1A2
:1005180064C0B1F166EF03F0AD0E656F7F0E666FD4
:100528003FEC18F00101B051B111D8B49EEF02F0C0
:10053800A0EF02F0ABEF02F0B0C1D9FFB1C1DAFF12
:10054800DFBEA9EF02F0ABEF02F066EF03F0420E58
:100558000601006F060E016F080E026F010E000102
:10056800636F000E646F060E656F400E666F010EB6
:100578008EEC0DF063C0B0F164C0B1F166EF03F02A
:10058800680E656F7F0E666F3FEC18F00101B05181
:10059800B111D8B4D2EF02F0D4EF02F0DFEF02F0DD
:1005A800B0C1D9FFB1C1DAFFDFBEDDEF02F0DFEF86
:1005B80002F066EF03F0430E0601006F050E016FAF
:1005C800010E0001636F000E646F060E656F400E2A
:1005D800666F010E8EEC0DF063C0B0F164C0B1F12E
:1005E80066EF03F0F20E656F7F0E666F3FEC18F052
:1005F800000E01016F6F3F0E6F6505EF03F007EF07
:1006080003F009EF03F066EF03F0000E0001BA6F84
:10061800010EBB6FD50EBC6F7F0EBD6F6FC1BEF0F4
:10062800BF6B000E01016F25D96EDA6A050EDA225A
:10063800DF500001CF6FCF51C06FC16B37EC17F09F
:10064800000E0001656F010E666F90EC18F0010155
:100658006F2BFFEF02F0050100510001CF6FD06B47
:10066800D051000AD8B43BEF03F0F6EF02F0CF51B7
:10067800200AD8B409EF01F0100AD8B450EF01F0FD
:10068800010AD8B486EF01F0030AD8B4BCEF01F030
:10069800010AD8B4F2EF01F0730AD8B428EF02F0D7
:1006A800010AD8B45CEF02F0030AD8B490EF02F064
:1006B800010AD8B4C4EF02F0C30AD8B401EF01F0BC
:1006C800F6EF02F0000E0001636F000E646F050E76
:1006D800656F400E666F010E8EEC0DF063C0B2F1CF
:1006E80064C0B3F156EF00F032EF00F004012205C8
:1006F800D8A481EF03F083EF03F09FEF03F02051BC
:100708001F0B0009D8A48BEF03F08DEF03F09FEFC8
:1007180003F00001DC8F030E04012119D8A497EF20
:1007280003F099EF03F09DEF03F0010E426E9FEF87
:1007380003F0000E426E2251D8A4A5EF03F0A7EFF4
:1007480003F028EF05F020511F0B020AD8A4AFEFE1
:1007580003F0B1EF03F028EF05F024510F0B000967
:10076800D8B4B9EF03F0BBEF03F028EF05F024513C
:100778000F0B176E020E1760C4EF03F0C6EF03F0FD
:1007880028EF05F0200E0101B619D8A4CEEF03F02A
:10079800D0EF03F028EF05F00001DC8F040124BF3F
:1007A800D8EF03F0DAEF03F0F7EF03F024510F0B63
:1007B800176E1750020DE70EF324D96E000EF420C1
:1007C800DA6EDECF1CF0DDCF1DF024510F0B176E53
:1007D800186AEF0E1724D96E000E1820DA6EDF5053
:1007E8001B6E12EF04F024510F0B176E1750020DF9
:1007F800E30EF324D96E000EF420DA6EDECF1CF07F
:10080800DDCF1DF024510F0B176E186AF10E172457
:10081800D96E000E1820DA6EDF501B6E1BB017EF72
:1008280004F019EF04F021EF04F0FB0E1C141C6E09
:10083800FF0E1D141D6E26EF04F0040E1C101C6E16
:100848001D501D6E24BF2BEF04F02DEF04F03EEF7A
:1008580004F024510F0B176E1750020DE70EF32406
:10086800D96E000EF420DA6E1CC0DEFF1DC0DDFF5D
:100878004DEF04F024510F0B176E1750020DE30EC5
:10088800F324D96E000EF420DA6E1CC0DEFF1DC002
:10089800DDFF030E2119D8A454EF04F056EF04F03D
:1008A80090EF04F01CC0D9FF1DC0DAFFDFAE5FEF88
:1008B80004F061EF04F082EF04F024BF66EF04F067
:1008C80068EF04F076EF04F024510F0B176E186AE6
:1008D800EF0E1724D96E000E1820DA6E0001DF82A1
:1008E80082EF04F024510F0B176E186AF10E1724CB
:1008F800D96E000E1820DA6E0001DF821CC0D9FF05
:100908001DC0DAFF000EDB841CC0D9FF1DC0DAFF52
:10091800000EDB8E28EF05F0040E1C181C6E1D500F
:100928001D6E1CC0D9FF1DC0DAFFDFAE9EEF04F0BC
:10093800A0EF04F0BCEF04F01CC0D9FF1DC0DAFF23
:100948007F0EDF161CC0D9FF1DC0DAFF000EDB8C3E
:10095800000E106E050E0F6E1CC011F01DC012F0B7
:10096800000E146E020E136E61EC15F0C2EF04F067
:100978001CC0D9FF1DC0DAFF000EDB8C040E1C184A
:100988001C6E1D501D6E1BB2CCEF04F0CEEF04F0B0
:10099800D9EF04F01CC0D9FF1DC0DAFFDFAED7EFD6
:1009A80004F0D9EF04F011EF05F0040124BFDFEFE4
:1009B80004F0E1EF04F0EFEF04F024510F0B176E91
:1009C800186AEF0E1724D96E000E1820DA6E00018F
:1009D800DF92FBEF04F024510F0B176E186AF10E2B
:1009E8001724D96E000E1820DA6E0001DF921CC0A1
:1009F800D9FF1DC0DAFF3B0EDF16000E106E050E84
:100A08000F6E1CC011F01DC012F0000E146E020E05
:100A1800136E61EC15F017EF05F01CC0D9FF1DC06F
:100A2800DAFF3B0EDF16040124510F0B176E186A0C
:100A3800700E1724196E0F0E18201A6E19C0D9FFE0
:100A48001AC0DAFFFE0EDF1612000101B651D8A453
:100A580030EF05F032EF05F049EF05F0000E6D6E4E
:100A6800000E696E160E6F6E9F0E6B6E7B0E696EB2
:100A78003FEF05F06D866DA644EF05F046EF05F0F3
:100A88003EEF05F0010E0101B66FB605D8A44FEF91
:100A980005F051EF05F060EF05F06DBA56EF05F07F
:100AA80058EF05F060EF05F0000E686E000E696EF5
:100AB80069806988020EB66F68A465EF05F067EF74
:100AC80005F071EF05F069A46CEF05F06EEF05F025
:100AD80071EF05F068941EEC18F06DA276EF05F042
:100AE80078EF05F07BEF05F0A19A4CEF06F068A0CF
:100AF80080EF05F082EF05F08FEF05F069A087EF32
:100B080005F089EF05F08FEF05F045EC0CF0040EC9
:100B18000101B66F689068A894EF05F096EF05F0AC
:100B28009FEF05F069A89BEF05F09DEF05F09FEF9B
:100B380005F0C1EC18F068ACA4EF05F0A6EF05F0DD
:100B4800BEEF05F069ACABEF05F0ADEF05F0BBEF1C
:100B580005F0000E106E730E0F6E000E116E000E73
:100B6800126E000E146E010E136E61EC15F0689C87
:100B780076EC18F068AAC3EF05F0C5EF05F0CEEFE4
:100B880005F069AACAEF05F0CCEF05F0CEEF05F045
:100B980007EC17F068A2D3EF05F0D5EF05F0EBEFFF
:100BA80005F069A2DAEF05F0DCEF05F0EBEF05F0F0
:100BB8007F0E106E0F68000E116E000E126E000E82
:100BC800146E010E136E61EC15F0000E6A6E040EC1
:100BD8000101B661F2EF05F0F4EF05F0F7EF05F06B
:100BE800A19A4CEF06F069A6FCEF05F0FEEF05F0C0
:100BF8004BEF06F0000E216E68A605EF06F007EF32
:100C080006F04BEF06F06CCF48F04830E832E83297
:100C18000F0B416E689648B414EF06F016EF06F015
:100C280020EF06F0EF0E4124D96EDA6A000EDA22C0
:100C38000001DF7028EF06F0F10E4124D96EDA6A60
:100C4800000EDA220001DF704150D8A42EEF06F022
:100C580030EF06F034EF06F055EC14F042EF06F0F2
:100C6800000E106E720E0F6E480E116E000E126E90
:100C7800000E146E000E136E61EC15F0212A030E9F
:100C8800216449EF06F04BEF06F000EF06F0A19A59
:100C980012000001EEBF5BEF06F0EE5106E1ED0534
:100CA800D8B059EF06F05BEF06F061EF06F0000EE2
:100CB800936F010E926F65EF06F0EDC092F0EEC0F3
:100CC80093F0EBC090F0ECC091F080C094F081C03C
:100CD80095F082C096F083C097F084C098F085C0E4
:100CE80099F086C09AF087C09BF0000E9D6F1F0E8A
:100CF8009C6F000E0101D66FF9EF06F09C07D8A093
:100D08009D07B70E9C25D96E010E9D21DA6E94C001
:100D180063F095C064F096C065F097C066F098C01F
:100D280067F099C068F09AC069F09BC06AF00A0E33
:100D38006B6F000E6C6F000E6D6F000E6E6F000E05
:100D48006F6F000E706F000E716F000E726F86EC81
:100D580013F063C088F064C089F065C08AF066C08B
:100D68008BF067C08CF068C08DF069C08EF06AC0E7
:100D78008FF000018851300FDF6E9207D8A09307DB
:100D88009007D8A0910794C063F095C064F096C00E
:100D980065F097C066F098C067F099C068F09AC08F
:100DA80069F09BC06AF00A0E6B6F000E6C6F000E44
:100DB8006D6F000E6E6F000E6F6F000E706F000E7D
:100DC800716F000E726F1DEC12F063C094F064C076
:100DD80095F065C096F066C097F067C098F068C057
:100DE80099F069C09AF06AC09BF000019C519D116E
:100DF800D8B401EF07F003EF07F01FEF07F09451A5
:100E0800951196119711981199119A119B11D8A4BF
:100E180010EF07F012EF07F082EF06F093BF1FEF15
:100E280007F0935106E19205D8B01DEF07F01FEFC8
:100E380007F082EF06F07EC073F07FC074F0B70E43
:100E48009C25756F010E9D21766F90C077F091C03B
:100E580078F053EC16F01200000E316E000E306E72
:100E6800000E2F6E000E2E6E000E396E000E386EBC
:100E7800240EAC6E080EB86EACB845EF07F047EF1D
:100E880007F07FEF07F0B8B64CEF07F04EEF07F02A
:100E98007FEF07F0ACB453EF07F055EF07F07FEFA3
:100EA80007F0000E0001636F6C0E646FDC0E656F57
:100EB800020E666F060E736F70C074F071C075F025
:100EC80072C076F073296DEF07F0D89074377537D4
:100ED8007637E82E69EF07F000017451676F755196
:100EE800686F7651696F6A6BB8EC15F0000163059D
:100EF800AF6E07EF08F0ACB884EF07F086EF07F0A5
:100F0800C5EF07F0B8B68BEF07F08DEF07F0C5EF28
:100F180007F0ACA492EF07F094EF07F0C5EF07F0E5
:100F2800000E0001636F6C0E646FDC0E656F020EBD
:100F3800666F040E736F70C074F071C075F072C084
:100F480076F07329ACEF07F0D89074377537763799
:100F5800E82EA8EF07F000017451676F7551686FAC
:100F68007651696F6A6BB8EC15F0FF0E00016327C4
:100F78006351776F786B7851B06E77C0AFFF07EF2A
:100F880008F0ACB8CAEF07F0CCEF07F007EF08F0AD
:100F9800B8A6D1EF07F0D3EF07F007EF08F0ACA43D
:100FA800D8EF07F0DAEF07F007EF08F0000E0001BE
:100FB800636F6C0E646FDC0E656F020E666F020E57
:100FC800736F70C074F071C075F072C076F07329D9
:100FD800F2EF07F0D890743775377637E82EEEEFD2
:100FE80007F000017451676F7551686F7651696F2A
:100FF8006A6BB8EC15F0FF0E000163276351776F39
:10100800786BBFEF07F0900EAB6E9D8A9F8A9F8822
:10101800120063C06DF064C06EF000016751681182
:10102800D8A419EF08F01BEF08F01DEF08F0C8EF7F
:1010380008F06DC0D9FF6EC0DAFF65C0DFFF6751E9
:101048006D25696F68516E216A6FFF0E6925D96E2B
:10105800FF0E6A21DA6E65C0DFFF685107E1030EF3
:10106800675DD8B03AEF08F03CEF08F03EEF08F0C3
:10107800C8EF08F020EE01F06D51D9266E51DA2242
:1010880065C0DFFF20EE02F06D51D9266E51DA22DD
:1010980065C0DFFF67516D25696F68516E216A6F02
:1010A800FE0E6925D96EFF0E6A21DA6E65C0DFFF74
:1010B80067516D25696F68516E216A6FFD0E69254C
:1010C800D96EFF0E6A21DA6E65C0DFFF685107E14D
:1010D800070E675DD8B073EF08F075EF08F077EF8B
:1010E80008F0C8EF08F020EE03F06D51D9266E51D4
:1010F800DA2265C0DFFF67516D25696F68516E217F
:101108006A6FFC0E6925D96EFF0E6A21DA6E65C01A
:10111800DFFF685107E1090E675DD8B096EF08F068
:1011280098EF08F09AEF08F0C8EF08F06DC069F082
:101138006EC06AF0691F6A1F694B6A2B030E691536
:101148006B6F6C6B6B516D276C516E236B51675FC6
:101158006C51685BFC0E6717FF0E6817BFEF08F04D
:101168006DC0D9FF6EC0DAFF65C0DFFF6707D8A082
:1011780068076D4B6E2B67516811D8A4C6EF08F04D
:10118800C8EF08F0B4EF08F0120001C00BF002C07D
:101198000CF005500610D8A4D4EF08F0D6EF08F0EC
:1011A800D8EF08F083EF09F00BC0D9FF0CC0DAFFC5
:1011B80003C0DFFF05500B24076E06500C20086E95
:1011C800FF0E0724D96EFF0E0820DA6E03C0DFFF7A
:1011D800065007E1030E055CD8B0F5EF08F0F7EF0D
:1011E80008F0F9EF08F083EF09F020EE01F00B505A
:1011F800D9260C50DA2203C0DFFF20EE02F00B5094
:10120800D9260C50DA2203C0DFFF05500B24076EE5
:1012180006500C20086EFE0E0724D96EFF0E08201B
:10122800DA6E03C0DFFF05500B24076E06500C2052
:10123800086EFD0E0724D96EFF0E0820DA6E03C073
:10124800DFFF065007E1070E055CD8B02EEF09F066
:1012580030EF09F032EF09F083EF09F020EE03F0E8
:101268000B50D9260C50DA2203C0DFFF05500B249F
:10127800076E06500C20086EFC0E0724D96EFF0E70
:101288000820DA6E03C0DFFF065007E1090E055C8F
:10129800D8B051EF09F053EF09F055EF09F083EF9B
:1012A80009F00BC007F00CC008F0071E081E074A1B
:1012B800082A030E0714096E0A6A09500B260A50F9
:1012C8000C220950055E0A50065AFC0E0516FF0E40
:1012D80006167AEF09F00BC0D9FF0CC0DAFF03C07D
:1012E800DFFF0506D8A006060B4A0C2A0550061093
:1012F800D8A481EF09F083EF09F06FEF09F012002D
:10130800040120511F0BE806D8B48DEF09F08FEFC8
:1013180009F091EF09F03AEF0AF02451D8B497EFA9
:1013280009F099EF09F09BEF09F03AEF0AF0060E81
:101338002119D8A4A2EF09F0A4EF09F0DFEF09F012
:10134800C6EF09F04A04D8A4ACEF09F0AEEF09F0F3
:10135800DFEF09F0690E0001D96F7E0EDA6F000E1B
:10136800DE6F090EDD6FC00EDC6FDFEF09F0800E57
:101378000001D96F7E0EDA6F000EDE6F1D0EDD6F75
:10138800B7EF09F02351016E026A0250000AD8B47F
:10139800D0EF09F0DFEF09F00150210AD8B4A6EF29
:1013A80009F0030AD8B4BBEF09F0010AD8B4DFEF9B
:1013B80009F0DFEF09F004012039E832030BE806F1
:1013C800D8B4E9EF09F0EBEF09F015EF0AF03AEFBE
:1013D8000AF0470E0001D96F000EDA6F000EDE6FBB
:1013E800010EDD6FC10EDC6F3AEF0AF0800E0001CE
:1013F800DC6F23C447F03AEF0AF0460E0001D96FBC
:10140800000EDA6F000EDE6F010EDD6F810EDC6FED
:101418003AEF0AF0800E0001DC6F22C446F03AEF82
:101428000AF02151016E026A0250000AD8B41FEF77
:101438000AF03AEF0AF00150010AD8B43AEF0AF07C
:10144800030AD8B4EDEF09F0010AD8B401EF0AF0A5
:101458000A0AD8B43AEF0AF0030AD8B4FAEF09F046
:10146800010AD8B40EEF0AF03AEF0AF01200A0C051
:10147800D9FFA1C0DAFFDECFF6FFDDCFF7FF080006
:10148800F550250AD8A44BEF0AF04DEF0AF0D8EF33
:101498000AF0A0C0D9FFA1C0DAFFDE2A000EDD22C3
:1014A800000E0001EC6F000EEB6FEBC0F3F0ED697E
:1014B800EE69A0C0D9FFA1C0DAFFDECFB0F0DDCF62
:1014C800B1F0B0C0F6FFB1C0F7FF0800F550750ADB
:1014D800D8A471EF0AF073EF0AF0CFEF0AF0A2C0B8
:1014E800D9FFA3C0DAFFDFCFA4F0020EDE26DFCFDC
:1014F800A5F0000EDD22A4C0D9FFA5C0DAFFDECF1B
:10150800A6F0DDCFA7F0A6C0A8F0A7C0A9F0AA6BE7
:10151800AB6BAC6BAD6BAE6BAF6B010EB025A46F54
:10152800000EB121A56FA0C0D9FFA1C0DAFFA4C0E9
:10153800DEFFA5C0DDFFB9EF0AF09EC07EF09FC0B8
:101548007FF0A8C080F0A9C081F0AAC082F0ABC02B
:1015580083F0ACC084F0ADC085F0AEC086F0AFC0FB
:1015680087F04DEC06F0EDEF0AF0B0C0F6FFB1C021
:10157800F7FF0800F550A46FA56BA551000AD8B471
:10158800C8EF0AF0CFEF0AF0A451750AD8B4A1EF5A
:101598000AF0CFEF0AF0A0C0D9FFA1C0DAFFDE2A17
:1015A800000EDD22EDEF0AF0A0C0D9FFA1C0DAFFDE
:1015B800DECFF6FFDDCFF7FF0800F5500001636FBF
:1015C800646B9EC065F09FC066F0EFEC13F0CFEF40
:1015D8000AF01200800E04012019D8A4F6EF0AF0D0
:1015E800F8EF0AF09DEF0BF0C00E0001DC6F83EFFF
:1015F8000BF09D0E0001D96F7E0EDA6F000EDE6FC4
:10160800120EDD6F9DEF0BF02251D8A40EEF0BF0F8
:1016180010EF0BF051EF0BF02251020DF30EF324F3
:10162800F66E7D0EF420F76E0900F5CFD9F00A00AA
:10163800F5CFDAF0020E0001D925016E000EDA218D
:10164800026E01C0F6FF02C0F7FFF86A070EF764E2
:1016580003D00800F55005D0F6CFE1FFF7CFE2FF41
:10166800E7500001DD6F030ED925016E000EDA2167
:10167800026E01C0F6FF02C0F7FFF86A070EF764B2
:1016880003D00800F55005D0F6CFE1FFF7CFE2FF11
:10169800E7500001DE6F9DEF0BF0000E0001DC6FDC
:1016A8009DEF0BF0030E22615CEF0BF05EEF0BF089
:1016B80051EF0BF02251020DED0EF324F66E7D0E64
:1016C800F420F76E0900F5CFD9F00A00F5CFDAF06B
:1016D800D9C0F6FFDAC0F7FFF86A070EF76403D03F
:1016E8000800F55005D0F6CFE1FFF7CFE2FFE7504D
:1016F800016E01500001DD6FDE6B9DEF0BF0040100
:101708002351016E026A0250000AD8B48EEF0BF022
:1017180051EF0BF00150010AD8B4FDEF0AF0030AAB
:10172800D8B408EF0BF0010AD8B456EF0BF051EF1C
:101738000BF01200A09A000E6A6E000E686E000E82
:10174800706E710E0001636F0F0E646F000E666F8E
:10175800000E656F000E686F010E676F0DEC08F0E4
:10176800160E6F6E9F0E6B6E7B0E696E000E00017B
:101778006F6F6F51040D000EF324D96E040EF42020
:10178800DA6EDE6ADE6ADE6ADD6A6F2B070E6F6567
:10179800D0EF0BF0D2EF0BF0BDEF0BF06D8C000E1D
:1017A8006E6E6D986D9C6896000EDC6F000ED46F9F
:1017B800000ED66F000ED56F68B6E5EF0BF0E7EFB9
:1017C8000BF0D7EF0BF0010E3D6E010E3C6E000ED4
:1017D8003B6E000E3A6E000EF56F000E6F6F6F5184
:1017E800020DE30EF324D96E000EF420DA6E000E1B
:1017F800DE6E000EDD6E6F51020DE70EF324D96E1A
:10180800000EF420DA6E000EDE6E000EDD6EF10EB4
:101818006F25D96EDA6A000EDA22000EDF6EEF0E3F
:101828006F25D96EDA6A000EDA22000EDF6E6F2B92
:10183800010E6F6522EF0CF024EF0CF0F3EF0BF0C4
:10184800080EE36F040EE46F160E706E040E0401AA
:10185800036F200E026F080E016F040E006F008FD9
:10186800000E4A6E000E0001DF6F000EE06F000EE2
:10187800E16F000EE26F000EF46F000E0101B66F0B
:101888001200A09A000E6A6E000E686E000E706E4E
:10189800710E016E0F0E026E000E046E000E036EC6
:1018A800000E066E010E056EC9EC08F0160E6F6E7E
:1018B8009F0E6B6E7B0E696E000E0D6E0D50040D43
:1018C800000EF324D96E040EF420DA6EDE6ADE6AA6
:1018D800DE6ADD6A0D2A070E0D6475EF0CF077EFEE
:1018E8000CF062EF0CF06D8C000E6E6E6D986D9CB6
:1018F8006896000E0001DC6F000ED46F000ED66FE4
:10190800000ED56F68B68BEF0CF08DEF0CF07CEF06
:101918000CF0010E3D6E010E3C6E000E3B6E000E8B
:101928003A6E000EF56F000E0D6E0D50020DE30EAF
:10193800F324D96E000EF420DA6E000EDE6E000E6F
:10194800DD6E0D50020DE70EF324D96E000EF42063
:10195800DA6E000EDE6E000EDD6EF10E0D24D96E0D
:10196800DA6A000EDA22000EDF6EEF0E0D24D96E51
:10197800DA6A000EDA22000EDF6E0D2A010E0D64FF
:10198800C8EF0CF0CAEF0CF099EF0CF0080E00014C
:10199800E36F040EE46F160E706E040E0401036FFD
:1019A800200E026F080E016F040E006F008F000EEC
:1019B8004A6E000E0001DF6F000EE06F000EE16F4F
:1019C800000EE26F000EF46F000E0101B66F1200F8
:1019D80020EE01F03650D9263750DA22DF50026E59
:1019E80002500001D55D000ED659D8B0FEEF0CF0BC
:1019F80000EF0DF002EF0DF0D5C002F00250D55FF8
:101A0800000ED65B000E016E19EF0DF0280E0124B2
:101A1800D96EDA6A040EDA22D1C0E1FFD2C0E2FF41
:101A2800DFCFE7FFD14BD22B012A0250015CD8A0AF
:101A380020EF0DF022EF0DF00AEF0DF0D551D61181
:101A4800D8B429EF0DF02BEF0DF064EF0DF020EE78
:101A580001F03450D9263550DA22080EDF6E20EE18
:101A680002F03450D9263550DA22280EDE6E040EE4
:101A7800DD6E36C0D9FF37C0DAFFDFBC46EF0DF0A8
:101A880048EF0DF056EF0DF034C0D9FF35C0DAFF3E
:101A9800480EDF6E34C0D9FF35C0DAFF000EDB8E8A
:101AA8008DEF0DF034C0D9FF35C0DAFF080EDF6EB8
:101AB80034C0D9FF35C0DAFF000EDB8E8DEF0DF094
:101AC80020EE01F03450D9263550DA22080EDF6EA8
:101AD80020EE02F03450D9263550DA22200EDE6E80
:101AE800040EDD6E34C0D9FF35C0DAFF040EDF6E98
:101AF80034C0D9FF35C0DAFF000EDB8ED49F3E50CC
:101B0800D8A489EF0DF08BEF0DF08DEF0DF096EC6A
:101B180012F0120000016B6F00016351D8B497EF07
:101B28000DF099EF0DF0A7EF0DF06B51020DE30EDC
:101B3800F324D96E000EF420DA6EDECF6CF0DDCF20
:101B48006DF0B3EF0DF06B51020DE70EF324D96E73
:101B5800000EF420DA6EDECF6CF0DDCF6DF06C5144
:101B68006D11D8A4BAEF0DF0BCEF0DF0C2EF0DF077
:101B7800000E636F000E646F2EEF0EF020EE02F081
:101B88006C51D9266D51DA2264C0DEFF65C0DDFFD5
:101B980020EE01F06C51D9266D51DA2266C0DFFFC4
:101BA8006CC0D9FF6DC0DAFF400EDF166CC0D9FFDC
:101BB8006DC0DAFF000EDB866CC0D9FF6DC0DAFF9E
:101BC800000EDB8E6351D8B4ECEF0DF0EEEF0DF0A4
:101BD8000DEF0EF06B51020DE30EF324D96E000EDB
:101BE800F420DA6EDECF67F0DDCF68F0040E6719F7
:101BF800696F68516A6F6B51020DE30EF324D96E59
:101C0800000EF420DA6E69C0DEFF6AC0DDFF2AEF3D
:101C18000EF06B51020DE70EF324D96E000EF4207E
:101C2800DA6EDECF67F0DDCF68F0040E6719696FF2
:101C380068516A6F6B51020DE70EF324D96E000EDE
:101C4800F420DA6E69C0DEFF6AC0DDFF6CC063F0A5
:101C58006DC064F012006D980001DCBF36EF0EF025
:101C680038EF0EF07DEF0EF0D4AF3DEF0EF03FEF02
:101C78000EF051EF0EF0020E436E3A50D8A447EF23
:101C88000EF049EF0EF04BEF0EF0AFEC14F0000E33
:101C98003C6E000E3D6ECFEF0EF020EE01F034509A
:101CA800D9263550DA22080EDF6E20EE02F03450C5
:101CB800D9263550DA22200EDE6E040EDD6E34C0D1
:101CC800D9FF35C0DAFF0C0EDF6E34C0D9FF35C03E
:101CD800DAFF000EDB8EE3C0D9FFE4C0DAFF040EA2
:101CE800DF6EE3C0D9FFE4C0DAFF000EDB8ECFEF72
:101CF8000EF0040120AF83EF0EF085EF0EF0A1EF98
:101D08000EF0010E436E3B50D8A48DEF0EF08FEF0E
:101D18000EF091EF0EF0AFEC14F0000E3C6E000EDA
:101D28003D6E3E50D8A49BEF0EF09DEF0EF0CFEF26
:101D38000EF096EC12F0CFEF0EF0020E436E20EE8E
:101D480001F03450D9263550DA22080EDF6E20EE25
:101D580002F03450D9263550DA22200EDE6E040EF9
:101D6800DD6E34C0D9FF35C0DAFF040EDF6E34C033
:101D7800D9FF35C0DAFF000EDB8E000E3C6E000E78
:101D88003D6E3E50D8A4CBEF0EF0CDEF0EF0CFEF66
:101D98000EF09DEF0EF01200096E0150D8B4D7EF87
:101DA8000EF0D9EF0EF0E7EF0EF00950020DE30E3A
:101DB800F324D96E000EF420DA6EDECF0AF0DDCF00
:101DC8000BF0F3EF0EF00950020DE70EF324D96E75
:101DD800000EF420DA6EDECF0AF0DDCF0BF00A50E9
:101DE8000B10D8A4FAEF0EF0FCEF0EF002EF0FF094
:101DF800000E016E000E026E6EEF0FF020EE02F084
:101E08000A50D9260B50DA2202C0DEFF03C0DDFFDC
:101E180020EE01F00A50D9260B50DA2204C0DFFF69
:101E28000AC0D9FF0BC0DAFF400EDF160AC0D9FF7F
:101E38000BC0DAFF000EDB860AC0D9FF0BC0DAFF41
:101E4800000EDB8E0150D8B42CEF0FF02EEF0FF000
:101E58004DEF0FF00950020DE30EF324D96E000E7A
:101E6800F420DA6EDECF05F0DDCF06F0040E05189B
:101E7800076E0650086E0950020DE30EF324D96E62
:101E8800000EF420DA6E07C0DEFF08C0DDFF6AEF3F
:101E98000FF00950020DE70EF324D96E000EF4205E
:101EA800DA6EDECF05F0DDCF06F0040E0518076EFA
:101EB8000650086E0950020DE70EF324D96E000E85
:101EC800F420DA6E07C0DEFF08C0DDFF0AC001F0AB
:101ED8000BC002F01200000E0401286F000E296FDB
:101EE800D6EF0FF00001DC8F4204D8A47EEF0FF08C
:101EF80080EF0FF0F0EF0FF004012883F0EF0FF000
:101F08000001DC8FF0EF0FF00001DC8F0401245199
:101F18000F0B0009D8B493EF0FF095EF0FF0F0EF27
:101F28000FF024BF9AEF0FF09CEF0FF0ADEF0FF01A
:101F380024510F0B016E0150020DE70EF324D96EE8
:101F4800000EF420DA6EDECF03F0DDCF04F0BCEF34
:101F58000FF024510F0B016E0150020DE30EF32414
:101F6800D96E000EF420DA6EDECF03F0DDCF04F078
:101F780003C0D9FF04C0DAFFDFAEC5EF0FF0C7EF2B
:101F88000FF0F0EF0FF003C0D9FF04C0DAFFDFA4B1
:101F9800D0EF0FF0D2EF0FF0F0EF0FF0010E286F37
:101FA800F0EF0FF020511F0B016E026A0250000A79
:101FB800D8B4E1EF0FF0F0EF0FF00150000AD8B4F9
:101FC80076EF0FF0010AD8B484EF0FF0030AD8B403
:101FD80088EF0FF0F0EF0FF00001DCAFF6EF0FF035
:101FE800F8EF0FF0FFEF0FF0280ED96F040EDA6F3D
:101FF800DC81020EDD6F120004012039E832030B88
:102008000009D8B40AEF10F00CEF10F056EF10F0FA
:102018008FEF10F00001DC8F080E0101B66F8FEF13
:1020280010F0EEEC0AF08FEF10F00FEC13F08FEFDA
:1020380010F04A0E0001D96F000EDA6FDC81010E34
:10204800DD6FDC8F8FEF10F06FEC0FF08FEF10F07B
:102058007AEC03F08FEF10F0490E24250001D96FB8
:10206800DA6B000EDA2322EF10F00001DC8F490E44
:1020780004012425D96EDA6A000EDA2222C4DFFFB1
:102088008FEF10F0000E106E020E0F6E000E116E24
:10209800000E126E000E146E000E136E61EC15F039
:1020A8008FEF10F021511E6E1F6A1F50000AD8B41E
:1020B80060EF10F08FEF10F01E50000AD8B428EF30
:1020C80010F0010AD8B42CEF10F0020AD8B42CEFA3
:1020D80010F0060AD8B40EEF10F0030AD8B415EFC2
:1020E80010F0010AD8B446EF10F00F0AD8B41DEF6B
:1020F80010F0010AD8B419EF10F0030AD8B430EF81
:1021080010F0010AD8B439EF10F0070AD8B48FEFED
:1021180010F08FEF10F01200E3C0D9FFE4C0DAFF2F
:102128000001000EDFBC010E026E040EE319E36F1E
:10213800E451E46F080E0101B619D8A4A6EF10F017
:10214800A8EF10F0BCEF10F0040122517F0B6E6E67
:102158006E50D8B4B2EF10F0B4EF10F0B9EF10F041
:10216800100E0101B66FBCEF10F0040E0101B66F3E
:102178004304D8A4C2EF10F0C4EF10F00CEF11F034
:10218800000120EE02F0E351D926E451DA22280EAC
:10219800DE6E040EDD6E18EC11F0020E4418D8A4A1
:1021A800D8EF10F0DAEF10F0E8EF10F0E3C0D9FF45
:1021B800E4C0DAFF040EDF6EE3C0D9FFE4C0DAFF43
:1021C800000EDB8E17EF11F00250D8A4EEEF10F0DE
:1021D800F0EF10F0FEEF10F0E3C0D9FFE4C0DAFF33
:1021E800480EDF6EE3C0D9FFE4C0DAFF000EDB8ED5
:1021F80017EF11F0E3C0D9FFE4C0DAFF080EDF6E75
:10220800E3C0D9FFE4C0DAFF000EDB8E17EF11F050
:102218000001D4AF12EF11F014EF11F015EF11F027
:10222800D49F000E436E1200080E016E0001DE51AD
:1022380007E1080EDD5DD8B024EF11F026EF11F0AC
:102248003EEF11F0DDC001F04450D8A42EEF11F09C
:1022580030EF11F034EF11F0010E446E3EEF11F043
:102268004404D8A43AEF11F03CEF11F03EEF11F01E
:10227800020E446E0150DD5F000EDE5B20EE01F0C1
:10228800E351D926E451DA2201C0DFFF280E326E6D
:10229800040E336EDCB153EF11F055EF11F097EFE8
:1022A80011F072EF11F0D9C0F6FFDAC0F7FFF86A43
:1022B80032C0D9FF33C0DAFF070EF76403D0080035
:1022C800F55005D0F6CFE1FFF7CFE2FFE750DF6E1C
:1022D8000001D94BDA2B324A332A01060150D8A41F
:1022E80078EF11F07AEF11F057EF11F09FEF11F03E
:1022F800D9C0F6FFDAC0F7FFF86A32C0D9FF33C099
:10230800DAFF070EF76403D00800F55005D0F6CFC2
:10231800E1FFF7CFE2FFE750DF6E0001D94BDA2B80
:10232800324A332A01060150D8A49DEF11F09FEFDD
:1023380011F07CEF11F01200E1CF24F0E2CF25F08C
:10234800D9CF26F0DACF27F0F3CF28F0F4CF29F051
:10235800F6CF2AF0F7CF2BF0F8CF2CF0F5CF2DF0F1
:102368009DA0B9EF11F0BBEF11F0E7EF11F09EA0BF
:10237800C0EF11F0C2EF11F0E7EF11F0FA0ECF6ED7
:10238800250ECE6E9E90CEEF11F029EC05F08D74DF
:10239800E7EF11F04550226E236A2350000AD8B4A3
:1023A800D8EF11F0E7EF11F02250000AD8B4E7EFA8
:1023B80011F0010AD8B4C9EF11F0030AD8B4E7EF55
:1023C80011F0E7EF11F09DAAECEF11F0EEEF11F02C
:1023D800F7EF11F09EAAF3EF11F0F5EF11F0F7EF18
:1023E80011F092EC16F09DA8FCEF11F0FEEF11F041
:1023F80007EF12F09EA803EF12F005EF12F007EFB7
:1024080012F0A9EC18F02DC0F5FF2CC0F8FF2BC076
:10241800F7FF2AC0F6FF29C0F4FF28C0F3FF27C042
:10242800DAFF26C0D9FF25C0E2FF24C0E1FF4B92A6
:10243800110020EE73F0070EDE6AE806FDE20001E7
:102448006B516C116D116E116F1170117111721148
:10245800D8B431EF12F033EF12F085EF12F0010E1D
:102468007B6F41EF12F0D8906B376C376D376E3752
:102478006F377037713772377B2B72AF46EF12F0B8
:1024880048EF12F037EF12F0D8907337743775377A
:1024980076377737783779377A376B51635D6C5190
:1024A80064596D5165596E5166596F51675970512C
:1024B80068597151695972516A59D8A066EF12F07A
:1024C80068EF12F079EF12F06B51635F6C51645B47
:1024D8006D51655B6E51665B6F51675B7051685BF0
:1024E8007151695B72516A5B7381D8907233713331
:1024F80070336F336E336D336C336B337B2F48EF30
:1025080012F073C063F074C064F075C065F076C0F3
:1025180066F077C067F078C068F079C069F07AC073
:102528006AF012003D50D8A49CEF12F09EEF12F012
:102538000EEF13F0010E3D6E3C50D8A4A6EF12F03A
:10254800A8EF12F00EEF13F0010E3C6E020E4318C6
:10255800D8A4B1EF12F0B3EF12F0CAEF12F00001F5
:1025680020EE01F0E351D926E451DA22000EDF6EA5
:10257800E3C0D9FFE4C0DAFF480EDF6EE3C0D9FF3D
:10258800E4C0DAFF000EDB8E0EEF13F04304D8A48C
:10259800D0EF12F0D2EF12F00EEF13F0000E406EF3
:1025A80020EE01F03650D9263750DA22080EDF6EB9
:1025B80020EE02F03650D9263750DA22200EDE6E91
:1025C800040EDD6E36C0D9FF37C0DAFF040EDF6EA9
:1025D80036C0D9FF37C0DAFF000EDB8E010E406E21
:1025E80020EE01F03450D9263550DA22080EDF6E7D
:1025F80020EE02F03450D9263550DA22200EDE6E55
:10260800040EDD6E34C0D9FF35C0DAFF800EDF6EF0
:102618000EEF13F012000001DC8F710E016E0F0E29
:10262800026E000E046E000E036E000E066E010EA2
:10263800056EC9EC08F0000E016E040E026E000E65
:10264800046E000E036E000E066E200E056EC9ECB9
:1026580008F06D8C000E176EF10E1724D96EDA6A29
:10266800000EDA22000EDF6EEF0E1724D96EDA6A3A
:10267800000EDA22000EDF6E172A010E176447EFEC
:1026880013F049EF13F030EF13F0490E016E000E0E
:10269800026E000E046E000E036E000E066E010E32
:1026A800056EC9EC08F06D9C080E0001E36F040E7E
:1026B800E46F000E366E040E376E36C034F037C045
:1026C80035F022C44AF04A50D8A46DEF13F06FEFEA
:1026D80013F074EF13F0100E0101B66F85EF13F0CD
:1026E800000E106E010E0F6E4A0E116E000E126E65
:1026F800000E146E010E136E61EC15F0200E010130
:10270800B66F120000016B516C116D116E116F11D3
:10271800701171117211D8B494EF13F096EF13F091
:10272800DEEF13F0010E736FA4EF13F0D8906B3740
:102738006C376D376E376F37703771377237732B69
:1027480072AFA9EF13F0ABEF13F09AEF13F06B51E0
:10275800635D6C5164596D5165596E5166596F517D
:102768006759705168597151695972516A59D8A09D
:10277800C0EF13F0C2EF13F0D2EF13F06B51635FA9
:102788006C51645B6D51655B6E51665B6F51675B45
:102798007051685B7151695B72516A5BD890723392
:1027A800713370336F336E336D336C336B33732F18
:1027B800ABEF13F063C063F064C064F065C065F00C
:1027C80066C066F067C067F068C068F069C069F005
:1027D8006AC06AF01200000165516611D8B4F7EFBB
:1027E80013F0F9EF13F002EF14F065516611D8A455
:1027F80000EF14F002EF14F007EF14F0635128EC27
:1028080019F054EF14F020EE09F06551D9266651FD
:10281800DA22DE50DE10D8B414EF14F016EF14F0FC
:1028280031EF14F020EE09F06551D9266651DA220D
:1028380010EE03F06551E1266651E222DE50E65CB7
:10284800E650800A6B6FDE50800A6B59D8B02FEFC4
:1028580014F031EF14F054EF14F020EE03F065514A
:10286800D9266651DA22DECF67F0DDCF68F065C081
:10287800D9FF66C0DAFFDECF69F0DDCF6AF06751B5
:102888006925D96E68516A21DA6E63C0DFFF20EED0
:1028980003F06551D9266651DA22DE2A000EDD22C0
:1028A800120048C020F0FD0E2016D8A45EEF14F0E8
:1028B80060EF14F0A2EF14F048C020F0D890203256
:1028C8003F0E20162050040D000EF324366E040E21
:1028D800F420376E36C034F037C035F0040E3418A3
:1028E800346E3550356E36C0D9FF37C0DAFFDF3069
:1028F800E8320F0B0D0AD8A484EF14F086EF14F019
:102908009EEF14F0200E016E040E026E20EE02F00F
:102918003650D9263750DA22DECF03F0DDCF04F067
:10292800000E066E080E056E89EC17F00BEC16F01B
:10293800AEEF14F0CDEC16F0AEEF14F04850FD0BEE
:10294800040AD8A4AAEF14F0ACEF14F0AEEF14F018
:1029580090EC10F01200000E3B6E000E3A6E020E64
:102968004318D8A4BAEF14F0BCEF14F0DCEF14F05D
:1029780020EE01F03450D9263550DA22080EDF6EE9
:1029880020EE02F03450D9263550DA22280EDE6EB9
:10299800040EDD6E34C0D9FF35C0DAFF480EDF6E95
:1029A80034C0D9FF35C0DAFF000EDB8E08EF15F012
:1029B8000001DD510401265D0001DE5104012759A3
:1029C800D8B0E9EF14F0EBEF14F0EFEF14F026C4F1
:1029D800DDF027C4DEF018EC11F0000120EE02F063
:1029E800E351D926E451DA22280EDE6E040EDD6E9C
:1029F800E3C0D9FFE4C0DAFF480EDF6EE3C0D9FFB9
:102A0800E4C0DAFF000EDB8E1200086E000E096EBD
:102A1800040E0A6E0150026E036AD890023603361D
:102A28000850046E056AD89004360536D8900436E6
:102A3800053602500424066E03500520076ED89010
:102A480006360736D8900636073606500926075048
:102A58000A2209C0D9FF0AC0DAFFDF9E0150D8A4B4
:102A680038EF15F03AEF15F048EF15F00850020D61
:102A7800E70EF324D96E000EF420DA6E09C0DEFFEB
:102A88000AC0DDFF54EF15F00850020DE30EF324E1
:102A9800D96E000EF420DA6E09C0DEFF0AC0DDFF31
:102AA80009C0D9FF0AC0DAFFDF9C20EE04F0095004
:102AB800D9260A50DA22DF8C120082EF15F0D8EC02
:102AC80018F0B7EF15F02CEC19F0B7EF15F025EC6E
:102AD80019F0B7EF15F029EC19F0B7EF15F02BEC5A
:102AE80019F0B7EF15F02AEC19F0B7EF15F02DEC47
:102AF80019F0B7EF15F000F0B7EF15F00FC015F0AB
:102B080010C016F01650000AD8B491EF15F07F0ADD
:102B1800D8B4B0EF15F0B7EF15F01550010AD8B4D6
:102B280063EF15F0030AD8B467EF15F0010AD8B4BB
:102B38006BEF15F0710AD8B47FEF15F0010AD8B41D
:102B48006FEF15F0070AD8B477EF15F0010AD8B47B
:102B580073EF15F0B7EF15F01550FF0AD8B47BEFF7
:102B680015F0B7EF15F01200000E00016B6F000EA4
:102B78006C6F000E6D6F000E6E6F675168116911F2
:102B88006A11D8B4CAEF15F0CCEF15F002EF16F0C1
:102B9800010E6F6FD6EF15F0D89067376837693731
:102BA8006A376F2B6AAFDBEF15F0DDEF15F0D0EF6A
:102BB80015F0D8906B376C376D376E376751635D9A
:102BC80068516459695165596A516659D8A0EFEF3F
:102BD80015F0F1EF15F0FAEF15F06751635F6851E2
:102BE800645B6951655B6A51665B6B81D8906A3337
:102BF8006933683367336F2FDDEF15F06BC063F00F
:102C08006CC064F06DC065F06EC066F01200000E16
:102C1800446E000E3E6E000E3B6E000E3A6E000EC5
:102C2800406E000E436EE3C0D9FFE4C0DAFF7F0EAA
:102C3800DF16040E0001E319E36FE451E46FE3C00B
:102C4800D9FFE4C0DAFF7F0EDF16040EE319E36F45
:102C5800E451E46F34C0D9FF35C0DAFF7F0EDF16C8
:102C6800000EDC6F000EDE6F000EDD6F000ED46FFD
:102C7800000ED66F000ED56F00EC10F0000E106E2F
:102C8800030E0F6E000E116E000E126E000E146E03
:102C9800000E136E61EC15F02FEC0EF0120000011F
:102CA80078BF59EF16F05BEF16F061EF16F077C0BA
:102CB8007CF078C07DF065EF16F0000E7D6F000E99
:102CC8007C6F000E7B6F000E7A6F78EF16F0000EA7
:102CD800646F200E636F73C065F074C066F0EFEC2C
:102CE80013F000017A4B7B2B7C517A5D7B51800A73
:102CF800796F7D51800A7959D8A085EF16F087EF52
:102D080016F06BEF16F075C06CF076C06DF073C0FE
:102D18006EF074C06FF0D7EC17F01200ABA297EF0B
:102D280016F099EF16F09BEF16F0AB98AB88ABA4B2
:102D3800A0EF16F0A2EF16F0A3EF16F0AE50AECF4C
:102D480003F0010E3024016E000E3120026EFF0EDA
:102D58000114046E010E0214056E2E50041809E1C8
:102D68002F500518D8B4BBEF16F0BDEF16F0CBEF17
:102D780016F0D70E3024D96E010E3120DA6E03C05A
:102D8800DFFF04C030F005C031F0CCEF16F0AE50D4
:102D98001200020E4318D8A4D4EF16F0D6EF16F09E
:102DA800DAEF16F0ECEC0CF006EF17F0000E436EBD
:102DB8004050D8A4E2EF16F0E4EF16F004EF17F055
:102DC80020EE01F03450D9263550DA22080EDF6E95
:102DD80020EE02F03450D9263550DA22200EDE6E6D
:102DE800040EDD6E34C0D9FF35C0DAFF0C0EDF6E7D
:102DF80034C0D9FF35C0DAFF000EDB8E06EF17F0BE
:102E0800000E406E120070A00CEF17F00EEF17F0D6
:102E180035EF17F036C0D9FF37C0DAFF800EDE185D
:102E2800D8A419EF17F01BEF17F034EF17F0E3C031
:102E3800D9FFE4C0DAFF840EDE18D8A426EF17F015
:102E480028EF17F034EF17F036C0D9FF37C0DAFF94
:102E58000C0EDF6E36C0D9FF37C0DAFF000EDB8EEE
:102E68007090689A1200BE0E0001C26F000EC36F08
:102E7800BAC0C4F0BBC0C5F0000EC86F000EC76F63
:102E8800000ECE6F000ECD6FC40EB26F000EB36F82
:102E9800BCC0B4F0BDC0B5F0C20EB66F000EB76FBF
:102EA80060EC17F00001C751BA25D96EC851BB2193
:102EB800DA6E000EDF6E1200B4C0B8F0B5C0B9F01B
:102EC80075EF17F0B2C09EF0B3C09FF0B80E0001C6
:102ED800A06F000EA16FB6C0A2F0B7C0A3F03BEC84
:102EE8000AF0B8C0F6FFB9C0F7FF0800F5500009AE
:102EF800D8A481EF17F083EF17F066EF17F0000EF4
:102F08000001B36F000EB26F120003C009F004C0D5
:102F18000AF001C007F002C008F0A3EF17F009C0DB
:102F2800D9FF0AC0DAFFDF500B6E094A0A2A07C028
:102F3800D9FF08C0DAFF0BC0DFFF074A082A0506D9
:102F4800D8A00606052806E10628D8A4AEEF17F093
:102F5800B0EF17F093EF17F012000E6E0BA4B7EF57
:102F680017F0B9EF17F0BEEF17F0000E016E0E5014
:102F780009EC15F00BA2C3EF17F0C5EF17F0CAEF75
:102F880017F0010E016E0E5009EC15F0700E0E24AC
:102F98000C6E0D6A0F0E0D220CC0D9FF0DC0DAFFA2
:102FA8000BC0DFFF1200000E0001726F000E716F80
:102FB800EAEF17F070C063F0646B6EC065F06FC025
:102FC80066F0EFEC13F00001714B722B71516C2518
:102FD800D96E72516D21DA6EDF50706F7051D8A4BE
:102FE800F8EF17F0FAEF17F0DEEF17F0120001EE26
:102FF800D7F012EE00F0EE6AE550E150FCE1E25045
:10300800FAE101EE70F0670EEE6AE806FDE100EE07
:10301800D1F0250EEE6AE806FDE100EE2EF01D0E59
:10302800EE6AE806FDE14B904B92000EF86E000147
:1030380034EF00F0000E0001F56F000E106E740EF4
:103048000F6E000E116E000E126E000E146E000E42
:10305800136E61EC15F06D92699434EF18F0689472
:1030680068B439EF18F03BEF18F033EF18F0000EA2
:103078000001F46F12004CEF18F065C0F6FF66C04F
:10308800F7FF0800F5505BEC18F00001654B662B64
:1030980065C0F6FF66C0F7FF0800F5500009D8A420
:1030A80058EF18F05AEF18F041EF18F0120000012D
:1030B800636F39283F0B0001646F38506419D8B426
:1030C80068EF18F06AEF18F061EF18F0700E392405
:1030D800D96EDA6A010EDA2263C0DFFF64C039F004
:1030E8009D881200010E0001DF27000EE023E12376
:1030F800E223F551D8A483EF18F085EF18F08FEF8D
:1031080018F0F42BF451D8A48CEF18F08EEF18F0C7
:103118008FEF18F0F46912009CEF18F065C0D9FF22
:1031280066C0DAFFDF505BEC18F00001654B662BD8
:1031380065C0D9FF66C0DAFFDF50D8A4A6EF18F043
:10314800A8EF18F092EF18F01200700E3824D96E1C
:10315800DA6A010EDA22DF50016E38283F0B386E2A
:1031680001C0ADFF38503918D8A4BDEF18F0BFEF33
:1031780018F0C0EF18F09D981200698468986D8265
:10318800010E0001F56F000EF46F000E106E750E43
:103198000F6E000E116E000E126E000E146E000EF1
:1031A800136E61EC15F012001E0E0B6E010EB1ECE1
:1031B80017F0000E016E000E026E050E036E400E33
:1031C800046E010ED0EC0EF001C0B2F102C0B3F1F2
:1031D8001200C20ED76EF70ED66E870ED56EF1941A
:1031E800F294F28A1200FA0ECF6E250ECE6EB10E50
:1031F800CD6E9F809E909D801200000E0101B26FDF
:10320800000EB36F000EB06F000EB16F12000F0EFC
:10321800C11292928992928896941200F28EF28E3E
:10322800F28CF28CF28CD08E12009EEC0BF001EC3A
:1032380019F01200F294D58EF28A1200F28EF28CF6
:10324800120084EC09F012001200120012001200A1
:04325800120012004E
:107DEC0000AF7EF57D297E577E34034D006900631C
:107DFC000072006F0063006800690070002000547E
:107E0C00006500630068006E006F006C006F006717
:107E1C00007900200049006E0063002E002E0353F1
:107E2C000069006D0070006C00650020004800497E
:107E3C000044002000440065007600690063006582
:107E4C00002000440065006D006F0009022900014C
:107E5C000100C032090400000203000000092111D6
:107E6C00010001221D0007058103400001070501E7
:107E7C00034000010600FF0901A101190129401569
:107E8C000026FF00750895408100190129409100DA
:107E9C00C01201000200000008D8043F00000101DC
:107EAC00020001040309046D546F7563682063615B
:107EBC006C6C6962726174696F6E20636F6D6D6159
:107ECC006E64005265616420427574746F6E20425A
:107EDC00726F7468657220312E2E2E2E00526561E1
:107EEC006420427574746F6E2042726F7468657290
:107EFC0020322E2E2E2E0052656164204275747431
:107F0C006F6E2042726F7468657220332E2E2E2E87
:107F1C00005265616420427574746F6E2042726FFA
:107F2C007468657220342E2E2E2E0048656C6C6F92
:107F3C0020576F726C642066726F6D20504943310C
:107F4C00380D0A004974206973207A65726F2062BB
:107F5C00726F746865722E2E2E0D0A00424D4131DF
:107F6C0035305F52454720726567545F4D53422E42
:107F7C002E2E00424D413135305F524547207265FF
:107F8C0067585F4D53422E2E2E00424D41313530F5
:107F9C005F52454720726567595F4D53422E2E2E16
:107FAC0000424D413135305F524547207265675A6A
:107FBC005F4D53422E2E2E00526561642041444386
:107FCC0020566F6C7461676500636E742025752094
:107FDC0069732025750D0A0048656C6C6F20576F0E
:107FEC00726C640D0A00496E76616C69642E2E2EDB
:047FFC000D0A00006A
:020000040020DA
:08000000FFFFFFFFFFFFFFFF00
:020000040030CA
:0E000000220E3F1FFF0181FF0FC00FE00F40D7
:00000001FF
