:0400000032EF00F0EB
:060008005F82BFEF13F060
:100018005F80D8CF00F2E8CF01F2E0CF02F2F2AA77
:1000280018EF00F01AEF00F02AEF00F0F2A41FEF2B
:1000380000F021EF00F02AEF00F0C20ED76EF70EA5
:10004800D66E8972010E0201806FF29402C2E0FF3F
:1000580001C2E8FF00C2D8FF5F90100058EF1BF004
:1000680060EC1DF042EC1DF067EC1DF073EC1DF028
:100078004CEC1DF077EC1DF06EEC1DF0F29E010EBD
:100088000001976FF28E000E0201106FC20E116F01
:10009800010E126F27EC08F0E30E0201056F7F0EC8
:1000A800066F7BEC1CF0040080B85DEF00F05FEF9A
:1000B80000F07CEF00F0020E02017A6F380E796FC3
:1000C800AD0EE82EFED7792FFCD77A2FFAD780B855
:1000D80070EF00F072EF00F07FEF00F080A877EF8C
:1000E80000F079EF00F072EF00F0FF007FEF00F012
:1000F800000E0201816F1F0E0201826586EF00F07B
:1001080088EF00F057EF00F06DA28DEF00F08FEF51
:1001180000F091EF00F057EF00F07B517C11D8B45C
:1001280098EF00F09AEF00F0A5EF00F07BC2D9FF3E
:100138007CC2DAFFDFBEA3EF00F0A5EF00F0EAEF24
:1001480000F08005D8A4ABEF00F0ADEF00F0EAEFC7
:1001580000F0000E05016E6F700E6E25D96EDA6A1A
:10016800040EDA22230EDF6E6E2B3F0E6E65BFEF94
:1001780000F0C1EF00F0B0EF00F0010E0201716F66
:10018800700E726F040E736F400E746F010E05ECE3
:1001980009F071C27BF272C27CF202017B517C11C0
:1001A800D8A4D9EF00F0DBEF00F0E1EF00F04F0E3C
:1001B800056F7F0E066F7BEC1CF0000E0201806F4E
:1001C800E30E056F7F0E066F7BEC1CF002017D517C
:1001D8007E11D8B4F2EF00F0F4EF00F02FEF03F047
:1001E8007DC2D9FF7EC2DAFFDFBEFDEF00F0FFEF70
:1001F80000F057EF00F02FEF03F0CB0E056F7E0EE7
:10020800066F7BEC1CF066EF03F0C30E056F7F0EE4
:10021800066F7BEC1CF002017B517C11D8B417EF00
:1002280001F019EF01F024EF01F07BC2D9FF7CC285
:10023800DAFFDFBE22EF01F024EF01F066EF03F0F2
:10024800C250C30B1009C26E9E9CC2829EAC2FEF97
:1002580001F031EF01F02AEF01F0C3CF6CF5C4CF04
:100268006DF5200E0401706F6CC571F405016D51B8
:100278000401726F010E0201716F700E726F040E2D
:10028800736F400E746F010E05EC09F071C27BF2BA
:1002980072C27CF266EF03F0E70E056F7E0E066F02
:1002A8007BEC1CF002017B517C11D8B45EEF01F0AD
:1002B80060EF01F06BEF01F07BC2D9FF7CC2DAFF7F
:1002C800DFBE69EF01F06BEF01F066EF03F0300E6F
:1002D8000401706F64C571F4050165510401726F02
:1002E800010E0201716F700E726F040E736F400E73
:1002F800746F010E05EC09F071C27BF272C27CF2D8
:1003080066EF03F0010E056F7F0E066F7BEC1CF0A5
:1003180002017B517C11D8B494EF01F096EF01F003
:10032800A1EF01F07BC2D9FF7CC2DAFFDFBE9FEFED
:1003380001F0A1EF01F066EF03F0310E0401706FD8
:1003480066C571F4050167510401726F010E02015F
:10035800716F700E726F040E736F400E746F010E22
:1003680005EC09F071C27BF272C27CF266EF03F011
:100378001B0E056F7F0E066F7BEC1CF002017B5194
:100388007C11D8B4CAEF01F0CCEF01F0D7EF01F03F
:100398007BC2D9FF7CC2DAFFDFBED5EF01F0D7EF11
:1003A80001F066EF03F0320E0401706F68C571F456
:1003B800050169510401726F010E0201716F700E1F
:1003C800726F040E736F400E746F010E05EC09F026
:1003D80071C27BF272C27CF266EF03F0350E056FD4
:1003E8007F0E066F7BEC1CF002017B517C11D8B4A8
:1003F80000EF02F002EF02F00DEF02F07BC2D9FF2E
:100408007CC2DAFFDFBE0BEF02F00DEF02F066EF01
:1004180003F0330E0401706F6AC571F405016B5166
:100428000401726F010E0201716F700E726F040E7B
:10043800736F400E746F010E05EC09F071C27BF208
:1004480072C27CF266EF03F07E0E056F7F0E066FB8
:100458007BEC1CF002017B517C11D8B436EF02F022
:1004680038EF02F043EF02F07BC2D9FF7CC2DAFF1B
:10047800DFBE41EF02F043EF02F066EF03F0400EFB
:100488000401706F000E716F010E726F010E020190
:10049800716F700E726F040E736F400E746F010EE1
:1004A80005EC09F071C27BF272C27CF266EF03F0D0
:1004B800950E056F7F0E066F7BEC1CF002017B51D9
:1004C8007C11D8B46AEF02F06CEF02F077EF02F01B
:1004D8007BC2D9FF7CC2DAFFDFBE75EF02F077EF8F
:1004E80002F066EF03F0410E0401706F000E716FA9
:1004F800010E726F010E0201716F700E726F040EA1
:10050800736F400E746F010E05EC09F071C27BF237
:1005180072C27CF266EF03F0AC0E056F7F0E066FB9
:100528007BEC1CF002017B517C11D8B49EEF02F0E9
:10053800A0EF02F0ABEF02F07BC2D9FF7CC2DAFF7A
:10054800DFBEA9EF02F0ABEF02F066EF03F0420E58
:100558000401706F060E716F080E726F010E0201B2
:10056800716F700E726F040E736F400E746F010E10
:1005780005EC09F071C27BF272C27CF266EF03F0FF
:10058800670E056F7F0E066F7BEC1CF002017B5136
:100598007C11D8B4D2EF02F0D4EF02F0DFEF02F012
:1005A8007BC2D9FF7CC2DAFFDFBEDDEF02F0DFEFEE
:1005B80002F066EF03F0430E0401706F050E716FD1
:1005C800010E0201716F700E726F040E736F400E90
:1005D800746F010E05EC09F071C27BF272C27CF2F5
:1005E80066EF03F0F10E056F7F0E066F7BEC1CF0D3
:1005F800000E05016F6F3F0E6F6505EF03F007EF03
:1006080003F009EF03F066EF03F0000E02015A6FE2
:10061800050E5B6FD40E5C6F7F0E5D6F6FC55EF26B
:100628005F6BB00E05016F25D96EDA6A040EDA2207
:10063800DF500201796F7951606F616BDDEC1AF060
:10064800000E0201056F050E066FCCEC1CF00501CB
:100658006F2BFFEF02F00401B0510201796F7A6B42
:100668007A51000AD8B43BEF03F0F6EF02F0795163
:10067800200AD8B409EF01F0100AD8B450EF01F0FD
:10068800010AD8B486EF01F0030AD8B4BCEF01F030
:10069800010AD8B4F2EF01F0730AD8B428EF02F0D7
:1006A800010AD8B45CEF02F0030AD8B490EF02F064
:1006B800010AD8B4C4EF02F0C30AD8B401EF01F0BC
:1006C800F6EF02F0000E0201716FB00E726F040EA9
:1006D800736F400E746F010E05EC09F071C27DF264
:1006E80072C27EF257EF00F032EF00F004012205EB
:1006F800D8A481EF03F083EF03F0A1EF03F02051BA
:100708001F0B0009D8A48BEF03F08DEF03F0A1EFC6
:1007180003F000016B8F030E04012119D8A497EF91
:1007280003F099EF03F09EEF03F0010E0001946FC0
:10073800A1EF03F0000E0001946F04012251D8A428
:10074800A8EF03F0AAEF03F03BEF05F020511F0BD1
:10075800020AD8A4B2EF03F0B4EF03F03BEF05F0C0
:1007680024510F0B0009D8B4BCEF03F0BEEF03F01F
:100778003BEF05F024510F0B0001BE6F020EBE6166
:10078800C8EF03F0CAEF03F03BEF05F0200E0201BB
:100798008219D8A4D2EF03F0D4EF03F03BEF05F0B1
:1007A80000016B8F040124BFDCEF03F0DEEF03F0E0
:1007B800FEEF03F024510F0B0001BE6FBE51020D76
:1007C800720EF324D96E000EF420DA6EDECFC3F079
:1007D800DDCFC4F0040124510F0B0001BE6FBF6BC5
:1007E8007E0EBE25D96E000EBF21DA6EDF50C26FB5
:1007F8001CEF04F024510F0B0001BE6FBE51020D17
:100808006E0EF324D96E000EF420DA6EDECFC3F03C
:10081800DDCFC4F0040124510F0B0001BE6FBF6B84
:10082800800EBE25D96E000EBF21DA6EDF50C26F72
:10083800C2B121EF04F023EF04F02BEF04F0FB0E1C
:10084800C315C36FFF0EC415C46F30EF04F0040E58
:10085800C311C36FC451C46F040124BF36EF04F041
:1008680038EF04F04AEF04F024510F0B0001BE6F7B
:10087800BE51020D720EF324D96E000EF420DA6E0A
:10088800C3C0DEFFC4C0DDFF5AEF04F024510F0BD4
:100898000001BE6FBE51020D6E0EF324D96E000E1C
:1008A800F420DA6EC3C0DEFFC4C0DDFF030E04010E
:1008B8002119D8A462EF04F064EF04F0A0EF04F06B
:1008C800C3C0D9FFC4C0DAFF0001DFAE6EEF04F089
:1008D80070EF04F092EF04F0040124BF76EF04F007
:1008E80078EF04F086EF04F024510F0B0001BE6F7F
:1008F800BF6B7E0EBE25D96E000EBF21DA6EDF8279
:1009080092EF04F024510F0B0001BE6FBF6B800EF5
:10091800BE25D96E000EBF21DA6EDF82C3C0D9FFB3
:10092800C4C0DAFF000EDB84C3C0D9FFC4C0DAFF3D
:10093800000EDB8E3BEF05F0040E0001C319C36FF8
:10094800C451C46FC3C0D9FFC4C0DAFFDFAEAFEF74
:1009580004F0B1EF04F0CDEF04F0C3C0D9FFC4C078
:10096800DAFF7F0EDF16C3C0D9FFC4C0DAFF000E5E
:10097800DB8C000EB96F050EB86FC3C0BAF0C4C0E7
:10098800BBF0000EBD6F020EBC6FC7EC18F0D3EFC2
:1009980004F0C3C0D9FFC4C0DAFF000EDB8C040E1C
:1009A8000001C319C36FC451C46FC2B3DEEF04F0B2
:1009B800E0EF04F0EBEF04F0C3C0D9FFC4C0DAFFE6
:1009C800DFAEE9EF04F0EBEF04F023EF05F00401EC
:1009D80024BFF1EF04F0F3EF04F001EF05F0245128
:1009E8000F0B0001BE6FBF6B7E0EBE25D96E000EC9
:1009F800BF21DA6EDF920DEF05F024510F0B0001D5
:100A0800BE6FBF6B800EBE25D96E000EBF21DA6E99
:100A1800DF92C3C0D9FFC4C0DAFF3B0EDF16000E59
:100A2800B96F050EB86FC3C0BAF0C4C0BBF0000EF2
:100A3800BD6F020EBC6FC7EC18F029EF05F0C3C0FC
:100A4800D9FFC4C0DAFF3B0EDF16040124510F0B97
:100A58000001BE6FBF6B700EBE25C06F0F0EBF21A9
:100A6800C16FC0C0D9FFC1C0DAFFFE0EDF16120089
:100A780002018251D8A443EF05F045EF05F05CEF81
:100A880005F0000E6D6E000E696E160E6F6E9F0EED
:100A98006B6E7B0E696E52EF05F06D866DA657EF93
:100AA80005F059EF05F051EF05F0010E0201826FD4
:100AB8008205D8A462EF05F064EF05F073EF05F046
:100AC8006DBA69EF05F06BEF05F073EF05F0000EF6
:100AD800686E000E696E69806988020E826F68A46C
:100AE80078EF05F07AEF05F084EF05F069A47FEF61
:100AF80005F081EF05F084EF05F068943BEC1CF0FD
:100B08006DA289EF05F08BEF05F08EEF05F0A19A45
:100B180061EF06F068A093EF05F095EF05F0A2EFFE
:100B280005F069A09AEF05F09CEF05F0A2EF05F03B
:100B38009FEC0FF0040E0201826F689068A8A7EF7F
:100B480005F0A9EF05F0B2EF05F069A8AEEF05F0E2
:100B5800B0EF05F0B2EF05F016EC1DF068ACB7EF9A
:100B680005F0B9EF05F0D2EF05F069ACBEEF05F07E
:100B7800C0EF05F0CFEF05F0000E0001B96F730E5E
:100B8800B86F000EBA6F000EBB6F000EBD6F010E7E
:100B9800BC6FC7EC18F0689C97EC1CF068AAD7EFFC
:100BA80005F0D9EF05F0E2EF05F069AADEEF05F0F0
:100BB800E0EF05F0E2EF05F0ADEC1AF068A2E7EF20
:100BC80005F0E9EF05F000EF06F069A2EEEF05F099
:100BD800F0EF05F000EF06F07F0E0001B96FB8697D
:100BE800000EBA6F000EBB6F000EBD6F010EBC6F1A
:100BF800C7EC18F0000E6A6E040E0201826107EF5E
:100C080006F009EF06F00CEF06F0A19A61EF06F086
:100C180069A611EF06F013EF06F060EF06F0000E7C
:100C28000001C86F68A61BEF06F01DEF06F060EF25
:100C380006F06CCF9AF09A31E832E8320F0B926FD7
:100C480068969AB52AEF06F02CEF06F035EF06F015
:100C58007E0E9225D96EDA6A000EDA22DF703CEF3A
:100C680006F0800E9225D96EDA6A000EDA22DF705D
:100C78009251D8A442EF06F044EF06F048EF06F090
:100C8800BAEC17F056EF06F0000EB96F720EB86F97
:100C98009A0EBA6F000EBB6F000EBD6F000EBC6FD0
:100CA800C7EC18F00001C82B030EC8655EEF06F00C
:100CB80060EF06F016EF06F0A19A1200000179BF66
:100CC80070EF06F0795106E17805D8B06EEF06F0BE
:100CD80070EF06F077EF06F0000E0201336F010E99
:100CE800326F7BEF06F078C032F279C033F276C00B
:100CF80030F277C031F220C234F221C235F222C27A
:100D080036F223C237F224C238F225C239F226C29B
:100D18003AF227C23BF2000E02013D6F1F0E3C6FF4
:100D2800000EA26F0FEF07F03C07D8A03D07830E17
:100D38003C25D96E020E3D21DA6E34C203F235C26B
:100D480004F236C205F237C206F238C207F239C2D7
:100D580008F23AC209F23BC20AF20A0E0B6F000E01
:100D68000C6F000E0D6F000E0E6F000E0F6F000E51
:100D7800106F000E116F000E126F1EEC16F003C2FA
:100D880028F204C229F205C22AF206C22BF207C2CF
:100D98002CF208C22DF209C22EF20AC22FF2020169
:100DA8002851300FDF6E3207D8A033073007D8A09C
:100DB800310734C203F235C204F236C205F237C233
:100DC80006F238C207F239C208F23AC209F23BC247
:100DD8000AF20A0E0B6F000E0C6F000E0D6F000E5C
:100DE8000E6F000E0F6F000E106F000E116F000EC9
:100DF800126F3DEC14F003C234F204C235F205C29E
:100E080036F206C237F207C238F208C239F209C20E
:100E18003AF20AC23BF202013C513D11D8B417EF35
:100E280007F019EF07F035EF07F034513511361197
:100E38003711381139113A113B11D8A426EF07F0B0
:100E480028EF07F098EF06F033BF35EF07F033517E
:100E580006E13205D8B033EF07F035EF07F098EF29
:100E680006F01EC213F21FC214F2830E3C25156F42
:100E7800020E3D21166F30C217F231C218F2BAECD9
:100E880019F01200000179BF54EF07F0795106E11B
:100E98007805D8B052EF07F054EF07F05AEF07F093
:100EA800000E316E010E306E5EEF07F078C030F044
:100EB80079C031F076C02EF077C02FF01EC032F026
:100EC8001FC033F020C034F021C035F022C036F006
:100ED80023C037F024C038F025C039F0000E3B6E2F
:100EE8001F0E3A6E000E0201A26FF1EF07F03A06EC
:100EF800D8A03B06830E3A24D96E020E3B20DA6E48
:100F080032C001F033C002F034C003F035C004F041
:100F180036C005F037C006F038C007F039C008F011
:100F28000A0E096E000E0A6E000E0B6E000E0C6E95
:100F3800000E0D6E000E0E6E000E0F6E000E106E7F
:100F480087EC16F001C026F002C027F003C028F095
:100F580004C029F005C02AF006C02BF007C02CF009
:100F680008C02DF02650300FDF6E3006D8A03106AD
:100F78002E06D8A02F0632C001F033C002F034C0CC
:100F880003F035C004F036C005F037C006F038C0AD
:100F980007F039C008F00A0E096E000E0A6E000E3E
:100FA8000B6E000E0C6E000E0D6E000E0E6E000E17
:100FB8000F6E000E106E2FEC15F001C032F002C05B
:100FC80033F003C034F004C035F005C036F006C075
:100FD80037F007C038F008C039F03A503B10D8B4A1
:100FE800F8EF07F0FAEF07F016EF08F03250331079
:100FF800341035103610371038103910D8A407EFD0
:1010080008F009EF08F07BEF07F031BE16EF08F0A3
:10101800315006E13004D8B014EF08F016EF08F0AC
:101028007BEF07F01CC011F01DC012F0830E3A24AC
:10103800136E020E3B20146E2EC015F02FC016F052
:10104800F9EC19F01200000E00017D6F000E7C6FA4
:10105800000E7B6F000E7A6F000E896F000E886F8E
:10106800240EAC6E080EB86EACB83DEF08F03FEF3A
:1010780008F077EF08F0B8B644EF08F046EF08F04C
:1010880077EF08F0ACB44BEF08F04DEF08F077EFCE
:1010980008F0000E0201036F6C0E046FDC0E056F82
:1010A800020E066F060E136F10C214F211C215F26B
:1010B80012C216F2132965EF08F0D89014371537C5
:1010C8001637E82E61EF08F002011451076F155129
:1010D800086F1651096F0A6B1EEC19F0020103051F
:1010E800AF6EFFEF08F0ACB87CEF08F07EEF08F0C9
:1010F800BDEF08F0B8B683EF08F085EF08F0BDEF54
:1011080008F0ACA48AEF08F08CEF08F0BDEF08F007
:10111800000E0201036F6C0E046FDC0E056F020EE9
:10112800066F040E136F10C214F211C215F212C228
:1011380016F21329A4EF08F0D8901437153716378C
:10114800E82EA0EF08F002011451076F1551086F3F
:101158001651096F0A6B1EEC19F0FF0E02010327E6
:101168000351176F186B1851B06E17C2AFFFFFEF1E
:1011780008F0ACB8C2EF08F0C4EF08F0FFEF08F0D1
:10118800B8A6C9EF08F0CBEF08F0FFEF08F0ACA461
:10119800D0EF08F0D2EF08F0FFEF08F0000E0201E0
:1011A800036F6C0E046FDC0E056F020E066F020EE5
:1011B800136F10C214F211C215F212C216F21329DB
:1011C800EAEF08F0D890143715371637E82EE6EF0F
:1011D80008F002011451076F1551086F1651096F75
:1011E8000A6B1EEC19F0FF0E020103270351176F5B
:1011F800186BB7EF08F0900EAB6E9D8A9F8A9F8898
:1012080012000301C86F02017151D8B40EEF09F042
:1012180010EF09F01FEF09F00301C851020D6E0E1F
:10122800F324D96E000EF420DA6EDECFC9F3DDCFD9
:10123800CAF32CEF09F00301C851020D720EF32412
:10124800D96E000EF420DA6EDECFC9F3DDCFCAF313
:10125800C951CA11D8A433EF09F035EF09F03CEFB2
:1012680009F0000E0201716F000E726FDCEF09F0D9
:1012780020EE02F0C951D926CA51DA2272C2DEFF25
:1012880073C2DDFF20EE01F0C951D926CA51DA2216
:1012980074C2DFFFC9C3D9FFCAC3DAFF400EDF1625
:1012A800C9C3D9FFCAC3DAFF000EDB86C9C3D9FF99
:1012B800CAC3DAFF000EDB8E02017151D8B467EFA2
:1012C80009F069EF09F0B8EF09F00301C851020D00
:1012D8006E0EF324D96E000EF420DA6EDECF75F2AE
:1012E800DDCF76F2040E02017519776F7651786FAB
:1012F8000301C851020D6E0EF324D96E000EF420BE
:10130800DA6E77C2DEFF78C2DDFF000E02015A6F87
:10131800030E5B6F830E5C6F7E0E5D6F030120EE24
:1013280002F0C951D926CA51DA22DECF5EF2DDCFEA
:101338005FF220EE01F0C951D926CA51DA22DF50F6
:101348000201756F7551606F616B72C262F273C290
:1013580063F2DDEC1AF0000E0201056F030E066F52
:10136800CCEC1CF0D8EF09F00301C851020D720E45
:10137800F324D96E000EF420DA6EDECF75F2DDCFDD
:1013880076F2040E02017519776F7651786F0301B2
:10139800C851020D720EF324D96E000EF420DA6ED5
:1013A80077C2DEFF78C2DDFFC9C371F2CAC372F229
:1013B80012000101C86F5850D8B4E5EF09F0E7EF03
:1013C80009F0F6EF09F00101C851020D6E0EF32481
:1013D800D96E000EF420DA6EDECFC9F1DDCFCAF186
:1013E80003EF0AF00101C851020D720EF324D96E01
:1013F800000EF420DA6EDECFC9F1DDCFCAF1C95193
:10140800CA11D8A40AEF0AF00CEF0AF012EF0AF09A
:10141800000E586E000E596EAEEF0AF020EE02F084
:10142800C951D926CA51DA2259C0DEFF5AC0DDFF98
:1014380020EE01F0C951D926CA51DA225BC0DFFF7C
:10144800C9C1D9FFCAC1DAFF400EDF16C9C1D9FF29
:10145800CAC1DAFF000EDB86C9C1D9FFCAC1DAFFEB
:10146800000EDB8E5850D8B43CEF0AF03EEF0AF07D
:101478008BEF0AF0C851020D6E0EF324D96E000EE0
:10148800F420DA6EDECFB4F0DDCFB5F0040E000143
:10149800B419B66FB551B76F0101C851020D6E0E80
:1014A800F324D96E000EF420DA6EB6C0DEFFB7C0A2
:1014B800DDFF000E00019D6F010E9E6F830E9F6F72
:1014C8007E0EA06F010120EE02F0C951D926CA5143
:1014D800DA22DECFA1F0DDCFA2F020EE01F0C95173
:1014E800D926CA51DA22DF500001B46FB451A36F74
:1014F800A46B59C0A5F05AC0A6F02FEC1BF0000E43
:10150800036E010E046EFEEC1CF0AAEF0AF0C8513F
:10151800020D720EF324D96E000EF420DA6EDECFBF
:10152800B4F0DDCFB5F0040E0001B419B66FB551B3
:10153800B76F0101C851020D720EF324D96E000E67
:10154800F420DA6EB6C0DEFFB7C0DDFFC9C158F0BF
:10155800CAC159F0120003C20DF204C20EF2020110
:1015680007510811D8A4BBEF0AF0BDEF0AF0BFEF8E
:101578000AF06AEF0BF00DC2D9FF0EC2DAFF05C2FE
:10158800DFFF07510D25096F08510E210A6FFF0E65
:101598000925D96EFF0E0A21DA6E05C2DFFF085150
:1015A80007E1030E075DD8B0DCEF0AF0DEEF0AF0C2
:1015B800E0EF0AF06AEF0BF020EE01F00D51D926AA
:1015C8000E51DA2205C2DFFF20EE02F00D51D926B6
:1015D8000E51DA2205C2DFFF07510D25096F0851A8
:1015E8000E210A6FFE0E0925D96EFF0E0A21DA6E4A
:1015F80005C2DFFF07510D25096F08510E210A6F3B
:10160800FD0E0925D96EFF0E0A21DA6E05C2DFFF2D
:10161800085107E1070E075DD8B015EF0BF017EF7B
:101628000BF019EF0BF06AEF0BF020EE03F00D5101
:10163800D9260E51DA2205C2DFFF07510D25096FA1
:1016480008510E210A6FFC0E0925D96EFF0E0A21DA
:10165800DA6E05C2DFFF085107E1090E075DD8B051
:1016680038EF0BF03AEF0BF03CEF0BF06AEF0BF0B2
:101678000DC209F20EC20AF2091F0A1F094B0A2BF2
:10168800030E09150B6F0C6B0B510D270C510E2314
:101698000B51075F0C51085BFC0E0717FF0E08176C
:1016A80061EF0BF00DC2D9FF0EC2DAFF05C2DFFFF2
:1016B8000707D8A008070D4B0E2B07510811D8A40F
:1016C80068EF0BF06AEF0BF056EF0BF0120001C059
:1016D8000BF002C00CF005500610D8A476EF0BF002
:1016E80078EF0BF07AEF0BF025EF0CF00BC0D9FF79
:1016F8000CC0DAFF03C0DFFF05500B24076E06504D
:101708000C20086EFF0E0724D96EFF0E0820DA6E33
:1017180003C0DFFF065007E1030E055CD8B097EF62
:101728000BF099EF0BF09BEF0BF025EF0CF020EE90
:1017380001F00B50D9260C50DA2203C0DFFF20EE4F
:1017480002F00B50D9260C50DA2203C0DFFF0550F7
:101758000B24076E06500C20086EFE0E0724D96E67
:10176800FF0E0820DA6E03C0DFFF05500B24076E5A
:1017780006500C20086EFD0E0724D96EFF0E0820B7
:10178800DA6E03C0DFFF065007E1070E055CD8B02C
:10179800D0EF0BF0D2EF0BF0D4EF0BF025EF0CF0FD
:1017A80020EE03F00B50D9260C50DA2203C0DFFFDD
:1017B80005500B24076E06500C20086EFC0E0724FB
:1017C800D96EFF0E0820DA6E03C0DFFF065007E16E
:1017D800090E055CD8B0F3EF0BF0F5EF0BF0F7EF5F
:1017E8000BF025EF0CF00BC007F00CC008F0071E3B
:1017F800081E074A082A030E0714096E0A6A0950C8
:101808000B260A500C220950055E0A50065AFC0E97
:101818000516FF0E06161CEF0CF00BC0D9FF0CC006
:10182800DAFF03C0DFFF0506D8A006060B4A0C2A1C
:1018380005500610D8A423EF0CF025EF0CF011EF9B
:101848000CF01200040120511F0BE806D8B42FEF4A
:101858000CF031EF0CF033EF0CF0DCEF0CF024510E
:10186800D8B439EF0CF03BEF0CF03DEF0CF0DCEFA7
:101878000CF0060E2119D8A444EF0CF046EF0CF03A
:1018880081EF0CF068EF0CF000019C05D8A44FEF35
:101898000CF051EF0CF081EF0CF0390E686F7E0EF2
:1018A800696F000E6D6F090E6C6FC00E6B6F81EF64
:1018B8000CF0500E0001686F7E0E696F000E6D6FA0
:1018C8001D0E6C6F59EF0CF02351016E026A025025
:1018D800000AD8B472EF0CF081EF0CF00150210A25
:1018E800D8B448EF0CF0030AD8B45DEF0CF0010A45
:1018F800D8B481EF0CF081EF0CF004012039E83204
:10190800030BE806D8B48BEF0CF08DEF0CF0B7EFB3
:101918000CF0DCEF0CF0990E0001686F000E696F97
:10192800000E6D6F010E6C6FC10E6B6FDCEF0CF06B
:10193800800E00016B6F23C499F0DCEF0CF0980E59
:101948000001686F000E696F000E6D6F010E6C6FFD
:10195800810E6B6FDCEF0CF0800E00016B6F22C400
:1019680098F0DCEF0CF02151016E026A0250000A77
:10197800D8B4C1EF0CF0DCEF0CF00150010AD8B478
:10198800DCEF0CF0030AD8B48FEF0CF0010AD8B4DE
:10199800A3EF0CF00A0AD8B4DCEF0CF0030AD8B4B1
:1019A8009CEF0CF0010AD8B4B0EF0CF0DCEF0CF0AF
:1019B800120040C2D9FF41C2DAFFDECFF6FFDDCF09
:1019C800F7FF0800F550250AD8A4EDEF0CF0EFEF6B
:1019D8000CF07BEF0DF040C2D9FF41C2DAFFDE2ADE
:1019E800000EDD22000E0001776F000E766F76C0C4
:1019F8007FF27869796940C2D9FF41C2DAFFDECF48
:101A080050F2DDCF51F250C2F6FF51C2F7FF080085
:101A1800F550750AD8A413EF0DF015EF0DF072EF1D
:101A28000DF042C2D9FF43C2DAFFDFCF44F2020E03
:101A3800DE26DFCF45F2000EDD2244C2D9FF45C2C3
:101A4800DAFFDECF46F2DDCF47F246C248F247C2A0
:101A580049F202014A6B4B6B4C6B4D6B4E6B4F6BF3
:101A6800010E5025446F000E5121456F40C2D9FF29
:101A780041C2DAFF44C2DEFF45C2DDFF5CEF0DF074
:101A88003EC21EF23FC21FF248C220F249C221F2F2
:101A98004AC222F24BC223F24CC224F24DC225F2B2
:101AA8004EC226F24FC227F262EC06F090EF0DF01C
:101AB80050C2F6FF51C2F7FF0800F550446F456B5E
:101AC8004551000AD8B46BEF0DF072EF0DF0445198
:101AD800750AD8B444EF0DF072EF0DF040C2D9FF8B
:101AE80041C2DAFFDE2A000EDD2290EF0DF040C27F
:101AF800D9FF41C2DAFFDECFF6FFDDCFF7FF0800DE
:101B0800F5500201036F046B3EC205F23FC206F2B4
:101B1800EFEC16F072EF0DF012003EC0D9FF3FC097
:101B2800DAFFDECFF6FFDDCFF7FF0800F550250A14
:101B3800D8A4A1EF0DF0A3EF0DF02EEF0EF03EC0EC
:101B4800D9FF3FC0DAFFDE2A000EDD22000E0001B9
:101B5800776F000E766F76C07FF2786979693EC03C
:101B6800D9FF3FC0DAFFDECF4EF0DDCF4FF04EC0D9
:101B7800F6FF4FC0F7FF0800F550750AD8A4C7EF65
:101B88000DF0C9EF0DF025EF0EF040C0D9FF41C0B0
:101B9800DAFFDFCF42F0020EDE26DFCF43F0000E81
:101BA800DD2242C0D9FF43C0DAFFDECF44F0DDCFEB
:101BB80045F044C046F045C047F0486A496A4A6A59
:101BC8004B6A4C6A4D6A010E4E24426E000E4F203D
:101BD800436E3EC0D9FF3FC0DAFF42C0DEFF43C0BC
:101BE800DDFF0FEF0EF03CC01CF03DC01DF046C0FD
:101BF8001EF047C01FF048C020F049C021F04AC07D
:101C080022F04BC023F04CC024F04DC025F046EC28
:101C180007F042EF0EF04EC0F6FF4FC0F7FF080086
:101C2800F550426E436A4350000AD8B41EEF0EF0D6
:101C380025EF0EF04250750AD8B4F7EF0DF025EFF6
:101C48000EF03EC0D9FF3FC0DAFFDE2A000EDD22CB
:101C580042EF0EF03EC0D9FF3FC0DAFFDECFF6FFFD
:101C6800DDCFF7FF0800F550016E026A3CC003F0B3
:101C78003DC004F055EC17F025EF0EF01200800E71
:101C880004012019D8A44BEF0EF04DEF0EF0F2EF3F
:101C98000EF0C00E00016B6FD8EF0EF06D0E000154
:101CA800686F7E0E696F000E6D6F120E6C6FF2EF2B
:101CB8000EF02251D8A463EF0EF065EF0EF0A6EFF8
:101CC8000EF02251020DC30EF324F66E7D0EF420A1
:101CD800F76E0900F5CF68F00A00F5CF69F0020E3B
:101CE80000016825016E000E6921026E01C0F6FF31
:101CF80002C0F7FFF86A070EF76403D00800F55032
:101D080005D0F6CFE1FFF7CFE2FFE75000016C6F97
:101D1800030E6825016E000E6921026E01C0F6FFF0
:101D280002C0F7FFF86A070EF76403D00800F55001
:101D380005D0F6CFE1FFF7CFE2FFE75000016D6F66
:101D4800F2EF0EF0000E00016B6FF2EF0EF0030ED3
:101D58002261B1EF0EF0B3EF0EF0A6EF0EF02251B4
:101D6800020DBD0EF324F66E7D0EF420F76E090009
:101D7800F5CF68F00A00F5CF69F068C0F6FF69C0D2
:101D8800F7FFF86A070EF76403D00800F55005D08E
:101D9800F6CFE1FFF7CFE2FFE750016E01500001F7
:101DA8006C6F6D6BF2EF0EF004012351016E026A45
:101DB8000250000AD8B4E3EF0EF0A6EF0EF001507F
:101DC800010AD8B452EF0EF0030AD8B45DEF0EF052
:101DD800010AD8B4ABEF0EF0A6EF0EF01200A09AED
:101DE800000E6A6E000E686E000E706E710E0201B3
:101DF800036F0F0E046F000E066F000E056F000EC6
:101E0800086F010E076FAFEC0AF0160E6F6E9F0E8B
:101E18006B6E7B0E696E000E02010F6F0F51040D81
:101E2800000EF324D96E040EF420DA6EDE6ADE6A40
:101E3800DE6ADD6A0F2B070E0F6525EF0FF027EF1F
:101E48000FF012EF0FF06D8C000E6E6E6D986D9C9A
:101E58006896000E00016B6F000E636F000E656FD1
:101E6800000E646F68B63BEF0FF03DEF0FF02CEFFC
:101E78000FF0010E8E6F010E8D6F000E8C6F000E2D
:101E88008B6F000E936F000E02010F6F0F51020D42
:101E98006E0EF324D96E000EF420DA6E000EDE6E9C
:101EA800000EDD6E0F51020D720EF324D96E000E76
:101EB800F420DA6E000EDE6E000EDD6E800E0F2549
:101EC800D96EDA6A000EDA22000EDF6E7E0E0F255A
:101ED800D96EDA6A000EDA22000EDF6E0F2B010EC1
:101EE8000F6579EF0FF07BEF0FF04AEF0FF0080E58
:101EF80000016E6F040E6F6F160E706E040E0401F3
:101F0800036F200E026F080E016F040E006F008F22
:101F1800000E00019C6F000E0101CB6F000ECC6F0C
:101F2800000ECD6F000ECE6F000E00018A6F000EFE
:101F38000201826F1200A09A000E6A6E000E686E8F
:101F4800000E706E710E016E0F0E026E000E046EA2
:101F5800000E036E000E066E010E056E6BEC0BF0A4
:101F6800160E6F6E9F0E6B6E7B0E696E000E0D6EF9
:101F78000D50040D000EF324D96E040EF420DA6E11
:101F8800DE6ADE6ADE6ADD6A0D2A070E0D64CFEFAF
:101F98000FF0D1EF0FF0BCEF0FF06D8C000E6E6EEE
:101FA8006D986D9C6896000E00016B6F000E636F54
:101FB800000E656F000E646F68B6E5EF0FF0E7EF8F
:101FC8000FF0D6EF0FF0010E8E6F010E8D6F000E21
:101FD8008C6F000E8B6F000E936F000E0D6E0D5000
:101FE800020D6E0EF324D96E000EF420DA6E000E88
:101FF800DE6E000EDD6E0D50020D720EF324D96EEA
:10200800000EF420DA6E000EDE6E000EDD6E800E1D
:102018000D24D96EDA6A000EDA22000EDF6E7E0E0B
:102028000D24D96EDA6A000EDA22000EDF6E0D2A50
:10203800010E0D6422EF10F024EF10F0F3EF0FF013
:10204800080E00016E6F040E6F6F160E706E040E90
:102058000401036F200E026F080E016F040E006F5B
:10206800008F000E00019C6F000E0101CB6F000E67
:10207800CC6F000ECD6F000ECE6F000E00018A6F80
:10208800000E0201826F12006D9800016BBF4FEFC6
:1020980010F051EF10F097EF10F063AF56EF10F01B
:1020A80058EF10F06BEF10F0020E956F8B51D8A41B
:1020B80060EF10F062EF10F064EF10F015EC18F01C
:1020C800000E00018D6F000E8E6FECEF10F020EE09
:1020D80001F08451D9268551DA22080EDF6E20EEF0
:1020E80002F08451D9268551DA22200EDE6E040EC4
:1020F800DD6E84C0D9FF85C0DAFF0C0EDF6E84C0A8
:10210800D9FF85C0DAFF000EDB8E6EC0D9FF6FC025
:10211800DAFF040EDF6E6EC0D9FF6FC0DAFF000E63
:10212800DB8EECEF10F0040120AF9DEF10F09FEF75
:1021380010F0BDEF10F0010E0001956F8C51D8A47E
:10214800A8EF10F0AAEF10F0ACEF10F015EC18F0B3
:10215800000E00018D6F000E8E6F8F51D8A4B7EF5F
:1021680010F0B9EF10F0ECEF10F0B6EC14F0ECEF63
:1021780010F0020E0001956F20EE01F08451D9266F
:102188008551DA22080EDF6E20EE02F08451D9263E
:102198008551DA22200EDE6E040EDD6E84C0D9FF72
:1021A80085C0DAFF040EDF6E84C0D9FF85C0DAFF70
:1021B800000EDB8E000E8D6F000E8E6F8F51D8A42F
:1021C800E8EF10F0EAEF10F0ECEF10F0B9EF10F0D4
:1021D8001200000120EE01F08651D9268751DA223B
:1021E800DF50026E0250645D000E6559D8B0FFEFF3
:1021F80010F001EF11F003EF11F064C002F002508B
:10220800645F000E655B000E016E1AEF11F0280E78
:102218000124D96EDA6A040EDA2260C0E1FF61C0D7
:10222800E2FFDFCFE7FF604B612B012A0250015C20
:10223800D8A021EF11F023EF11F00BEF11F064514A
:102248006511D8B42AEF11F02CEF11F065EF11F0F9
:1022580020EE01F08451D9268551DA22080EDF6E6E
:1022680020EE02F08451D9268551DA22280EDE6E3E
:10227800040EDD6E86C0D9FF87C0DAFFDFBC47EFEA
:1022880011F049EF11F057EF11F084C0D9FF85C064
:10229800DAFF480EDF6E84C0D9FF85C0DAFF000E72
:1022A800DB8E8EEF11F084C0D9FF85C0DAFF080EEF
:1022B800DF6E84C0D9FF85C0DAFF000EDB8E8EEF9B
:1022C80011F020EE01F08451D9268551DA22080E4A
:1022D800DF6E20EE02F08451D9268551DA22200ED5
:1022E800DE6E040EDD6E84C0D9FF85C0DAFF040EF1
:1022F800DF6E84C0D9FF85C0DAFF000EDB8E639FD6
:102308008F51D8A48AEF11F08CEF11F08EEF11F0F5
:10231800B6EC14F01200000E0401286F000E296FAD
:10232800F6EF11F000016B8F9405D8A49EEF11F021
:10233800A0EF11F010EF12F00401288310EF12F053
:1023480000016B8F10EF12F000016B8F0401245114
:102358000F0B0009D8B4B3EF11F0B5EF11F010EF7F
:1023680012F024BFBAEF11F0BCEF11F0CDEF11F06D
:1023780024510F0B016E0150020D720EF324D96E19
:10238800000EF420DA6EDECF03F0DDCF04F0DCEFD0
:1023980011F024510F0B016E0150020D6E0EF32443
:1023A800D96E000EF420DA6EDECF03F0DDCF04F034
:1023B80003C0D9FF04C0DAFFDFAEE5EF11F0E7EFA5
:1023C80011F010EF12F003C0D9FF04C0DAFFDFA448
:1023D800F0EF11F0F2EF11F010EF12F0010E286F8C
:1023E80010EF12F020511F0B016E026A0250000A12
:1023F800D8B401EF12F010EF12F00150000AD8B46F
:1024080096EF11F0010AD8B4A4EF11F0030AD8B47A
:10241800A8EF11F010EF12F000016BAF16EF12F0F9
:1024280018EF12F01FEF12F0280E686F040E696F94
:102438006B81020E6C6F120004012039E832030B25
:102448000009D8B42AEF12F02CEF12F074EF12F052
:10245800AEEF12F06B8F080E0201826FAEEF12F032
:1024680043EC0EF0AEEF12F0A7EC15F0AEEF12F061
:102478009C0E686F000E696F6B81010E6C6F6B8F1D
:10248800AEEF12F08FEC11F0AEEF12F07AEC03F031
:10249800AEEF12F09B0E040124250001686F696BF2
:1024A800000E692340EF12F06B8F9B0E0401242568
:1024B800D96EDA6A000EDA2222C4DFFFAEEF12F01C
:1024C800000EB96F020EB86F000EBA6F000EBB6F28
:1024D800000EBD6F000EBC6FC7EC18F0AEEF12F027
:1024E80021510001C56FC66BC651000AD8B47FEFF1
:1024F80012F0AEEF12F0C551000AD8B446EF12F050
:10250800010AD8B44AEF12F0020AD8B44AEF12F01E
:10251800060AD8B42EEF12F0030AD8B434EF12F03A
:10252800010AD8B464EF12F00F0AD8B43CEF12F0E5
:10253800010AD8B438EF12F0030AD8B44EEF12F0FB
:10254800010AD8B458EF12F0070AD8B4AEEF12F067
:10255800AEEF12F012006EC0D9FF6FC0DAFF0001B3
:10256800000EDFBC010E026E040E6E196E6F6F5105
:102578006F6F080E02018219D8A4C5EF12F0C7EFD9
:1025880012F0DBEF12F0040122517F0B6E6E6E50D9
:10259800D8B4D1EF12F0D3EF12F0D8EF12F0100E3A
:1025A8000201826FDBEF12F0040E0201826F00015C
:1025B8009505D8A4E2EF12F0E4EF12F02CEF13F037
:1025C80020EE02F06E51D9266F51DA22280EDE6E07
:1025D800040EDD6E37EC13F0020E00019619D8A434
:1025E800F8EF12F0FAEF12F008EF13F06EC0D9FF0F
:1025F8006FC0DAFF040EDF6E6EC0D9FF6FC0DAFF5E
:10260800000EDB8E36EF13F00250D8A40EEF13F055
:1026180010EF13F01EEF13F06EC0D9FF6FC0DAFF92
:10262800480EDF6E6EC0D9FF6FC0DAFF000EDB8E7A
:1026380036EF13F06EC0D9FF6FC0DAFF080EDF6EF9
:102648006EC0D9FF6FC0DAFF000EDB8E36EF13F0D5
:1026580063AF31EF13F033EF13F034EF13F0639FF0
:10266800000E956F1200080E016E00016D5107E112
:10267800080E6C5DD8B043EF13F045EF13F05DEF33
:1026880013F06CC001F09651D8A44DEF13F04FEF42
:1026980013F053EF13F0010E966F5DEF13F09605EC
:1026A800D8A459EF13F05BEF13F05DEF13F0020EAF
:1026B800966F01506C5F000E6D5B20EE01F06E515D
:1026C800D9266F51DA2201C0DFFF280E826F040E6F
:1026D800836F6BB172EF13F074EF13F0B6EF13F072
:1026E80091EF13F068C0F6FF69C0F7FFF86A82C07F
:1026F800D9FF83C0DAFF070EF76403D00800F5504E
:1027080005D0F6CFE1FFF7CFE2FFE750DF6E00011B
:10271800684B692B824B832B01060150D8A497EF95
:1027280013F099EF13F076EF13F0BEEF13F068C0D3
:10273800F6FF69C0F7FFF86A82C0D9FF83C0DAFFE5
:10274800070EF76403D00800F55005D0F6CFE1FF77
:10275800F7CFE2FFE750DF6E0001684B692B824B31
:10276800832B01060150D8A4BCEF13F0BEEF13F081
:102778009BEF13F01200E1CFCBF0E2CFCCF0D9CF32
:10278800CDF0DACFCEF0F3CFCFF0F4CFD0F0F6CF54
:10279800D1F0F7CFD2F0F8CFD3F0F5CFD4F09DA099
:1027A800D8EF13F0DAEF13F007EF14F09EA0DFEF85
:1027B80013F0E1EF13F007EF14F0FA0ECF6E250EC9
:1027C800CE6E9E90EDEF13F03CEC05F08D7407EFA4
:1027D80014F000019751C96FCA6BCA51000AD8B4E6
:1027E800F8EF13F007EF14F0C951000AD8B407EF57
:1027F80014F0010AD8B4E8EF13F0030AD8B407EFCD
:1028080014F007EF14F09DAA0CEF14F00EEF14F07B
:1028180017EF14F09EAA13EF14F015EF14F017EF4A
:1028280014F036EC1AF09DA81CEF14F01EEF14F00B
:1028380027EF14F09EA823EF14F025EF14F027EFEC
:1028480014F0E5EC1CF0D4C0F5FFD3C0F8FFD2C0FB
:10285800F7FFD1C0F6FFD0C0F4FFCFC0F3FFCEC062
:10286800DAFFCDC0D9FFCCC0E2FFCBC0E1FF5F9259
:10287800110022EE13F0070EDE6AE806FDE20201FF
:102888000B510C110D110E110F1110111111121104
:10289800D8B451EF14F053EF14F0A5EF14F0010E73
:1028A8001B6F61EF14F0D8900B370C370D370E37CC
:1028B8000F371037113712371B2B12AF66EF14F092
:1028C80068EF14F057EF14F0D89013371437153712
:1028D80016371737183719371A370B51035D0C514C
:1028E80004590D5105590E5106590F5107591051E8
:1028F80008591151095912510A59D8A086EF14F0F4
:1029080088EF14F099EF14F00B51035F0C51045B3E
:102918000D51055B0E51065B0F51075B1051085BAB
:102928001151095B12510A5B1381D890123311338C
:1029380010330F330E330D330C330B331B2F68EF6B
:1029480014F013C203F214C204F215C205F216C23F
:1029580006F217C207F218C208F219C209F21AC21F
:102968000AF2120000018E51D8A4BDEF14F0BFEF97
:1029780014F02EEF15F0010E8E6F8D51D8A4C7EF0D
:1029880014F0C9EF14F02EEF15F0010E8D6F020E42
:102998009519D8A4D2EF14F0D4EF14F0EAEF14F09C
:1029A80020EE01F06E51D9266F51DA22000EDF6E4B
:1029B8006EC0D9FF6FC0DAFF480EDF6E6EC0D9FF58
:1029C8006FC0DAFF000EDB8E2EEF15F09505D8A448
:1029D800F0EF14F0F2EF14F02EEF15F0000E916FF7
:1029E80020EE01F08651D9268751DA22080EDF6ED3
:1029F80020EE02F08651D9268751DA22200EDE6EAB
:102A0800040EDD6E86C0D9FF87C0DAFF040EDF6EC4
:102A180086C0D9FF87C0DAFF000EDB8E010E916FEA
:102A280020EE01F08451D9268551DA22080EDF6E96
:102A380020EE02F08451D9268551DA22200EDE6E6E
:102A4800040EDD6E84C0D9FF85C0DAFF800EDF6E0C
:102A58002EEF15F0120020EE11F0070EDE6AE806E0
:102A6800FDE209500A100B100C100D100E100F107B
:102A78001010D8B442EF15F044EF15F096EF15F0AA
:102A8800010E196E52EF15F0D89009360A360B363A
:102A98000C360D360E360F361036192A10AE57EF93
:102AA80015F059EF15F048EF15F0D8901136123699
:102AB8001336143615361636173618360950015C93
:102AC8000A5002580B5003580C5004580D50055822
:102AD8000E5006580F50075810500858D8A077EFD6
:102AE80015F079EF15F08AEF15F00950015E0A50DC
:102AF800025A0B50035A0C50045A0D50055A0E50E6
:102B0800065A0F50075A1050085A1180D8901032A0
:102B18000F320E320D320C320B320A320932192EB4
:102B280059EF15F011C001F012C002F013C003F004
:102B380014C004F015C005F016C006F017C007F061
:102B480018C008F0120000016B8F710E016E0F0E95
:102B5800026E000E046E000E036E000E066E010E6D
:102B6800056E6BEC0BF0000E016E040E026E000E8B
:102B7800046E000E036E000E066E200E056E6BECE2
:102B88000BF06D8C000E5E6E800E5E24D96EDA6AD4
:102B9800000EDA22000EDF6E7E0E5E24D96EDA6A2F
:102BA800000EDA22000EDF6E5E2A010E5E64DFEF91
:102BB80015F0E1EF15F0C8EF15F09B0E016E000E51
:102BC800026E000E046E000E036E000E066E010EFD
:102BD800056E6BEC0BF06D9C080E00016E6F040E19
:102BE8006F6F000E866F040E876F86C084F087C0F3
:102BF80085F022C49CF09C51D8A405EF16F007EF8D
:102C080016F00CEF16F0100E0201826F1DEF16F091
:102C1800000EB96F010EB86F9C0EBA6F000EBB6F35
:102C2800000EBD6F010EBC6FC7EC18F0200E02013C
:102C3800826F120002010B510C110D110E110F11B0
:102C4800101111111211D8B42CEF16F02EEF16F046
:102C580076EF16F0010E136F3CEF16F0D8900B3795
:102C68000C370D370E370F37103711371237132B34
:102C780012AF41EF16F043EF16F032EF16F00B519A
:102C8800035D0C5104590D5105590E5106590F5148
:102C98000759105108591151095912510A59D8A008
:102CA80058EF16F05AEF16F06AEF16F00B51035F63
:102CB8000C51045B0D51055B0E51065B0F51075B10
:102CC8001051085B1151095B12510A5BD8901233FD
:102CD800113310330F330E330D330C330B33132FE3
:102CE80043EF16F003C203F204C204F205C205F270
:102CF80006C206F207C207F208C208F209C209F2C0
:102D08000AC20AF2120009500A100B100C100D101A
:102D18000E100F101010D8B494EF16F096EF16F0AE
:102D2800DEEF16F0010E116EA4EF16F0D8900936FA
:102D38000A360B360C360D360E360F361036112A7B
:102D480010AEA9EF16F0ABEF16F09AEF16F0095097
:102D5800015C0A5002580B5003580C5004580D508F
:102D680005580E5006580F50075810500858D8A04C
:102D7800C0EF16F0C2EF16F0D2EF16F00950015E60
:102D88000A50025A0B50035A0C50045A0D50055A57
:102D98000E50065A0F50075A1050085AD890103241
:102DA8000F320E320D320C320B320A320932112E2A
:102DB800ABEF16F001C001F002C002F003C003F04F
:102DC80004C004F005C005F006C006F007C007F00F
:102DD80008C008F01200020105510611D8B4F7EF37
:102DE80016F0F9EF16F002EF17F005510611D8A406
:102DF80000EF17F002EF17F007EF17F003517DEC23
:102E08001DF054EF17F020EE09F00551D9260651B0
:102E1800DA22DE50DE10D8B414EF17F016EF17F0F0
:102E280031EF17F020EE09F00551D9260651DA22C4
:102E380010EE03F00551E1260651E222DE50E65C71
:102E4800E650800A0B6FDE50800A0B59D8B02FEF7E
:102E580017F031EF17F054EF17F020EE03F005519B
:102E6800D9260651DA22DECF07F2DDCF08F205C2F5
:102E7800D9FF06C2DAFFDECF09F2DDCF0AF2075129
:102E88000925D96E08510A21DA6E03C2DFFF20EE48
:102E980003F00551D9260651DA22DE2A000EDD227A
:102EA800120003500410D8B45CEF17F05EEF17F06F
:102EB80067EF17F003500410D8A465EF17F067EF19
:102EC80017F06CEF17F0015082EC1DF0B9EF17F016
:102ED80020EE09F00350D9260450DA22DE50DE1025
:102EE800D8B479EF17F07BEF17F096EF17F020EED4
:102EF80009F00350D9260450DA2210EE03F00350EB
:102F0800E1260450E222DE50E65CE650800A096EB3
:102F1800DE50800A0958D8B094EF17F096EF17F0F2
:102F2800B9EF17F020EE03F00350D9260450DA2247
:102F3800DECF05F0DDCF06F003C0D9FF04C0DAFF0D
:102F4800DECF07F0DDCF08F005500724D96E065014
:102F58000820DA6E01C0DFFF20EE03F00350D92607
:102F68000450DA22DE2A000EDD2212009AC0C7F0D1
:102F7800FD0E0001C717D8A4C4EF17F0C6EF17F06D
:102F880008EF18F09AC0C7F0D890C7333F0EC7179C
:102F9800C751040D000EF324866F040EF420876FCA
:102FA80086C084F087C085F0040E8419846F85512B
:102FB800856F86C0D9FF87C0DAFFDF30E8320F0B94
:102FC8000D0AD8A4EAEF17F0ECEF17F004EF18F0A9
:102FD800200E016E040E026E20EE02F08651D926F4
:102FE8008751DA22DECF03F0DDCF04F0000E066E43
:102FF800080E056E80EC1BF071EC19F014EF18F058
:1030080072EC1AF014EF18F09A51FD0B040AD8A4C8
:1030180010EF18F012EF18F014EF18F0AFEC12F0F0
:103028001200000E00018C6F000E8B6F020E9519B6
:10303800D8A421EF18F023EF18F043EF18F020EE92
:1030480001F08451D9268551DA22080EDF6E20EE70
:1030580002F08451D9268551DA22280EDE6E040E3C
:10306800DD6E84C0D9FF85C0DAFF480EDF6E84C0EC
:10307800D9FF85C0DAFF000EDB8E6EEF18F06C51B9
:103088000401265D00016D5104012759D8B04FEFA6
:1030980018F051EF18F055EF18F026C46CF027C45B
:1030A8006DF037EC13F0000120EE02F06E51D926D6
:1030B8006F51DA22280EDE6E040EDD6E6EC0D9FF67
:1030C8006FC0DAFF480EDF6E6EC0D9FF6FC0DAFF3F
:1030D800000EDB8E1200086E000E096E040E0A6EDA
:1030E8000150026E036AD890023603360850046E07
:1030F800056AD89004360536D8900436053602504D
:103108000424066E03500520076ED890063607364D
:10311800D890063607360650092607500A2209C0F5
:10312800D9FF0AC0DAFFDF9E0150D8A49EEF18F03D
:10313800A0EF18F0AEEF18F00850020D720EF3244D
:10314800D96E000EF420DA6E09C0DEFF0AC0DDFF7A
:10315800BAEF18F00850020D6E0EF324D96E000E67
:10316800F420DA6E09C0DEFF0AC0DDFF09C0D9FF0E
:103178000AC0DAFFDF9C20EE04F00950D9260A5075
:10318800DA22DF8C1200E8EF18F02DEC1DF01DEFAD
:1031980019F081EC1DF01DEF19F07AEC1DF01DEF10
:1031A80019F07EEC1DF01DEF19F080EC1DF01DEFFD
:1031B80019F07FEC1DF01DEF19F083EC1DF01DEFE9
:1031C80019F000F01DEF19F0B8C05CF0B9C05DF05F
:1031D8005D50000AD8B4F7EF18F07F0AD8B416EF9C
:1031E80019F01DEF19F05C50010AD8B4C9EF18F0B6
:1031F800030AD8B4CDEF18F0010AD8B4D1EF18F00B
:10320800710AD8B4E5EF18F0010AD8B4D5EF18F070
:10321800070AD8B4DDEF18F0010AD8B4D9EF18F0CE
:103228001DEF19F05C50FF0AD8B4E1EF18F01DEF5C
:1032380019F01200000E02010B6F000E0C6F000E49
:103248000D6F000E0E6F0751081109110A11D8B43D
:1032580030EF19F032EF19F068EF19F0010E0F6F27
:103268003CEF19F0D8900737083709370A370F2B82
:103278000AAF41EF19F043EF19F036EF19F0D89083
:103288000B370C370D370E370751035D08510459BA
:10329800095105590A510659D8A055EF19F057EFA9
:1032A80019F060EF19F00751035F0851045B0951E9
:1032B800055B0A51065B0B81D8900A330933083342
:1032C80007330F2F43EF19F00BC203F20CC204F2BD
:1032D8000DC205F20EC206F21200000E0001966F32
:1032E800000E8F6F000E8C6F000E8B6F000E916FAB
:1032F800000E956F6EC0D9FF6FC0DAFF7F0EDF1624
:10330800040E6E196E6F6F516F6F6EC0D9FF6FC06C
:10331800DAFF7F0EDF16040E6E196E6F6F516F6F36
:1033280084C0D9FF85C0DAFF7F0EDF16000E6B6FF1
:10333800000E6D6F000E6C6F000E636F000E656FF0
:10334800000E646F20EC12F0000E0001B96F030E3E
:10335800B86F000EBA6F000EBB6F000EBD6F000E87
:10336800BC6FC7EC18F048EC10F01200020118BF4F
:10337800C0EF19F0C2EF19F0C8EF19F017C21CF22C
:1033880018C21DF2CCEF19F0000E1D6F000E1C6F55
:10339800000E1B6F000E1A6FDFEF19F0000E046F9E
:1033A800200E036F13C205F214C206F2EFEC16F0FA
:1033B80002011A4B1B2B1C511A5D1B51800A196FF5
:1033C8001D51800A1959D8A0ECEF19F0EEEF19F049
:1033D800D2EF19F015C20CF216C20DF213C20EF29A
:1033E80014C20FF2F5EC1BF0120016BEFEEF19F036
:1033F80000EF1AF006EF1AF015C01AF016C01BF00D
:103408000AEF1AF0000E1B6E000E1A6E000E196EEF
:10341800000E186E1CEF1AF0000E026E200E016EE0
:1034280011C003F012C004F055EC17F0184A192A1D
:103438001A50185C1950800A176E1B50800A1758CA
:10344800D8A029EF1AF02BEF1AF010EF1AF013C0DA
:103458000AF014C00BF011C00CF012C00DF019ECFA
:103468001CF01200ABA23BEF1AF03DEF1AF03FEF51
:103478001AF0AB98AB88ABA444EF1AF046EF1AF0F9
:1034880047EF1AF0AE50AECF03F0010E00017C25D5
:10349800016E000E7D21026EFF0E0114046E010EF6
:1034A8000214056E7A51041809E17B510518D8B445
:1034B80060EF1AF062EF1AF070EF1AF0700E7C25C8
:1034C800D96E050E7D21DA6E03C0DFFF04C07CF0E3
:1034D80005C07DF071EF1AF0AE501200020E000127
:1034E8009519D8A47AEF1AF07CEF1AF080EF1AF049
:1034F800EDEC10F0ACEF1AF0000E956F9151D8A4D6
:1035080088EF1AF08AEF1AF0AAEF1AF020EE01F00D
:103518008451D9268551DA22080EDF6E20EE02F09A
:103528008451D9268551DA22200EDE6E040EDD6E16
:1035380084C0D9FF85C0DAFF0C0EDF6E84C0D9FFC6
:1035480085C0DAFF000EDB8EACEF1AF0000E916F2B
:10355800120070A0B2EF1AF0B4EF1AF0DBEF1AF015
:1035680086C0D9FF87C0DAFF800EDE18D8A4BFEF67
:103578001AF0C1EF1AF0DAEF1AF06EC0D9FF6FC077
:10358800DAFF840EDE18D8A4CCEF1AF0CEEF1AF0CA
:10359800DAEF1AF086C0D9FF87C0DAFF0C0EDF6EAB
:1035A80086C0D9FF87C0DAFF000EDB8E7090689A5C
:1035B80012005E0E0201646F020E656F5AC266F257
:1035C8005BC267F2000E6A6F000E696F000E706FC3
:1035D800000E6F6F660E526F020E536F5CC254F28C
:1035E8005DC255F2640E566F020E576F06EC1BF063
:1035F800020169515A25D96E6A515B21DA6E000EB3
:10360800DF6E120054C258F255C259F21BEF1BF07C
:1036180052C23EF253C23FF2580E0201406F020EF0
:10362800416F56C242F257C243F2DDEC0CF058C269
:10363800F6FF59C2F7FF0800F5500009D8A427EF94
:103648001BF029EF1BF00CEF1BF0000E0201536F6B
:10365800000E526F1200A10E0001A76F000EA86F96
:103668009DC0A9F09EC0AAF0000EAD6F000EAC6F11
:10367800000EB36F000EB26FA90E506E000E516EA1
:103688009FC052F0A0C053F0A70E546E000E556EA6
:10369800A8EC1BF00001AC519D25D96EAD519E21BF
:1036A800DA6E000EDF6E120005EE70F012EE00F01A
:1036B800EE6AE550E150FCE1E250FAE102EE7BF0FF
:1036C800280EEE6AE806FDE10101CE6BCD6BCC6BEE
:1036D800CB6B04EE30F0C00EEE6AE806FDE100EEBA
:1036E80060F03D0EEE6AE806FDE15F905F92000E25
:1036F800F86E000134EF00F003C009F004C00AF0CE
:1037080001C007F002C008F09AEF1BF009C0D9FF0A
:103718000AC0DAFFDF500B6E094A0A2A07C0D9FF30
:1037280008C0DAFF0BC0DFFF074A082A0506D8A041
:103738000606052806E10628D8A4A5EF1BF0A7EF82
:103748001BF08AEF1BF0120052C056F053C057F01E
:10375800BCEF1BF050C03CF051C03DF0560E3E6E21
:10376800000E3F6E54C040F055C041F091EC0DF092
:1037780056C0F6FF57C0F7FF0800F5500009D8A457
:10378800C8EF1BF0CAEF1BF0AEEF1BF0000E516E36
:10379800000E506E12000E6E0BA4D5EF1BF0D7EF83
:1037A8001BF0DCEF1BF0000E016E0E506FEC18F0F2
:1037B8000BA2E1EF1BF0E3EF1BF0E8EF1BF0010EAB
:1037C800016E0E506FEC18F0700E0E240C6E0D6A20
:1037D8000F0E0D220CC0D9FF0DC0DAFF0BC0DFFFA2
:1037E8001200000E0201126F000E116F08EF1CF09C
:1037F80010C203F2046B0EC205F20FC206F2EFEC20
:1038080016F00201114B122B11510C25D96E1251D1
:103818000D21DA6EDF50106F1051D8A416EF1CF08E
:1038280018EF1CF0FCEF1BF01200000E106E000EDB
:103838000F6E2AEF1CF00EC001F0026A0CC003F0F4
:103848000DC004F055EC17F00F4A102A0F500A2447
:10385800D96E10500B20DA6EDF500E6E0E50D8A4C1
:1038680038EF1CF03AEF1CF01FEF1CF01200000EAE
:103878000001936F000EB96F740EB86F000EBA6F27
:10388800000EBB6F000EBD6F000EBC6FC7EC18F0CA
:103898006D92699451EF1CF0689468B456EF1CF06F
:1038A80058EF1CF050EF1CF0000E00018A6F120058
:1038B8000201036F000189293F0B0201046F000117
:1038C800885102010419D8B46CEF1CF06EEF1CF09B
:1038D80063EF1CF0300E00018925D96EDA6A040EF8
:1038E800DA2203C2DFFF04C289F09D88120088EF44
:1038F8001CF005C2F6FF06C2F7FF0800F5505CECA5
:103908001CF00201054B062B05C2F6FF06C2F7FFA5
:103918000800F5500009D8A494EF1CF096EF1CF0AD
:103928007DEF1CF01200010E0101CB27000ECC2305
:10393800CD23CE2300019351D8A4A5EF1CF0A7EF07
:103948001CF0B1EF1CF08A2B8A51D8A4AEEF1CF002
:10395800B0EF1CF0B1EF1CF08A691200016E000193
:1039680089293F0B026E88510218D8B4BEEF1CF0AB
:10397800C0EF1CF0B7EF1CF0300E8925D96EDA6A5B
:10398800040EDA2201C0DFFF02C089F09D88120010
:10399800D8EF1CF005C2D9FF06C2DAFFDF505CEC95
:1039A8001CF00201054B062B05C2D9FF06C2DAFF3F
:1039B800DF50D8A4E2EF1CF0E4EF1CF0CEEF1CF0CF
:1039C8001200300E00018825D96EDA6A040EDA2258
:1039D800DF50016E88293F0B886F01C0ADFF885109
:1039E8008919D8A4FAEF1CF0FCEF1CF0FDEF1CF0CD
:1039F8009D98120009EF1DF003C0D9FF04C0DAFF3B
:103A0800DF50B2EC1CF0034A042A03C0D9FF04C0FB
:103A1800DAFFDF50D8A413EF1DF015EF1DF000EF0B
:103A28001DF01200698468986D82010E0001936F81
:103A3800000E8A6F000EB96F750EB86F000EBA6F60
:103A4800000EBB6F000EBD6F000EBC6FC7EC18F008
:103A580012001E0E0B6E010ECFEC1BF0000E586EFE
:103A6800B00E596E040E5A6E400E5B6E010EDDEC00
:103A780009F058C07DF259C07EF21200C20ED76E0E
:103A8800F70ED66E870ED56EF194F294F28A120074
:103A9800FA0ECF6E250ECE6EB10ECD6E9F809E9023
:103AA8009D801200000E02017D6F000E7E6F000ED9
:103AB8007B6F000E7C6F12000F0EC11292928992DA
:103AC800928896941200F28EF28EF28CF28CF28C1E
:103AD800D08E1200F3EC0EF056EC1DF01200F294AA
:103AE800D58EF28A1200F28EF28C120026EC0CF0BF
:103AF800120012001200120012001200120012002E
:107DBC00007F7EC57DF97D277E34034D006900630D
:107DCC000072006F006300680069007000200054AE
:107DDC00006500630068006E006F006C006F006748
:107DEC00007900200049006E0063002E002E035322
:107DFC000069006D0070006C0065002000480049AF
:107E0C0000440020004400650076006900630065B2
:107E1C00002000440065006D006F0009022900017C
:107E2C000100C03209040000020300000009211106
:107E3C00010001221D000705810340000107050117
:107E4C00034000010600FF0901A101190129401599
:107E5C000026FF007508954081001901294091000A
:107E6C00C01201000200000008D8043F000001010C
:107E7C000200010403090468616E646C652D3E41C7
:107E8C0044522069732025752E2068616E646C65E0
:107E9C002D3E414452202C68616E646C652D3E531E
:107EAC005441542E56616C2069732025752E205038
:107EBC006F696E7465722069732025750D0A006DEB
:107ECC00546F7563682063616C6C6962726174696C
:107EDC006F6E20636F6D6D616E640052656164201E
:107EEC00427574746F6E2042726F746865722031C3
:107EFC002E2E2E2E005265616420427574746F6EA6
:107F0C002042726F7468657220322E2E2E2E005213
:107F1C0065616420427574746F6E2042726F746870
:107F2C00657220332E2E2E2E005265616420427510
:107F3C0074746F6E2042726F7468657220342E2ECA
:107F4C002E2E004974206973207A65726F2062723C
:107F5C006F746865722E2E2E0D0A00424D4131351C
:107F6C00305F52454720726567545F4D53422E2E49
:107F7C002E00424D413135305F52454720726567C6
:107F8C00585F4D53422E2E2E00424D413135305FFD
:107F9C0052454720726567595F4D53422E2E2E0075
:107FAC00424D413135305F524547207265675A5F0B
:107FBC004D53422E2E2E00526561642041444320C5
:107FCC00566F6C7461676500636E7420257520694B
:107FDC00732025750D0A0048656C6C6F20576F7205
:107FEC006C640D0A00496E76616C69642E2E2E0D40
:037FFC000A000078
:020000040020DA
:08000000FFFFFFFFFFFFFFFF00
:020000040030CA
:0E000000220E3F1FFF0181FF0FC00FE00F40D7
:00000001FF
