:0400000031EF00F0EC
:060008005B8283EF0BF0A8
:100018005B80D8CF01F0E8CF02F0E0CF03F0F2AA7E
:1000280018EF00F01AEF00F029EF00F0F2A41FEF2C
:1000380000F021EF00F029EF00F0C20ED76EF70EA6
:10004800D66E010E00018A6FF29403C0E0FF02C071
:10005800E8FF01C0D8FF5B901000D5EF09F021C080
:1000680039F022C03AF023C03BF024C03CF025C050
:100078003DF026C03EF027C03FF028C040F040BE0B
:1000880048EF00F04BEF00F0010E4CEF00F0000ECF
:10009800376E386A37503810D8B455EF00F057EF3C
:1000A80000F067EF00F0401E3F1E3E1E3D1E3C1E46
:1000B8003B1E3A1E396C000E3A223B223C223D225E
:1000C8003E223F22402258BE6CEF00F06EEF00F057
:1000D8006FEF00F0599258BE7CEF00F0585006E1DF
:1000E8005704D8B07AEF00F07CEF00F082EF00F010
:1000F800000E346E010E336E86EF00F057C033F0F9
:1001080058C034F088C035F089C036F03750381000
:10011800D8A491EF00F093EF00F09AEF00F059A403
:1001280098EF00F09AEF00F09DEF00F03506D8A0A8
:100138003606000E426E1F0E416E000E0001AA6FB9
:1001480022EF01F04106D8A042068B0E4124D96E59
:10015800000E4220DA6E39C004F03AC005F03BC008
:1001680006F03CC007F03DC008F03EC009F03FC0B3
:100178000AF040C00BF00A0E0C6E000E0D6E000E59
:100188000E6E000E0F6E000E106E000E116E000E39
:10019800126E000E136E48EC06F004C029F005C07C
:1001A8002AF006C02BF007C02CF008C02DF009C0BB
:1001B8002EF00AC02FF00BC030F029C016F02BC06B
:1001C80017F024EC0BF01650300FDF6E3306D8A072
:1001D80034063506D8A0360639C004F03AC005F012
:1001E8003BC006F03CC007F03DC008F03EC009F037
:1001F8003FC00AF040C00BF00A0E0C6E000E0D6EE8
:10020800000E0E6E000E0F6E000E106E000E116EB8
:10021800000E126E000E136EC9EC04F004C039F023
:1002280005C03AF006C03BF007C03CF008C03DF0FE
:1002380009C03EF00AC03FF00BC040F042BE2DEFAF
:1002480001F0425008E14104D8A02DEF01F02FEF52
:1002580001F05FEF01F039503A103B103C103D10AF
:100268003E103F104010D8A43CEF01F03EEF01F0E3
:10027800A6EF00F034BE4BEF01F0345006E1330432
:10028800D8B049EF01F04BEF01F0A6EF00F036BE11
:1002980056EF01F0365008E13504D8A056EF01F0CA
:1002A80058EF01F05FEF01F059B25DEF01F05FEF39
:1002B80001F0A6EF00F037503810D8A466EF01F02F
:1002C80068EF01F06FEF01F059A46DEF01F06FEFE7
:1002D80001F08DEF01F04106D8A0420637503810E2
:1002E800D8A479EF01F07BEF01F081EF01F0000E67
:1002F800326E2B0E316E85EF01F0000E326E2D0E30
:10030800316E8B0E4124D96E000E4220DA6E31C058
:10031800DFFF1FC014F020C015F08B0E4124166EAD
:10032800000E4220176E35C018F036C019F0EBECFD
:1003380008F014C01FF015C020F01200D6EC0BF026
:1003480072EC0BF0AFEC0BF0800E126E1A0E136EFF
:10035800060E146E66EC0AF0070E566E170E556EF2
:100368006A0EE82EFED7552EFCD7562EFAD700D0A7
:100378001EEC08F0000E056E000E046E000E076EEF
:10038800000E066ECDEC0BF0E3EC0BF0F50E256ECF
:100398007F0E266EF10E276E000E286E010E296E56
:1003A8004CEC09F0000E056E000E046E000E076E90
:1003B8000A0E066ECDEC0BF0EB0E256E7F0E266E48
:1003C800F10E276E000E286E010E296E4CEC09F016
:1003D800000E056E000E046E000E076E140E066EFB
:1003E800CDEC0BF0BD0E256E7F0E266EF10E276E3E
:1003F800000E286E010E296E4CEC09F0000E056EF9
:10040800000E046E000E076E1E0E066ECDEC0BF08D
:10041800CF0E256E7F0E266EF10E276E000E286E0B
:10042800010E296E4CEC09F037EC0AF0000E0001C1
:10043800E76F3D0E566EE10E556E400EE82EFED764
:10044800552EFCD7562EFAD70001E72B020EE7658A
:1004580030EF02F032EF02F01DEF02F0E3EC0BF0A8
:10046800000E0001E86F8A05D8A43DEF02F03FEFC7
:1004780002F037EF02F0000E056E000E046E000E5B
:10048800076E000E066ECDEC0BF0F50E256E7F0E96
:10049800266EF10E276E000E286E010E296E4CECAA
:1004A80009F0000E056E000E046E000E076E0A0EAF
:1004B800066ECDEC0BF0EB0E256E7F0E266EF10E60
:1004C800276E000E286E010E296E4CEC09F0000E06
:1004D800056E000E046E000E076E140E066ECDEC4F
:1004E8000BF0BD0E256E7F0E266EF10E276E000EE8
:1004F800286E010E296E4CEC09F0000E056E000EF8
:10050800046E000E076E1E0E066ECDEC0BF0CF0EBD
:10051800256E7F0E266EF10E276E000E286E010ED8
:10052800296E4CEC09F0BF0E0001B16F000EB26FDE
:10053800DF0EB36F7F0EB46FE8C0B5F0B66B93EC07
:100548000AF00001E82B000E056E000E046E000E86
:10055800076E280E066ECDEC0BF0BF0E256E000E52
:10056800266EF10E276E000E286E010E296E4CECD9
:1005780009F037EC0AF00001E829D8A4C6EF02F028
:10058800C8EF02F0CCEF02F0000EE86FE3EC0BF0DE
:100598008072F29E000E00018A6FF28E37EF02F031
:1005A80031EF00F01C6E10C0D9FF11C0DAFFDF5028
:1005B800136E135000018025146E000E8121156EF4
:1005C800155007E1800E145CD8B0EDEF02F0EFEFA4
:1005D80002F008EF03F020EE01F01050D926115078
:1005E800DA22DF50136E13508225146E000E832119
:1005F800156E155009E1400E145CD8A006EF03F003
:1006080008EF03F00BEF03F0000EEEEF03F0000E1F
:100618001D6E000E1E6E000E1F6E000E206EC6EFC1
:1006280003F0E00E1C24046E056AFF0E052220EE7E
:1006380001F01050D9261150DA22DF50136E1350F2
:10064800066E076A5FEC0BF01D5004261E5005224B
:10065800D8900436053620EE02F01050D9261150F5
:10066800DA22DECF14F0DDCF15F004501426055041
:10067800152214C0F6FF15C0F7FF0900F5CF16F0D4
:100688000900F5CF17F016C018F017C019F01A6A4C
:100698001B6A000E216E000E226E000E236E000EE5
:1006A800246EA6EF03F021C013F018C014F019C08F
:1006B80015F01AC016F01BC017F0132A69EF03F0E3
:1006C800D8901436153616361736132E64EF03F005
:1006D80015AE71EF03F073EF03F086EF03F02150CE
:1006E80000018025046E22508121056E1D5082254F
:1006F800066E1E508321076E12C008F0FAEC06F051
:10070800A0EF03F0215000018025046E22508121C2
:10071800056E1D508225066E1E508321076E1250ED
:10072800D8B499EF03F09CEF03F0010E9DEF03F0AE
:10073800000E086EFAEC06F0010E2126000E2222A9
:100748002322242210C0D9FF11C0DAFFDF50136E14
:1007580013C014F0156A166A176A1450215C1550F4
:1007680022581650235817502458D8A0BEEF03F02B
:10077800C0EF03F057EF03F0010E1D26000E1E22F6
:100788001F22202220EE01F01050D9261150DA2223
:10079800DF50136E13C014F0156A166A176A1450E6
:1007A8001D5C15501E5816501F5817502058D8A0B9
:1007B800E0EF03F0E2EF03F015EF03F010C0D9FF0C
:1007C80011C0DAFFDF50136E135000018027000EAE
:1007D80081231C50120045C0D9FF46C0DAFFDECF86
:1007E800F6FFDDCFF7FF0800F550250AD8A4FFEF84
:1007F80003F001EF04F0ADEF04F045C0D9FF46C0A7
:10080800DAFFDE2A000EDD22000E0001896F000EDD
:10081800886F88C059F089C05AF05768586845C031
:10082800D9FF46C0DAFFDECFF6FFDDCFF7FF0800BD
:10083800F550640AD8B423EF04F025EF04F037EF3D
:1008480004F045C0D9FF46C0DAFFDECFF6FFDDCFA2
:10085800F7FF0800F550690AD8A435EF04F037EF20
:1008680004F077EF04F045C0D9FF46C0DAFFDE2A6E
:10087800000EDD2247C0D9FF48C0DAFFDFCF49F0BC
:10088800020EDE26DFCF4AF0000EDD2249C0D9FF76
:100898004AC0DAFFDECF4BF0DDCF4CF0000E4CBE85
:1008A800FF0E4D6E4E6E4F6E506E516E526E43C0BF
:1008B8001FF044C020F04BC021F04CC022F04DC0C6
:1008C80023F04EC024F04FC025F050C026F051C090
:1008D80027F052C028F033EC00F01FC043F020C0CE
:1008E80044F0C8EF04F045C0D9FF46C0DAFFDECFB8
:1008F800F6FFDDCFF7FF0800F550250AD8A487EFEB
:1009080004F089EF04F0A0EF04F045C0D9FF46C019
:10091800DAFFDE2A000EDD22000E056E250E046EBB
:1009280043C006F044C007F086EC08F0000E446EA1
:10093800010E436EC8EF04F045C0D9FF46C0DAFF88
:10094800DE2A000EDD22000E446E000E436EC8EF54
:1009580004F045C0D9FF46C0DAFFDECFF6FFDDCF91
:10096800F7FF0800F550046E056A43C006F044C05E
:1009780007F086EC08F045C0D9FF46C0DAFFDE2A4A
:10098800000EDD229AEF04F01200000E156E13BE61
:10099800D2EF04F0D0EF04F0E4EF04F0131E121EBF
:1009A800111E101E0F1E0E1E0D1E0C6C000E0D22A9
:1009B8000E220F221022112212221322010E156E6E
:1009C8000BBEEBEF04F0E9EF04F0FDEF04F00B1EB3
:1009D8000A1E091E081E071E061E051E046C000EB0
:1009E800052206220722082209220A220B22010ECA
:1009F800151A20EE16F0070EDE6AE806FDE20C5026
:100A08000D100E100F101010111012101310D8B472
:100A180010EF05F012EF05F064EF05F0010E146E0B
:100A280020EF05F0D8900C360D360E360F361036FE
:100A3800113612361336142A13AE25EF05F027EFB8
:100A480005F016EF05F0D890163617361836193611
:100A58001A361B361C361D360C50045C0D500558D2
:100A68000E5006580F500758105008581150095882
:100A780012500A5813500B58D8A045EF05F047EF0D
:100A880005F058EF05F00C50045E0D50055A0E5055
:100A9800065A0F50075A1050085A1150095A125046
:100AA8000A5A13500B5A1680D89013321232113248
:100AB80010320F320E320D320C32142E27EF05F0A1
:100AC8001550D8B46AEF05F06CEF05F07CEF05F02F
:100AD8001D1E1C1E1B1E1A1E191E181E171E166C04
:100AE800000E1722182219221A221B221C221D224C
:100AF80016C004F017C005F018C006F019C007F0BA
:100B08001AC008F01BC009F01CC00AF01DC00BF089
:100B1800120004C00EF005C00FF008500910D8A448
:100B280098EF05F09AEF05F09CEF05F047EF06F017
:100B38000EC0D9FF0FC0DAFF06C0DFFF08500E2431
:100B48000A6E09500F200B6EFF0E0A24D96EFF0E95
:100B58000B20DA6E06C0DFFF095007E1030E085CC0
:100B6800D8B0B9EF05F0BBEF05F0BDEF05F047EFE2
:100B780006F020EE01F00E50D9260F50DA2206C0FA
:100B8800DFFF20EE02F00E50D9260F50DA2206C001
:100B9800DFFF08500E240A6E09500F200B6EFE0E60
:100BA8000A24D96EFF0E0B20DA6E06C0DFFF08504C
:100BB8000E240A6E09500F200B6EFD0E0A24D96E02
:100BC800FF0E0B20DA6E06C0DFFF095007E1070EA3
:100BD800085CD8B0F2EF05F0F4EF05F0F6EF05F099
:100BE80047EF06F020EE03F00E50D9260F50DA2218
:100BF80006C0DFFF08500E240A6E09500F200B6E46
:100C0800FC0E0A24D96EFF0E0B20DA6E06C0DFFF39
:100C1800095007E1090E085CD8B015EF06F017EF88
:100C280006F019EF06F047EF06F00EC00AF00FC005
:100C38000BF00A1E0B1E0A4A0B2A030E0A140C6E2E
:100C48000D6A0C500E260D500F220C50085E0D50E8
:100C5800095AFC0E0816FF0E09163EEF06F00EC0E4
:100C6800D9FF0FC0DAFF06C0DFFF0806D8A00906C3
:100C78000E4A0F2A08500910D8A445EF06F047EF8E
:100C880006F033EF06F01200000E156E0BBE51EFA2
:100C980006F04FEF06F063EF06F00B1E0A1E091E62
:100CA800081E071E061E051E046C000E05220622DD
:100CB8000722082209220A220B22010E156E13BEF2
:100CC8006AEF06F068EF06F07AEF06F0131E121EC0
:100CD800111E101E0F1E0E1E0D1E0C6C000E0D2276
:100CE8000E220F2210221122122213220C500D1054
:100CF8000E100F101010111012101310D8B487EF27
:100D080006F089EF06F0D1EF06F0010E146E97EFAA
:100D180006F0D8900C360D360E360F3610361136D2
:100D280012361336142A13AE9CEF06F09EEF06F027
:100D38008DEF06F00C50045C0D5005580E50065807
:100D48000F500758105008581150095812500A5897
:100D580013500B58D8A0B3EF06F0B5EF06F0C5EF67
:100D680006F00C50045E0D50055A0E50065A0F50EE
:100D7800075A1050085A1150095A12500A5A13505B
:100D88000B5AD89013321232113210320F320E32FF
:100D98000D320C32142E9EEF06F01550D8B4D7EF52
:100DA80006F0D9EF06F0E9EF06F00B1E0A1E091E41
:100DB800081E071E061E051E046C000E05220622CC
:100DC8000722082209220A220B2204C004F005C0C7
:100DD80005F006C006F007C007F008C008F009C013
:100DE80009F00AC00AF00BC00BF01200055007E129
:100DF800800E045CD8B003EF07F005EF07F097EF1B
:100E080007F0075009E1400E065CD8A00EEF07F086
:100E180010EF07F012EF07F097EF07F00001845189
:100E2800D8B419EF07F01BEF07F026EF07F00850CA
:100E3800D8B421EF07F024EF07F0010E25EF07F0F3
:100E4800000E086E0804D8A42CEF07F02EEF07F068
:100E580062EF07F006C009F0070E0916010E0A6EC8
:100E6800092A39EF07F0D8900A36092E37EF07F02C
:100E780006C00BF007C00CF0D8900C320B32D8909B
:100E88000C320B32D8900C320B32070ED8900B363E
:100E98000C36E82E4AEF07F0200E0D6E020E0E6E8D
:100EA8000B500D260C500E2204500D24D96E0550FF
:100EB8000E20DA6E0A50DF1297EF07F006C009F02D
:100EC800070E0916010E0A6E092A6DEF07F0D89071
:100ED8000A36092E6BEF07F00A50FF0A0B6E06C0A0
:100EE8000CF007C00DF0D8900D320C32D8900D32AE
:100EF8000C32D8900D320C32070ED8900C360D36C5
:100F0800E82E81EF07F0200E0E6E020E0F6E0C50C9
:100F18000E260D500F2204500E24D96E05500F20B6
:100F2800DA6E0B50DF161200000E0D6E0BBEA1EF2D
:100F380007F09FEF07F0ABEF07F00B1E0A1E091E24
:100F4800086C000E09220A220B22010E0D6E07BE44
:100F5800B2EF07F0B0EF07F0BCEF07F0071E061E70
:100F6800051E046C000E052206220722010E0D1A2A
:100F7800000E0E6E000E0F6E000E106E000E116E3B
:100F8800085009100A100B10D8B4CDEF07F0CFEFB6
:100F980007F005EF08F0010E0C6ED9EF07F0D890B6
:100FA800083609360A360B360C2A0BAEDEEF07F088
:100FB800E0EF07F0D3EF07F0D8900E360F36103673
:100FC80011360850045C095005580A5006580B5051
:100FD8000758D8A0F2EF07F0F4EF07F0FDEF07F09D
:100FE8000850045E0950055A0A50065A0B50075A11
:100FF8000E80D8900B320A32093208320C2EE0EFFC
:1010080007F00D50D8B40BEF08F00DEF08F015EF0E
:1010180008F0111E101E0F1E0E6C000E0F2210225B
:1010280011220EC004F00FC005F010C006F011C068
:1010380007F01200AE0E94EC0BF0200E94EC0BF0BF
:10104800100E94EC0BF0B00E94EC0BF0C80E94EC70
:101058000BF0000E94EC0BF0100E94EC0BF0400E1D
:1010680094EC0BF0810E94EC0BF0FF0E94EC0BF06B
:10107800A10E94EC0BF0A60E94EC0BF0A80E94ECD9
:101088000BF03F0E94EC0BF0A40E94EC0BF0D30E87
:1010980094EC0BF0000E94EC0BF0D50E94EC0BF0E6
:1010A800F00E94EC0BF0D90E94EC0BF0220E94ECAD
:1010B8000BF0DA0E94EC0BF0120E94EC0BF0DB0E46
:1010C80094EC0BF0200E94EC0BF08D0E94EC0BF0DE
:1010D800140E94EC0BF0AF0E94EC0BF02E0E94EC77
:1010E8000BF0000E03EC0BF037EC0AF0000E0001D9
:1010F800816F000E806F000E836F000E826F010EED
:10110800856F120006500710D8B48DEF08F08FEFE6
:1011180008F098EF08F006500710D8A496EF08F0EA
:1011280098EF08F09DEF08F00450E9EC0BF0EAEFB7
:1011380008F020EE04F00650D9260750DA22DE50D7
:10114800DE10D8B4AAEF08F0ACEF08F0C7EF08F04B
:1011580020EE04F00650D9260750DA2210EE02F0ED
:101168000650E1260750E222DE50E65CE650800A8F
:101178000C6EDE50800A0C58D8B0C5EF08F0C7EFE7
:1011880008F0EAEF08F020EE02F00650D9260750E2
:10119800DA22DECF08F0DDCF09F006C0D9FF07C09C
:1011A800DAFFDECF0AF0DDCF0BF008500A24D96E43
:1011B80009500B20DA6E04C0DFFF20EE02F0065063
:1011C800D9260750DA22DE2A000EDD22120059A0A5
:1011D800F0EF08F0F2EF08F0FCEF08F016C00DF0A1
:1011E80017C00EF014C00FF015C010F0E1EC0AF0B3
:1011F80019BE01EF09F003EF09F009EF09F018C073
:101208001DF019C01EF00DEF09F0000E1E6E000E45
:101218001D6E000E1C6E000E1B6E1FEF09F0000EF7
:10122800056E200E046E14C006F015C007F086EC9B
:1012380008F01B4A1C2A1D501B5C1C50800A1A6EA1
:101248001E50800A1A58D8A02CEF09F02EEF09F08A
:1012580013EF09F059B033EF09F035EF09F03FEF1C
:1012680009F016C00DF017C00EF014C00FF015C02D
:1012780010F0E1EC0AF016C004F017C005F044ECD9
:101288000BF01D500424146E1E500520156E12001C
:1012980083EF09F027C010F028C011F029C012F020
:1012A80025C0F6FF26C0F7FFF86A070EF76403D0DB
:1012B8000800F55005D0F6CFE1FFF7CFE2FFE75081
:1012C800D6EC02F02A6E25C0F6FF26C0F7FFF86AB2
:1012D800070EF76403D00800F55005D0F6CFE1FFFC
:1012E800F7CFE2FFE7502A18D8B47DEF09F07FEF77
:1012F80009F081EF09F09BEF09F0254A262A25C05D
:10130800F6FF26C0F7FFF86A070EF76403D0080057
:10131800F55005D0F6CFE1FFF7CFE2FFE75000091F
:10132800D8A499EF09F09BEF09F04EEF09F01200ED
:10133800136E0CC000F1000E146EB9EF09F01450D2
:101348000D24D96E000E0E20DA6E1450116E126A3A
:10135800010E1126000E1222000E1124E16E010E5C
:101368001220E26EDFCFE7FF142A1450116E126AC2
:101378000F50115C10501258D8A0C5EF09F0C7EFF4
:1013880009F0A3EF09F0000E056E010E066E010EBE
:101398000F24076E000E1020086E1350BCEC0AF0E4
:1013A8001200BA0EF66E170EF76E000EF86E00EE0B
:1013B800E9F010EE0CF00900F5CFEEFFE550E15032
:1013C800FAE102EE20F014EE00F0EE6AE550E1508A
:1013D800FCE1E250FAE102EE00F0200EEE6AE806C7
:1013E800FDE100EE60F04B0EEE6AE806FDE15A6A98
:1013F800596A586A576A5B905B92000EF86E000152
:10140800A2EF01F0ADC053F0AEC054F0000E0001E1
:10141800876F000E866F24EF0AF0ABC043F0ACC0B4
:1014280044F0530E456E000E466EAFC047F0B0C094
:1014380048F0EFEC03F0435000018627445087231F
:1014480053C0F6FF54C0F7FF0800F5500009D8A4B0
:1014580030EF0AF032EF0AF011EF0AF086C0ABF075
:1014680087C0ACF01200000E176E1750B00F94EC46
:101478000BF0000E94EC0BF0100E94EC0BF0400EF9
:101488000C6E1750156E166A070ED890153616365C
:10149800E82E49EF0AF0200E15240D6E020E1620D4
:1014A8000E6E000E106E800E0F6E780E9CEC09F01A
:1014B800172A070E176463EF0AF065EF0AF039EF91
:1014C8000AF0120093809382C78EC79C280EC6121A
:1014D800C550000E046E6C0E056EDC0E066E020E14
:1014E800076E020E156E12C016F013C017F014C066
:1014F80018F0152884EF0AF0D890163617361836E3
:10150800E82E80EF0AF01650086E1750096E185032
:101518000A6E0B6A98EC07F00404C86E1200B50E48
:101528000001B76F000EB86FB1C0B9F0B2C0BAF021
:10153800000EBC6F000EBB6F000EBE6F000EBD6FBD
:10154800B90EAB6F000EAC6FB3C0ADF0B4C0AEF067
:10155800B70EAF6F000EB06F06EC0AF00001BB517A
:10156800B125D96EBC51B221DA6E000EDF6E1200C1
:10157800096EC3EC0BF00950A3EC0BF0000E0B6ED8
:10158800000E0A6ED3EF0AF005C0D9FF06C0DAFFD5
:10159800DF50A3EC0BF0054A062A0A4A0B2A07502B
:1015A8000A5C08500B58D8A0DCEF0AF0DEEF0AF00E
:1015B800C8EF0AF0B9EC0BF01200000E136E000E23
:1015C800126EF2EF0AF011C004F0056A0FC006F0BF
:1015D80010C007F086EC08F0124A132A12500D24A6
:1015E800D96E13500E20DA6EDF50116E1150D8A448
:1015F80000EF0BF002EF0BF0E7EF0AF01200106EAD
:101608001050D8B40AEF0BF00CEF0BF011EF0BF001
:10161800000E126E116815EF0BF0000E126E000E20
:10162800116E200E046E020E056E11C006F012C077
:1016380007F0040E096E000E086E8DEC05F012001E
:1016480017BE31EF0BF0175006E11604D8B02FEF94
:101658000BF031EF0BF03FEF0BF016C018F017C08E
:1016680019F0181E191E184A192A18C016F019C0A0
:1016780017F043EF0BF016C016F017C017F0120062
:1016880004C006F005C007F04CEF0BF0044A052A29
:1016980004C0D9FF05C0DAFFDF50D8A456EF0BF01D
:1016A80058EF0BF04AEF0BF00650045C046E07503D
:1016B8000558056E120004500602F3CF08F0F4CF67
:1016C80009F004500702F350092605500602F350AA
:1016D800092608C004F009C005F012000F0EC16EFB
:1016E800929289929288000E956E000E8C6E928668
:1016F8009490F198F088F08E938493961200F0A855
:1017080088EF0BF08AEF0BF092EF0BF0F0A28FEF5F
:101718000BF091EF0BF092EF0BF0F0925B9211004F
:10172800056EC3EC0BF0780EA3EC0BF0000EA3ECE7
:101738000BF00550A3EC0BF0B9EC0BF01200046EA3
:1017480004C0C9FF9EA6ABEF0BF0ADEF0BF0A6EF00
:101758000BF09E961200C20ED76EF70ED66E870E4D
:10176800D56EF194F294F28A1200C584C5B4BFEF25
:101778000BF0C1EF0BF0BAEF0BF09E961200C5808C
:10178800C5B0C9EF0BF0CBEF0BF0C4EF0BF09E9692
:10179800120004C080F005C081F006C082F007C0C6
:1017A80083F01200D08EF28EF28EF28CF28CF28CD4
:1017B8001200101AA9570B12F56A070A5178000E81
:0C17C80003EC0BF037EC0AF012001200EA
:1057A80000000000000000000000000000000000F1
:1057B80000000000000000000000000000000000E1
:1057C80000000000000000000000000000000000D1
:1057D8000000000000E003E003E003E003E003E072
:1057E80003E003E003C003C003C001C001C001C05F
:1057F80001C001000000000000E003E003E0030036
:105808000000000000000000003C1E3C1E3C1E3C46
:105818001E3C1E3C1E3C1E00000000000000000054
:105828000000000000000000000000000000000070
:1058380000000000000000000000000000CE01CEC3
:1058480003DE039E039C039C07FF3FFF7F38073856
:105858000F780F780F780EFFFFFFFFF01EF01CE0A7
:105868001CE03CE03DE039000000000000000000C2
:1058780000FC03FE0FEE1FE01EE01EE01EE01EE02F
:105888001FE00FE007F003FC01FE01FE01FE01FE30
:1058980001FE01FE01FE3DFC3FF00FE001E00100CA
:1058A8000000000000033E07F78FE78EE79EE3BC89
:1058B800E3B8E7F8E7F0F7E03FC001FF03FF07F3BD
:1058C80007F30FF31EF33CF338F3787FF03FE00063
:1058D800000000000000000000E007F80F780F78D3
:1058E8001F781F781F780FF00FE00F801FC37FC34A
:1058F800FBE7F3F7F1F7F0FFF07FF03EF87F7CFF6E
:105908003FEF1F00000000000000000000E003E07F
:1059180003E003E003E003C003C00100000000004F
:10592800000000000000000000000000000000006F
:10593800000000000000000000000000000000005F
:10594800003F007C00F001E001C003C00780078031
:1059580007800F000F000F000F000F000F000F80CF
:105968000F80078007C007C003E001F0017C003FFB
:10597800000F000000007E001FC007C003E001F018
:1059880001F000F000F800780078007800780078DE
:10599800007800F800F000F000F001E001C003C05A
:1059A80007001F007E00780000E003C003C001CE9E
:1059B80039FF3F7F3F20037003F807780F3C1F38FB
:1059C80006000000000000000000000000000000C9
:1059D80000000000000000000000000000000000BF
:1059E800000000000000000000C001C001C001C0AC
:1059F80001C001C001C001FFFFFFFFC001C001C01D
:105A080001C001C001C0010000000000000000004A
:105A1800000000000000000000000000000000007E
:105A2800000000000000000000000000000000006E
:105A3800000000E003E003E003E003E001E001E030
:105A480001C0018003000000000000000000000009
:105A58000000000000000000000000FE3FFE3F00C4
:105A6800000000000000000000000000000000002E
:105A7800000000000000000000000000000000001E
:105A8800000000000000000000000000000000000E
:105A98000000000000000000000000E003E003E058
:105AA80003E003000000000000000000000F000FEA
:105AB800001E001E003C003C0078007800F000F05A
:105AC80000E001E001C003C00380078007000F0069
:105AD8000F001E001E003C003C0078007800F0001B
:105AE80000F007F80F7C1F3E3E1E3C1F7C1F7C0FFA
:105AF800780F780F780F780F780F780F781F7C1F42
:105B08007C1E3C3E3E7C1FF80FF0070000000000A2
:105B18000000000000F000F007F03FF03FF001F057
:105B280001F001F001F001F001F001F001F001F0E5
:105B380001F001F001F001F001F001FF3FFF3F002B
:105B4800000000000000000000E00FF83F7C3C3C33
:105B5800003E003E003E003C003C007C00F800F0A7
:105B680001E003C0078007000F001E003E003CFE56
:105B78003FFE3F00000000000000000000F00FF8AA
:105B88001F7C1C3E003E003E003C003C00F800F03C
:105B98000FF80F7C003E001E001E001E001E003E77
:105BA800007C1CF81FE01F0000000000000000003F
:105BB800007800F800F800F801F803F807F807780B
:105BC8000F781E781E783C78787878FFFFFFFF788A
:105BD8000078007800780078007800000000000065
:105BE8000000000000FC1FFC1FFC1F001E001E0020
:105BF8001E001E001EE01FF81FFC007C003E003E39
:105C0800001E003E003E003C007C1CF81FE01F0008
:105C1800000000000000000000FC01FE078E0F00DD
:105C28001F001E003E003C003CF83DFC3F3E7F1F2D
:105C38007E0F3C0F3C0F3C0F3C0F3E1F1E3E1FFCCF
:105C48000FF00300000000000000000000FF3FFF0D
:105C58003FFF3F0F001E001E003C0038007800F098
:105C680000F000E001E001C003C0038007800F805E
:105C78000F000F001F001F000000000000000000C0
:105C880000F807FC0F3E1F1E1E1E3E1E3E1E1E3C39
:105C98001FF80FF007F80FFC1E3E3E1F3C1F7C0F3D
:105CA8007C0F7C1F3C3E3FFC1FF0070000000000FB
:105CB8000000000000F007F80F7C1E3E3C1E3C1F51
:105CC8007C1F7C1F7C1F7C1F3C3F3EFF1FEF071F74
:105CD800001E001E003E003C00F838F03FE01F00A8
:105CE80000000000000000000000000000000000AC
:105CF8000000000000E003E003E003E00300000010
:105D08000000000000000000000000E003E003E0E5
:105D180003E0030000000000000000000000000095
:105D2800000000000000000000E003E003E003E0E2
:105D3800030000000000000000000000000000E078
:105D480003E003E003E003E001E001E001C00380B9
:105D58000300000000000000000000000003000F26
:105D6800003F00FC00F003C00F003F00FE003FC0F2
:105D78000FF003FC003F000F0003000000000000CC
:105D8800000000000000000000000000000000000B
:105D9800000000000000000000FFFFFFFF000000FF
:105DA800000000FFFFFFFF000000000000000000EF
:105DB80000000000000000000000000000000000DB
:105DC800000000000000E000F8007E801FE007F8F7
:105DD800017E001F007E00F801E007801F007E00A2
:105DE800F800E000000000000000000000F01FFCC8
:105DF8003F3E381F381F381E001E003C007800F058
:105E080000E001C003C003C007C007000000000095
:105E180000C007C007C00700000000000000000025
:105E280000F803FE0F1E1F0F3E7F3CFF78EF79C777
:105E380073C7F38FF38FF38FF39FF39FF3FF73FF12
:105E48007BF779003C1C1FFC0FF8030000000000E2
:105E58000000000000000000000000E003E003F084
:105E680007F007F007780F780F7C0E3C1E3C1E3EAB
:105E78003CFE3FFF3F1F780F780FF007F007F00058
:105E8800000000000000000000000000000000F812
:105E98003FFC3F3E3C1E3C1E3C1E3C3E3C7C3CF0D6
:105EA8003FF83F7E3C1F3C1F3C0F3C0F3C1F3CFE15
:105EB8003FF83F0000000000000000000000000064
:105EC800000000FF01FF07871F003E003C007C0028
:105ED800780078007800780078007C007C003E002C
:105EE8003F831FFF07FF01000000000000000000C3
:105EF80000000000000000F07FFC7F7E781F781F04
:105F0800780F780F780F780F780F780F780F780F51
:105F1800781F781E787E78F87FE07F000000000008
:105F28000000000000000000000000FF3FFF3F00ED
:105F38003E003E003E003E003E003EFE3FFE3F006B
:105F48003E003E003E003E003E003EFF3FFF3F0059
:105F5800000000000000000000000000000000FF3A
:105F68001FFF1F001E001E001E001E001E001EFF39
:105F78001FFF1F001E001E001E001E001E001E0028
:105F88001E001E00000000000000000000000000CD
:105F9800000000FE03FF0F871F003E007C007C000E
:105FA8007800F800F87FF87FF80F780F7C0F7C0FE7
:105FB8003E8F1FFF0FFE03000000000000000000DE
:105FC800000000000000001F7C1F7C1F7C1F7C1F3E
:105FD8007C1F7C1F7C1F7CFF7FFF7F1F7C1F7C1F1B
:105FE8007C1F7C1F7C1F7C1F7C1F7C000000000026
:105FF8000000000000000000000000FF3FFF3FE03D
:1060080003E003E003E003E003E003E003E003E070
:1060180003E003E003E003E003E003FF3FFF3F008A
:10602800000000000000000000000000000000FC6C
:106038001FFC1F7C007C007C007C007C007C007CBA
:10604800007C007C007C007C0078007800F838F048
:106058003FC03F00000000000000000000000000FA
:106068000000001F3C1E3C3C3C783CF03CE03DE01E
:106078003FC03F803FC03FE03FF03DF03C783C7C74
:106088003C3E3C1F3C0F3C000000000000000000AC
:1060980000000000000000003E003E003E003E0000
:1060A8003E003E003E003E003E003E003E003E00F8
:1060B8003E003E003E003EFF3FFF3F000000000064
:1060C80000000000000000000000001FF81FFC1F77
:1060D800FC3FFE3FFE3FFE7FFF77FF77FFF7F7E7C6
:1060E800F7E7F3E7F3C7F307F007F007F007F00067
:1060F8000000000000000000000000000000000F89
:106108007C0F7C0F7E0F7F0F7F8F7F8F7FCF7FEF7E
:106118007BEF79FF79FF78FF787F783F783F781FAA
:10612800781F780000000000000000000000000058
:10613800000000F007FC1F3E3E1F7C0F780F780F11
:10614800F80FF80FF80FF80FF80FF80F780F781FFF
:106158007C3E3EFC1FF0070000000000000000002D
:1061680000000000000000FC3FFF3F1F3E0F3E0FF5
:106178003E0F3E0F3E1F3E3F3EFC3FF03F003E00BD
:106188003E003E003E003E003E003E000000000093
:106198000000000000000000000000F007FC1F3EA7
:1061A8003E1F7C0F780F780FF80FF80FF80FF80FD5
:1061B800F80FF80F780F781F7C3E3EFC1FF8077C1D
:1061C800003F000F0003000000000000000000F086
:1061D8003FFC3F7E3C3E3C1E3C1E3C3E3C3C3CFC67
:1061E8003CF03FE03FF03DF83C7C3C3E3C1E3C1F11
:1061F8003C0F3C0000000000000000000000000010
:10620800000000FC07FE1F0E3E003C003C003C0066
:106218003EC01FF80FFE037F001F000F000F001F76
:10622800203E3CFC3FF01F00000000000000000082
:1062380000000000000000FFFFFFFFE003E003E0B4
:1062480003E003E003E003E003E003E003E003E02E
:1062580003E003E003E003E003E0030000000000C4
:1062680000000000000000000000000F7C0F7C0F01
:106278007C0F7C0F7C0F7C0F7C0F7C0F7C0F7C0FBE
:106288007C0F7C0F7C1E3C1E3C3E3EFC1FF0070032
:1062980000000000000000000000000000000007EF
:1062A800F007F007F80F780F7C1E3C1E3C1E3E3CA2
:1062B8001E3C1F781F780FF80FF007F007F007E073
:1062C80003E00300000000000000000000000000E0
:1062D80000000003E003F003F007F0E7F3E7F3E75B
:1062E800F3E773F77BF77FFF7F7F7F7F7F7E7F7E7C
:1062F8003F3E3E3E3E3E3E000000000000000000E3
:106308000000000000000007F80F7C1E3E3E3E3CE7
:106318001FF80FF007E007E003E003F007F80F7C31
:106328000F7C1E3E3C1F780F780FF0000000000025
:10633800000000000000000000000007F807780FC8
:106348007C1E3C1E3E3C1F780FF80FF007E003E070
:1063580003E003E003E003E003E003E003E00300FD
:10636800000000000000000000000000000000FF26
:106378007FFF7F0F001F003E007C00F800F000E068
:1063880001E003C007800F000F001E003E007CFFE5
:106398007FFF7F00000000000000000000FF078072
:1063A80007800780078007800780078007800780AD
:1063B800078007800780078007800780078007809D
:1063C8000780078007800780078007FF07FF07000F
:1063D8000000780078003C003C001E001E000F0002
:1063E8000F80078007C003C003E001E001F000F060
:1063F80000780078003C003C001E001E000F000FD3
:106408000007000000F07FF000F000F000F000F05E
:1064180000F000F000F000F000F000F000F000F0F4
:1064280000F000F000F000F000F000F000F000F0E4
:1064380000F000F07FF07F0000C000C001C001E064
:1064480003E003F007F0077807780F380F3C1E3C8D
:106458001E1E3C1E3C0F380F780778000000000015
:106468000000000000000000000000000000000024
:106478000000000000000000000000000000000014
:106488000000000000000000000000000000000004
:1064980000000000000000FFFFFFFF0000000000F8
:1064A80000F00000000000000000000000000000F4
:1064B80000000000000000000000000000000000D4
:1064C80000000000000000000000000000000000C4
:1064D80000000000000000000000000000000000B4
:1064E80000F80FFC3F7C3C3E003E003E00FE07FEED
:1064F8001F3E3E3E7C3E783E7C7E7CFF3FCF1F00A9
:10650800000000000000000000003C003C003C00CF
:106518003C003C003CF83DFE3F3E3F1F3E0F3C0F19
:106528003C0F3C0F3C0F3C0F3C1F3C1E3C3E3FFCCD
:106538003FF03B00000000000000000000000000E9
:10654800000000000000000000FE03FF0F871F008E
:106558003E003E003C007C007C007C003C003E008D
:106568003E871FFF0FFE0300000000000000000030
:10657800001F001F001F001F001F001F00FF07FF54
:106588001F3F3E1F3C1F7C1F7C1F7C1F781F781FEE
:106598007C1F7C3F3C7F3EFF1FDF0F000000000098
:1065A80000000000000000000000000000000000E3
:1065B80000F803FC0F3E1F1E3E1F3C1F7CFF7FFFA1
:1065C8007F007C007C003C003E071FFF0FFE03009D
:1065D800000000000000000000FF01E103C003C04C
:1065E80007C007C007FF7FFF7FC007C007C007C0FD
:1065F80007C007C007C007C007C007C007C007C05B
:1066080007C00700000000000000000000000000B4
:10661800000000000000000000EF07FF1F7F3E1F82
:106628003C1F7C1F7C1F781F781F781F7C1F7C3FB6
:106638003C7F3EFF1FDF0F1E001E001E007C38F847
:106648003F003C003C003C003C003C003CFC3DFE64
:106658003F9E3F1F3F1F3E1F3C1F3C1F3C1F3C1FD0
:106668003C1F3C1F3C1F3C1F3C1F3C00000000001F
:106678000000000000F001F0010000000000000030
:1066880000E07FE07FE001E001E001E001E001E0FF
:1066980001E001E001E001E001E001E001E00100CA
:1066A800000000000000000000F800F800000000F2
:1066B8000000000000F83FF83FF800F800F800F884
:1066C80000F800F800F800F800F800F800F800F802
:1066D80000F800F800F800F000F071E07F003C00DE
:1066E8003C003C003C003C003C1F3C3E3C7C3CF8F1
:1066F8003CF03DE03DC03FC03FE03FF03DF83C7C12
:106708003C3E3C1F3C1F3C00000000000000000015
:1067180000F07FF001F001F001F001F001F001F06C
:1067280001F001F001F001F001F001F001F001F0D9
:1067380001F001F001F001F001F00100000000009B
:106748000000000000000000000000000000000041
:10675800009EF7FFFFFFFFFFFFE7FBE7F9C7F1C761
:10676800F1C7F1C7F1C7F1C7F1C7F1C7F1C7F10028
:106778000000000000000000000000000000000011
:106788000000000000FC3DFE3F9E3F1F3F1F3E1FD4
:106798003C1F3C1F3C1F3C1F3C1F3C1F3C1F3C1F19
:1067A8003C1F3C000000000000000000000000004A
:1067B800000000000000000000F007FC1F3E3E1F24
:1067C8003C1F7C0F780F780F780F780F781F7C1F8D
:1067D8003C3E3EFC1FF007000000000000000000E7
:1067E80000000000000000000000000000F83DFE6E
:1067F8003F3E3F1F3E0F3C0F3C0F3C0F3C0F3C0FF2
:106808003C1F3C1E3E3E3FFC3FF83F003C003C0026
:106818003C003C003C0000000000000000000000BC
:1068280000EE07FE1F7E3E1E3C1E7C1E781E781E54
:10683800781E781E781E7C3E7C7E3EFE1FDE0F1E74
:10684800001E001E001E001E0000000000000000C8
:1068580000000000007F1FFF1FE71FC71F871F00E2
:106868001F001F001F001F001F001F001F001F0028
:106878001F001F00000000000000000000000000D2
:10688800000000000000000000FC07FE1F0E1E00B4
:106898003E003E003FE01FFC07FE003E001E001EBB
:1068A800003E3CFC3FF01F0000000000000000001C
:1068B80000000000000000800780078007FF7FFFBE
:1068C8007F80078007800780078007800780078010
:1068D8000780078007C007FF03FF010000000000D2
:1068E80000000000000000000000000000000000A0
:1068F800001E3C1E3C1E3C1E3C1E3C1E3C1E3C1EFC
:106908003C1E3C1E3C3E3C7E3CFE3EFE1FDE0F0015
:10691800000000000000000000000000000000006F
:10692800000000000007F00F780F781E3C1E3C1E88
:106938003E3C1E3C1E780F780FF00FF007F007E082
:1069480003E0030000000000000000000000000059
:1069580000000000000000000003F0E3F1E3F3E7AB
:10696800F3F7F3F7F3F77F777F7F7F7F7F7F7F3EB4
:106978003E3E3E3E3E3E3E0000000000000000005D
:10698800000000000000000000000000000F7C1E56
:106998003E3C3E3C1FF80FF007F007E003F007F815
:1069A80007F80F7C1E3E3E1F3C1F780000000000C9
:1069B80000000000000000000000000000000000CF
:1069C8000007F80F780F7C1E3C1E3C3C1E3C1E3C0A
:1069D8001F780FF80FF007F007E003E003C003C0CB
:1069E80003C0038007800F007F0000000000000044
:1069F8000000000000FF3FFF3F1F003E007C00F842
:106A080000F001E003C007800F001F001E003CFFDC
:106A18007FFF7F00000000000000000000FE01E092
:106A280003C003C003C003C003E001E001E001C0EC
:106A380001C003803F803FC003C001E001E001E0E6
:106A480001C003C003C003C003E003FE017E0000D1
:106A580000C001C001C001C001C001C001C001C027
:106A680001C001C001C001C001C001C001C001C016
:106A780001C001C001C001C001C001C001C001C006
:106A880001C0010000C03FE003E001E001E001E0D7
:106A980001C001C003C003C001E001FE00FE00E028
:106AA80001C001C003C003C001E001E001E001E052
:106AB80001E003C03F003F000000000000000000AC
:106AC80000000000000000000000000000000007B7
:106AD8003FC77FE773FFF17EF00000000000000071
:106AE800000000000000000000000000000000009E
:106AF800000000000000000000000000000000008E
:106B0800000000000000000000000000000000007D
:106B1800000000000C000C000C000C000C000C0025
:106B28000C000C000C000C000C0000000C000C0009
:106B380000000000000000001B001B001B001B00E1
:106B48001B00000000000000000000000000000022
:106B5800000000000000000000000080198019807B
:106B6800198019C07FC07F80190033C07FC07F00A3
:106B78003300330033003300000000000000000041
:106B88001E003F807580650074003C001E00078071
:106B980005806580658075003F001E0004000400C4
:106BA800000000007000D840D8C0D880D900730019
:106BB80006000C801BC036C066C046C006800300B5
:106BC80000000000000000001E003F0033003300FA
:106BD80033001E000CC03CC066806380618063C0C7
:106BE8003E801C0000000000000000000C000C00AB
:106BF8000C000C000C000000000000000000000069
:106C080000000000000000000000000000800000FC
:106C1800010003000600060004000C000C000C0034
:106C28000C000C000C0004000600060003000180A4
:106C380000002000100018000C000C0004000600E2
:106C48000600060006000600060004000C000C0002
:106C580018001000200000000C002D003F001E004E
:106C680033000000000000000000000000000000E9
:106C7800000000000000000000000000000000000C
:106C88000C000C000C000CC0FFC0FF000C000C0036
:106C98000C000C00000000000000000000000000D4
:106CA80000000000000000000000000000000000DC
:106CB80000000000000000000C000C0004000400AC
:106CC80008000000000000000000000000000000B4
:106CD800000000001E001E00000000000000000070
:106CE800000000000000000000000000000000009C
:106CF800000000000000000000000000000000008C
:106D08000C000C000000000000000000030003005D
:106D1800030006000600060006000C000C000C002C
:106D28000C00180018001800000000000000000007
:106D38001E003F0033806180618061806D806D80BE
:106D480061806180610033003F001E000000000088
:106D58000000000006000E001E0036002600060097
:106D680006000600060006000600060006000600EB
:106D780000000000000000001E003F80738061805A
:106D880061800100030006000C00180030006080DC
:106D98007F807F0000000000000000001C003E0013
:106DA8006300630003000E000E0003800180018071
:106DB800618073003F001E0000000000000000001A
:106DC80006000E000E001E001E00160036003600DB
:106DD80066807F807F000600060006000000000035
:106DE800000000007F007F006000600060006E000F
:106DF8007F80638001800180618073003F001E00F6
:106E080000000000000000001E003F803380610089
:106E180060006E007F8073806180618061803300D4
:106E28003F001E0000000000000000807F807F807F
:106E3800010003000300060006000C000C000C0013
:106E480008001800180018000000000000000000EA
:106E58001E003F8063806180610021001E003F802A
:106E680061806180618061003F001E0000000000B9
:106E7800000000001E003F00738061806180618017
:106E880073803F801D800180610073003F001E00F9
:106E980000000000000000000000000000000000EA
:106EA8000C000C00000000000000000000000000C2
:106EB8000C000C00000000000000000000000000B2
:106EC8000000000000000C000C00000000000000A2
:106ED800000000000C000C00040004000800000082
:106EE800000000000080008003000E0038006000F1
:106EF80038000E8003800000000000000000000041
:106F08000000000000000000000000807F807F007B
:106F1800000000807F807F0000000000000000006B
:106F28000000000000000000000000000000400019
:106F380070001C000780010007001C007000400062
:106F48000000000000000000000000001F803FC09B
:106F580071C060C000C00180030007000E000C0073
:106F68000C0000000C000C000000000000000000F5
:106F78001E003F803180718063806F806D806D80DE
:106F88006F806700600032003E001C0000000000B7
:106F9800000000000E000E001B001B001B001B80E1
:106FA800318031803F803F8031C060C060C0600068
:106FB80000000000000000007C007E006300630009
:106FC800630063007E007E006380618061806300EF
:106FD8007F007E0000000000000000001E003F80CF
:106FE80031806100600060006000600060006080C7
:106FF800618031003F001E0000000000000000001A
:107008007C007F0063806380618061806180618033
:1070180061806100630063007E007C000000000066
:10702800000000807F807F006000600060006000DA
:107038007F007F0060006000600060807F807F00CC
:1070480000000000000000807F807F00600060007A
:10705800600060007F007F006000600060006000EA
:107068006000600000000000000000001E003F807B
:1070780031806100600060006080638063806180AF
:10708800618031803F001E00000000000000008089
:107098006180618061806180618061807F807F80A4
:1070A8006180618061806180618061000000000012
:1070B800000000003F003F000C000C000C000C001A
:1070C8000C000C000C000C000C000C003F003F00F2
:1070D8000000000000000080018001800180018024
:1070E80001800180018001800180618061807300DE
:1070F8003F001E0000000000000000C0608061002A
:107108006300660066006C0078007C00660066001C
:107118006380618061C06000000000000000000022
:107128006000600060006000600060006000600057
:1071380060006000600060807F807F0000000000C9
:10714800000000C071C071C07BC07AC06AC06AC04C
:107158006EC064C060C060C060C060C060C06000D5
:1071680000000000000000807180718079807980C3
:1071780079806D806D806D806580678067806780AD
:107188006380630000000000000000001E003F0054
:10719800338061806180618061806180618061800D
:1071A800610033003F001E000000000000000000E6
:1071B8007E007F80638061806180618063007F00E2
:1071C8007E00600060006000600060000000000059
:1071D800000000001E003F003380618061806180F4
:1071E8006180618061806580670033803F401E0058
:1071F80000000000000000007E007F806380618046
:10720800618063007F007E006600630063806180A8
:1072180061C0600000000000000000000E001F8038
:1072280031803100300038001E0007800380618003
:10723800618031003F001E0000000000000000C017
:10724800FFC0FF000C000C000C000C000C000C0030
:107258000C000C000C000C000C000C0000000000DE
:107268000000008061806180618061806180618050
:107278006180618061806180618073003F001E00D1
:1072880000000000000000C060C060C06080318065
:10729800318031001B001B001B001B000E000E007C
:1072A8000E00040000000000000000C0C0C0C0C004
:1072B800C0C0C0C0C0C0CC804C804C805E805280B2
:1072C800528073806180610000000000000000C0EF
:1072D800C0806080610033003B001E000C000C0081
:1072E8001E001F003B80718061C0C00000000000CC
:1072F800000000C0C08061806100330033001E00C0
:107308001E000C000C000C000C000C000C000C0003
:1073180000000000000000803F803F800100030063
:10732800030006000C000C001800180030006080F4
:107338007F807F000000000000000F000F000C009D
:107348000C000C000C000C000C000C000C000C00D5
:107358000C000C000C000C000C000F000F000000CB
:107368001800180018000C000C000C000C00060097
:1073780006000600060003000300030000000000EA
:1073880000001E001E00060006000600060006009B
:1073980006000600060006000600060006000600B5
:1073A80006001E001E0000000C000C001E0012004B
:1073B800330033806180610000000000000000009D
:1073C80000000000000000000000000000000000B5
:1073D80000000000000000000000000000000000A5
:1073E800000000000000000000E0FF0000000000B6
:1073F800380018000C000000000000000000000029
:107408000000000000000000000000000000000074
:107418000000000000000000000000001F803F8006
:10742800618001801F803F80618063807FC0380059
:1074380000000000000000006000600060006000C4
:107448006E007F80738061806180618061807300DD
:107458007F006E0000000000000000000000000037
:10746800000000001E003F807380610060006080A3
:10747800618073003F001E000000000000000080D3
:1074880001800180018001801D803F8073806180C0
:1074980061806180618073803F801D000000000072
:1074A8000000000000000000000000001E003F0077
:1074B800738061807F807F00608071003F001E00C4
:1074C80000000000000000C007C00F000C000C8086
:1074D8007F807F000C000C000C000C000C000C00DE
:1074E8000C000C000000000000000000000000007C
:1074F80000801D803F807380618061806180618031
:1075080073803F801D80018063007F003E00000083
:1075180060006000600060006F807F807180618023
:10752800618061806180618061806100000000008D
:107538000000000006000600000000003E003E00BB
:107548000600060006000600060006000600060003
:1075580000000000000006000600000000003E00D9
:107568003E000600060006000600060006000600AB
:107578000600060046007E003C0000006000600037
:10758800600060806100630066006C007C0076002B
:107598006300638061C0600000000000000000001C
:1075A8003E003E0006000600060006000600060033
:1075B800060006000600060006000600000000009F
:1075C800000000000000000000000080DDC0FFC0D7
:1075D800CEC0CCC0CCC0CCC0CCC0CCC0CCC0CC0001
:1075E8000000000000000000000000000000000093
:1075F8006F807F807180618061806180618061803F
:107608006180610000000000000000000000000030
:10761800000000001E003F807380618061806180EF
:10762800618073003F001E000000000000000000A1
:107638000000000000006E007F8073806180618020
:107648006180618073007F006E00600060006000F0
:10765800600000000000000000801D803F807380F3
:10766800618061806180618073803F801D800180BE
:1076780001800180010000000000000000000000FF
:1076880067803F00390030003000300030003000A3
:107698003000300000000000000000000000000082
:1076A800000000001E803F80610060007F803F80F6
:1076B800018061007F001E00000000000000000043
:1076C80000000800180018007F007F00180018004C
:1076D80018001800180018801F800F000000000014
:1076E8000000000000000000000000806180618050
:1076F8006180618061806180618063807F803D00FE
:10770800000000000000000000000000000000C0B1
:1077180060803180318031001B001B001B000E008F
:107728000E0006000000000000000000000000003D
:1077380000000080DD80DD80DD005500550055002B
:1077480077007700220022000000000000000000FF
:1077580000000000000000806100330033001E00BC
:107768000C000C001E003300338061000000000094
:10777800000000000000000000806180618031008E
:10778800330033001B001B001B000E000E000E0010
:107798001C007C007000000000000000000000C019
:1077A8007FC07F800100030006000C00180030C075
:1077B8007FC07F00000000000080038007000600F3
:1077C80006000600060006000E001C001C000E0045
:1077D8000600060006000600068007800300060073
:1077E8000600060006000600060006000600060061
:1077F8000600060006000600060006000600060051
:10780800060038003C000C000C000C000C000C00BA
:107818000E00070007000E000C000C000C000C0006
:107828000C003C00380000000000000000000000D0
:107838000000008038807F00470000000000000042
:107848000000000000000000000000000000000030
:107858000000000000000000000000000000100010
:1078680010001000100010001000000010000000B0
:107878000000280028002800000000000000000088
:10788800000000000000240024007C0024004800C0
:107898007C004800480000000000380054005000F8
:1078A8003800140054005400380010000000200074
:1078B800540058003000280054001400080000004C
:1078C800000010002800280010003400480048007C
:1078D800340000000000100010001000000000003C
:1078E8000000000000000000000008001000200058
:1078F80020002000200020002000100008002000A8
:10790800100008000800080008000800080010001F
:1079180020001000380010002800000000000000BF
:1079280000000000000000000000100010007C00B3
:10793800100010000000000000000000000000001F
:1079480000000000000000001000100010000000FF
:1079580000000000000000003800000000000000E7
:10796800000000000000000000000000000000000F
:1079780010000000000008000800100010001000AF
:1079880010002000200000000000380044004400DF
:107998005400440044004400380000000000100077
:1079A80030005000100010001000100010000000FF
:1079B80000003800440044000400080010002000C3
:1079C8007C00000000003800440004001800040097
:1079D80004004400380000000000080018002800D7
:1079E800280048007C0008000800000000007C0017
:1079F8004000400078000400040044003800000003
:107A0800000038004400400078004400440044006E
:107A18003800000000007C0004000800100010007E
:107A2800200020002000000000003800440044002E
:107A380038004400440044003800000000003800CA
:107A48004400440044003C000400440038000000A6
:107A5800000000000000100000000000000000000E
:107A680010000000000000000000000010000000EE
:107A780000000000100010001000000000000C00C2
:107A88003000400030000C00000000000000000042
:107A9800000000007C0000007C00000000000000E6
:107AA80000000000000060001800040018006000DA
:107AB8000000000000003800440004000800100026
:107AC80010000000100000000000380044004C00C6
:107AD80054005C0040004000380000000000100026
:107AE80028002800280028007C00440044000000EA
:107AF800000078004400440078004400440044003A
:107B080078000000000038004400400040004000B9
:107B180040004400380000000000700048004400A5
:107B280044004400440048007000000000007C004D
:107B3800400040007C004000400040007C00000005
:107B480000007C00400040007800400040004000F9
:107B580040000000000038004400400040005C0085
:107B68004400440038000000000044004400440081
:107B78007C00440044004400440000000000380039
:107B88001000100010001000100010003800000055
:107B98000000040004000400040004000400440081
:107BA8003800000000004400480050006000500009
:107BB8004800480044000000000040004000400029
:107BC80040004000400040007C00000000004400ED
:107BD8006C006C0054004400440044004400000061
:107BE8000000440064006400540054004C004C0041
:107BF80044000000000038004400440044004400F1
:107C080044004400380000000000780044004400AC
:107C180044007800400040004000000000003800A8
:107C28004400440044004400440054003800040068
:107C380000007800440044004400780048004800F0
:107C480044000000000038004400400030000800F4
:107C5800040044003800000000007C001000100000
:107C68001000100010001000100000000000440078
:107C7800440044004400440044004400380000002C
:107C88000000440044004400280028002800100098
:107C98001000000000004400440054005400540048
:107CA8006C0028002800000000004400280028007C
:107CB80010001000280028004400000000004400C4
:107CC80044002800280010001000100010000000D8
:107CD80000007C0004000800100010002000400094
:107CE8007C000000000018001000100010001000B8
:107CF80010001000100010001800200020001000D4
:107D080010001000100008000800000000003000FB
:107D180010001000100010001000100010001000DB
:107D28003000100028002800440000000000000077
:107D3800000000000000000000000000000000003B
:107D48000000000000000000FE00200010000000FD
:107D5800000000000000000000000000000000001B
:107D68000000380044003C0044004C00340000008F
:107D780000004000400058006400440044006400D3
:107D880058000000000000000000380044004000D7
:107D980040004400380000000000040004003400E3
:107DA8004C00440044004C00340000000000000077
:107DB8000000380044007C00400044003800000007
:107DC80000000C0010007C001000100010001000D3
:107DD8001000000000000000000034004C004400C7
:107DE80044004C0034000400780040004000580073
:107DF80064004400440044004400000000001000F7
:107E080000007000100010001000100010000000AA
:107E1800000010000000700010001000100010009A
:107E280010001000E00040004000480050006000D2
:107E380050004800440000000000700010001000CE
:107E480010001000100010001000000000000000DA
:107E580000007800540054005400540054000000FE
:107E68000000000000005800640044004400440082
:107E780044000000000000000000380044004400F6
:107E880044004400380000000000000000005800D2
:107E980064004400440064005800400040000000B2
:107EA800000034004C00440044004C00340004003E
:107EB800040000000000580064004000400040003A
:107EC80040000000000000000000380044003000BE
:107ED800080044003800000000002000200078005E
:107EE80020002000200020001800000000000000F2
:107EF800000044004400440044004C0034000000EA
:107F08000000000000004400440028002800280069
:107F1800100000000000000000005400540054004D
:107F28006C00280028000000000000000000440049
:107F38002800100010002800440000000000000085
:107F48000000440044002800280010001000100021
:107F58006000000000007C000800100020004000C5
:107F68007C00000000001800100010001000200025
:107F78002000100010001000180010001000100061
:107F88001000100010001000100010001000300049
:107F98001000100010000800080010001000100069
:107FA800300000000000000074004C0000000000D9
:107FB80000000000007777772E666579746563683E
:107FC8002E636F2E7A61004E6573746F72204B6159
:107FD8006C616D626179005365636F6E64733A20FA
:107FE80025640044657369676E65723A0046657971
:077FF8002D546563680000D1
:020000040020DA
:08000000FFFFFFFFFFFFFFFF00
:020000040030CA
:0E000000220E391EFF0381FF0FC00FE00F40DC
:00000001FF
